:020000040800F2
:100000003810002045010008C12900080517000824
:1000100011280008110600089738000800000000A9
:10002000000000000000000000000000A52E0008F5
:100030006D0C000800000000312B00083D34000862
:100040005F0100085F0100085F0100085F01000810
:100050005F0100085F0100085F0100085F01000800
:100060005F010008E10E0008050F00085F010008AD
:100070005F0100085F0100085F0100085F010008E0
:100080005F0100085F0100085F0100085F010008D0
:100090005F0100085F0100085F010008290F0008E8
:1000A0005F0100085F0100085F0100085F010008B0
:1000B0005F010008ED3400085F0100085F010008DF
:1000C0005F0100085F0100085F0100085F01000890
:1000D0005F0100088D3600085F0100085F0100081D
:1000E000B90E00085F0100085F0100085F01000809
:1000F0005F0100085F0100085F0100085F01000860
:100100005F0100085F0100085F0100085F0100084F
:100110005F0100085F0100085F0100085F0100083F
:100120005F0100085F0100085F0100085F0100082F
:10013000DFF80CD000F096F900480047B1570008EE
:10014000381000200648804706480047FEE7FEE7D3
:10015000FEE7FEE7FEE7FEE7FEE7FEE7FEE7FEE777
:100160008D34000831010008002800DA4042704751
:1001700040EA01039B0703D009E008C9121F08C029
:10018000042AFAD203E011F8013B00F8013B521EA9
:10019000F9D270472DE9FE4F81EA030404F00044D0
:1001A00021F0004100944FF0000B23F0004350EA8F
:1001B00001045ED052EA03045BD0C3F30A54C1F3D6
:1001C0000A552C44A4F2F3340194A0FB0254C1F369
:1001D000130141F48011C3F3130343F4801301FBB3
:1001E000024400FB034E840A970A44EA815447EA1A
:1001F0008357A4FB076802958D0A05FB07854FEA24
:10020000932C04FB0C542705029D4FEA065847EA3D
:100210001637B5EB08056EEB070C870E920E47EA12
:10022000811742EA8312A7FB0201B6EB0B0164EBD4
:1002300000042B0D43EA0C335E1844EB1C50DA46E5
:100240005146E7FB0201C5F313044FEA0B3343EABF
:1002500014534FEA0432019C43EA0603A4F10C0450
:100260000294009CCDE900B400F0AEF803B0BDE804
:10027000F08F00200146F9E70EB5C10F80EAE0706B
:100280000844CA07002140F233438DE80E000A46B5
:100290000B4600F099F803B000BD70B5C1F30A52E7
:1002A00001F000450024C1F3130140F2FF3341F493
:1002B00080119A4201DA002070BD40F233439A4225
:1002C000A2F2334203DC524200F05FF800E09040BB
:1002D0002C43F1D0404270BDC1F30A5210B5C1F3B6
:1002E000130140F2FF3341F480119A4201DA0020F9
:1002F00010BD40F233439A42A2F2334203DC524231
:1003000000F043F810BD904010BD2DE9F05F0546A8
:10031000002092469B4688460646814640241BE0C4
:10032000284641464746224600F02FF853465A4693
:10033000C01A914110D311461846224600F016F813
:100340002D1A67EB01084F4622460120002100F0DC
:100350000DF817EB00094E41201EA4F10104DFDC6B
:10036000484631462A464346BDE8F09F202A04DB32
:10037000203A00FA02F1002070479140C2F12003B8
:1003800020FA03F3194390407047202A04DB203AF7
:1003900021FA02F00021704721FA02F3D040C2F1A5
:1003A0002002914008431946704710B5141E73F19E
:1003B000000408DA401C41F1000192185B411A4325
:1003C00001D120F0010010BD2DE9F04D92469B4671
:1003D00011B1B1FA81F202E0B0FA80F22032904617
:1003E000FFF7C4FF04460F4640EA0A0041EA0B014A
:1003F00053465A46084313D0114653EA010019D018
:10040000C8F140025046FFF7C0FF05460E46504671
:1004100059464246FFF7AAFF084305D0012004E0F1
:1004200020463946BDE8F08D0020054346EAE076D7
:100430002C4337430A986305E40AA0EB0800002226
:10044000FD0A44EA47540A3002D500200146E9E794
:10045000010510196941DDE9084500196941BDE848
:10046000F04DA2E7064C074D06E0E06840F00103BE
:1004700094E8070098471034AC42F6D3FFF75CFECF
:10048000C4D90008E4D9000870B58C1810F8015BD5
:1004900015F0070301D110F8013B2A1106D110F81D
:1004A000012B03E010F8016B01F8016B5B1EF9D121
:1004B0002B0705D40023521E0DD401F8013BFAE7A7
:1004C00010F8013BCB1A921C03E013F8015B01F812
:1004D000015B521EF9D5A142D8D3002070BD10B5E2
:1004E000FF2000F035F80446372C01D1002010BD64
:1004F0003721FF2000F058F8FF2000F029F80446CB
:10050000372C01D10020F2E70120F0E710B501F00F
:1005100023F9FFF7E4FF18B103A003F0BFF902E0ED
:1005200006A003F0BBF910BD3234433032B3F5CA34
:10053000BCBBAFCAA7B0DC0D0A00000032344330A8
:1005400032B3F5CABCBBAFB3C9B9A60D0A000000EF
:1005500070B50446002601F0B5F92546E11704EB15
:1005600011610912A02202EB4101C8B201F070F939
:1005700001F0F4F9E11704EB11610912A4EB012178
:10058000C8B201F065F901F0E9F901F09BF9A12089
:1005900001F05EF901F0E2F9002001F021F90646D0
:1005A00001F0B6F9304670BD70B504460E4601F054
:1005B00089F92546E11704EB11610912A02202EB2B
:1005C0004101C8B201F044F901F0C8F9E11704EBA8
:1005D00011610912A4EB0121C8B201F039F901F04F
:1005E000BDF9304601F034F901F0B8F901F090F9A5
:1005F0000A2003F013FF70BD014601F00F0009113E
:1006000001F00F0101EB810251004218D0B2704796
:1006100000BFFEE710B50024002000F019F80446E2
:10062000204610BD10B501F097F8322003F0F6FE19
:1006300000210A2000F06AF8322003F0EFFE50217A
:10064000082000F063F800210A2000F05FF810BDD8
:1006500070B50446002501F035F9C42001F0F8F822
:1006600001F07CF9204601F0F3F801F077F901F090
:1006700029F9C52001F0ECF801F070F9002001F033
:10068000AFF8054601F044F9284670BD70B5044640
:1006900000251CB90420FFF7DBFF0546012C03D120
:1006A0000520FFF7D5FF0546284670BD70B500242C
:1006B00000250620FFF7CCFF04460720FFF7C8FF00
:1006C000054605EB042080B270BD00002DE9F0471F
:1006D0000024A1460220FFF7BBFF04460320FFF7DA
:1006E000B7FF814609EB0420FFF7C6FD0746054A20
:1006F000054BFFF74FFD0546FFF7EEFD80B2BDE865
:10070000F087000085EB51B81E85D33F70B50546D4
:100710000C4601F0D7F8C42001F09AF801F01EF958
:1007200018B101F0F5F8012070BD284601F090F8ED
:1007300001F014F9204601F08BF801F00FF918B11F
:1007400001F0E6F80120EFE701F0E2F80020EBE726
:1007500010B5802812DA402910DACA10802303FB72
:100760000202074B9A5C01F007040123A3409A435D
:10077000CB10802404FB0303014CE25410BD0000A5
:1007800012080020002004E00021044A1154411CFA
:1007900088B2B0F5806FF7DB7047000012080020C8
:1007A00070B5002415E004F1B001C8B202F0B6FD46
:1007B000102002F0B3FD012002F0B0FD002504E09E
:1007C000002002F0E9FD681CC5B2802DF8DB601C3A
:1007D000C4B2082CE7DB70BD2DE9FF4F82B00F4695
:1007E0001646029830B907F1630000EB40001FFA8B
:1007F00080FA04E0781E00EB40001FFA80FAA64958
:100800000AF10200085C00F06004E00040EA6410B5
:10081000C4B20AF10200085C00F01F05012C03D1EC
:10082000681E00F0FF0903E005F11E0000F0FF095B
:100830000A2E08DA701E9949095C05980844401E82
:100840001FFA80F809E0A6F10A00954931F8101066
:1008500005980844401E1FFA80F8022E0ADDF91799
:1008600007EB91718910A7EB810119B908F101001B
:100870001FFA80F8C84544DBA8EB09001FFA80F88E
:100880000126012001905146019804F0A7FD8346FE
:1008900000200090BBF1000F01D11D2400E01E24B8
:1008A0007D4810F80A0000F0F005280140EA251004
:1008B000C5B21FE0A8EB04001FFA80F80198401CA5
:1008C000C0B20190AE4208D10098C043C0B20090BF
:1008D000009820B9701CC6B201E0701CC6B2514627
:1008E000019804F07BFD8346BBF1000F01D11D246C
:1008F00000E01E24A045DDDA08F10100C0B2059039
:1009000050E0A9EB080000F0FF091FB963270120A0
:10091000029001E0781EC7B2AAF103001FFA80FA24
:100920000C265D4810F80A0000F0F005280140EAA6
:100930002510C5B215B90C20019001E00D200190E1
:10094000002000905146019804F048FD8346BBF119
:10095000000F01D11D2400E01E241CE0A9EB0400BF
:1009600000F0FF090198401EC0B20190009808B93C
:10097000701EC6B2AE4203D10098C043C0B2009010
:100980005146019804F02AFD8346BBF1000F01D1C6
:100990001D2400E01E24A145E0DCA4EB0900401C5E
:1009A000C0B205903F49029808700A2097FBF0F00A
:1009B000C4B2201140EA0410C4B20A2097FBF0F13F
:1009C00000FB1170C5B244EA0500374908700A46B9
:1009D0001078C21700EB12721211A0EB02120B4634
:1009E0001978CB1701EB13731B1103EB830302EB95
:1009F00043022D4B1A700A2096FBF0F0C4B220116E
:100A000040EA0410C4B20A2096FBF0F100FB11602A
:100A1000C5B244EA0500254908700A461078C21795
:100A200000EB12721211A0EB02120B461978CB17D1
:100A300001EB13731B1103EB830302EB43021B4B0C
:100A40001A700A21059890FBF1F0C4B2201140EA17
:100A50000410C4B2059890FBF1F201FB1200C5B27C
:100A600044EA0500124908700A461078C21700EBE4
:100A700012721211A0EB02120B461978CB1701EB80
:100A800013731B1103EB830302EB4302084B1A7031
:100A900006B0BDE8F08F000060D70008B5D90008A7
:100AA000BED9000808040020090400200A04002020
:100AB0000B04002010B500241648006820F47000D4
:100AC000144908600846006840F40000086004E02B
:100AD000601CC4B2012003F0C7FC0F48006808B1D5
:100AE000642CF5DB642C01DB012010BD002404E044
:100AF000601CC4B2012003F0B7FC0748006808B9C5
:100B0000642CF5DB642C02DB04A002F0C7FE00209D
:100B1000EBE70000040C0140348121424448543189
:100B200031CAA7B0DC0D0A0008B50121082002F087
:100B300011F84FF40050ADF8000010208DF80300BC
:100B400003208DF802006946064800F0F9FA4FF4D8
:100B50000051044800F0D2FB00F068F8FFF7AAFF4C
:100B600008BD0000000C014010B5002404E0601C2A
:100B7000C4B2012003F078FC0D48006808B1642C71
:100B8000F5DB002404E0601CC4B2012003F06CFC1F
:100B90000748006808B9642CF5DB1E2003F064FCEC
:100BA0000348006808B1012010BD0020FCE70000E8
:100BB0003481214270B50024002506E06006040E51
:100BC000FFF7D2FF0443681CC5B2082DF6DB2046B0
:100BD00070BD7CB505460E4600F028F8FFF76AFFA9
:100BE000F8B9002405E0FFF7E5FF0DF80400601CEC
:100BF000C4B2052CF7DB9DF800009DF801100844F5
:100C00009DF8021008449DF8031008449DF8041054
:100C1000884208D19DF8000030709DF802002870CD
:100C200001E001207CBD0020FCE7000010B50C486D
:100C3000006820F470000A4908600846006840F423
:100C400040100860002007490860192003F0E6FB07
:100C500001200549C1F8B4011E2003F005FC10BDB8
:100C6000040C0140B48121420080214270472DE9EB
:100C7000FF4F85B083460798A0EB0B0706990898AD
:100C8000A0EB0108002F01DD012000E00020012180
:100C9000C1EB4009B8F1000F01DD012000E00020A8
:100CA0000121C1EB400A5D46069E00243846FFF74D
:100CB000E3FACDE90001FFF757FACDE90201FFF7AA
:100CC000ECFA07464046FFF7D7FACDE90001FFF7F7
:100CD0004BFACDE90201FFF7E0FA8046129830B3F3
:100CE000474511DD00BF0AE0F1B2E8B200F048F874
:100CF0004444B7EB440F01DC5644E41B4D440798D1
:100D00004844A842F0D138E0069E0BE0F1B2E8B2C8
:100D100000F036F83C44B8EB440F02DC4D44A4EB41
:100D20000804564408985044B042EFD125E04745A6
:100D300011DD5D460AE0F1B2E8B2FFF709FD444477
:100D4000B7EB440F01DC5644E41B4D44079848447C
:100D5000A842F0D111E0069E0BE0F1B2E8B2FFF735
:100D6000F7FC3C44B8EB440F02DC4D44A4EB080410
:100D7000564408985044B042EFD109B0BDE8F08F16
:100D800010B5802812DA402910DACA10802303FB3C
:100D90000202074B9A5C01F007040123A3401A43A7
:100DA000CB10802404FB0303014CE25410BD00006F
:100DB000120800202DE9F84304460D4617461E464A
:100DC000DDF82090A046B9F1000F09D0B9F1010F6C
:100DD00027D0B9F1020F36D0B9F1030F66D153E035
:100DE00001202B463A46294600902046FFF73FFF58
:100DF000012033463A46314600902046FFF737FF40
:100E0000012033462246294600902046FFF72FFF57
:100E1000012033463A46294600903846FFF727FF1F
:100E200046E00CE0444605E029462046FFF7A8FFCF
:100E3000601CC4B2781C8442F6DB681CC5B2701C0E
:100E40008542EFDB34E000202B463A4629460090ED
:100E50002046FFF70CFF002033463A46314600900B
:100E60002046FFF704FF0020334622462946009023
:100E70002046FFF7FCFE002033463A462946009004
:100E80003846FFF7F4FE13E00CE0444605E029463F
:100E90002046FFF75DFC601CC4B2781C8442F6DB80
:100EA000681CC5B2701C8542EFDB01E0BDE8F88329
:100EB00000BF00BFFAE7000010B54FF4004106483C
:100EC00000F012FA10B90420044908704FF40040F1
:100ED00000F0C6F810BD00000008014046000020E8
:100EE00010B50821054800F0FFF910B901200449A8
:100EF0000870082000F0B4F810BD0000000C01409C
:100F00004600002010B51021054800F0EDF910B999
:100F1000022004490870102000F0A2F810BD000063
:100F2000000C01404600002010B52021054800F0CB
:100F3000DBF910B9032004490870202000F090F874
:100F400010BD0000000C0140460000200EB500F06E
:100F50001DFE0121084601F0FDFD0321012000F0E6
:100F6000CFF80820019000208DF808000C208DF8A3
:100F7000090001208DF80A0001A800F077F804218B
:100F8000012000F0BDF81020019000208DF808002D
:100F90000C208DF8090001208DF80A0001A800F04E
:100FA00065F80521012000F0ABF820200190002019
:100FB0008DF808000C208DF8090001208DF80A003A
:100FC00001A800F053F80F21002000F099F84FF429
:100FD0000040019000208DF808000C208DF80900D9
:100FE00001208DF80A0001A800F040F809208DF8D2
:100FF000000002208DF801008DF8020001208DF81C
:101000000300684601F0DEFC0A208DF80000022093
:101010008DF801008DF8020001208DF8030068466C
:1010200001F0D0FC17208DF8000002208DF801009F
:101030008DF8020001208DF80300684601F0C2FC23
:1010400028208DF8000002208DF801008DF80200A4
:1010500001208DF80300684601F0B4FC0EBD0000CD
:101060000149086070470000140401400021234931
:101070008279002A3AD00A46126803689A430B46DE
:101080001A600A1D126803689A430B1D1A600279E0
:1010900011440A6803681A430A60184A0832126841
:1010A00003689A43154B08331A601A1D12680368C7
:1010B0009A43124B0C331A604279102A0ED11A1F30
:1010C000126803681A430D4B08331A601A1D126820
:1010D00003681A43094B0C331A600DE00749427943
:1010E00011440A6803681A430A6005E00279114452
:1010F0000A6803689A430A607047000000040140D0
:1011000030B500228B071C0F0F2303FA04F20B4BA0
:101110008C1053F824309343084C8D1044F825303C
:1011200023468C1053F824308C07240F00FA04F463
:101130002343024C8D1044F8253030BD0800014097
:101140002DE9F0410246002500260020002300245E
:10115000002791F803C00CF00F0591F803C00CF0C4
:10116000100CBCF1000F03D091F802C04CEA050549
:1011700091F800C0BCF1000F31D0146800202BE0C2
:101180004FF0010C0CFA00F3B1F800C00CEA0306B2
:101190009E4220D183004FF00F0C0CFA03F7BC43A2
:1011A00005FA03FC4CEA040491F803C0BCF1280FD3
:1011B00006D14FF0010C0CFA00FCC2F814C00AE092
:1011C00091F803C0BCF1480F05D14FF0010C0CFAA7
:1011D00000FCC2F810C0401C0828D1D31460B1F83C
:1011E00000C0BCF1FF0F34DD546800202EE000F198
:1011F000080C4FF0010808FA0CF3B1F800C00CEA33
:1012000003069E4221D183004FF00F0C0CFA03F726
:10121000BC4305FA03FC4CEA040491F803C0BCF19A
:10122000280F05D100F1080C08FA0CF8C2F8148058
:1012300091F803C0BCF1480F07D100F1080C4FF042
:10124000010808FA0CF8C2F81080401C0828CED318
:101250005460BDE8F0810000F0B50A460023002488
:101260000021002500F00046B6F1004F02D11D4ECE
:10127000F16901E01B4E7168C0F3034583B200F4CD
:101280004016B6F5401F08D121F07061154E766802
:1012900026F07066134F7E6012E000F48016B6F5FB
:1012A000801F06D1032606FA05F4A14341F07061C0
:1012B00006E0460D360103FA06F6B14341F07061CF
:1012C00022B1460D360103FA06F6314300F000461E
:1012D000B6F1004F02D1034EF16101E0014E7160A1
:1012E000F0BD000000000140024693680B400BB1C6
:1012F000012000E0002070474161704701617047A4
:101300002DE9F74F82B08146164600273046F21786
:1013100006EB5272D2103146F31706EB5373DB1013
:10132000A6EBC3030BB1012300E000231A44724370
:10133000D2B2009299F8005009F101008146047878
:1013400009F10100814690F800A009F101008146F1
:1013500090F800B07F2C13D10020019009E000210B
:10136000039801700398401C03900198401CC0B280
:101370000190DDE900108842F1DB05B0BDE8F08F97
:101380000C2E73D1A12D0EDBA92D0CDCA12C0ADBB8
:10139000A4F1A100A5F1A101C1EB011202EB4111E1
:1013A00000EB410713E0A82D11DBA92D0FDCA12CC8
:1013B0000DDA7F2C01DD601EC4B2A4F14000A5F15E
:1013C000A80101EB410100EB411000F24E37B02DB6
:1013D00010DBF72D0EDCA12C0CDBA4F1A100A5F194
:1013E000B001C1EB011202EB411100EB410000F230
:1013F0000E472EE0A12D17DA812D15DB402C13DBD3
:101400007F2C01DD601EC4B2A4F14000A5F1810172
:10141000C1EB411202EB811100EB410000F20E40E2
:1014200041F67021471814E0AA2D12DBA12C10DA26
:101430007F2C01DD601EC4B2A4F14000A5F1AA0119
:1014400001EB410100EB411000F20E4043F230216C
:10145000471807EB47004FEAC00818229E4808EBE0
:101460000001039801F09AFC99E0FFE7102E77D174
:10147000A12D0EDCA02D0CDBA12C0ADBA4F1A10018
:10148000A5F1A101C1EB011202EB411100EB4107F3
:1014900013E0A82D11DBA92D0FDCA12C0DDA7F2C78
:1014A00001DD601EC4B2A4F14000A5F1A80101EB6A
:1014B000410100EB411000F24E37B02D10DBF72D4B
:1014C0000EDCA12C0CDBA4F1A100A5F1B001C1EB55
:1014D000011202EB411100EB410000F20E4755E012
:1014E000A12D17DA812D15DB402C13DB7F2C01DDBC
:1014F000601EC4B2A4F14000A5F18101C1EB41120C
:1015000002EB811100EB410000F20E4041F6702128
:1015100047183BE0AA2D13DBA12C11DA7F2C01DD4B
:10152000601EC4B2A4F14000A5F1AA0101EB410183
:1015300000EB411000F20E4043F23021471825E045
:10154000812D0ED1392C0CDBAAF1EE0000EB8000CE
:1015500045F21E6101EB40005844A0F1390715E047
:101560001DE0822D12D1A4F13000C0EB801000EB01
:10157000800045F2BF6101EB8001AAF1810000EB20
:10158000800001EB40005844A0F130074FEA4718B3
:101590002022524808EB0001039801F0FFFB182EAF
:1015A00077D1A12D0EDBAB2D0CDCA12C0ADBA4F135
:1015B000A100A5F1A101C1EB011202EB411100EB69
:1015C000410713E0A82D11DBA92D0FDCA12C0DDAAA
:1015D0007F2C01DD601EC4B2A4F14000A5F1A8017A
:1015E00001EB410100EB411000F24E37B02D10DB52
:1015F000F72D0EDCA12C0CDBA4F1A100A5F1B001AC
:10160000C1EB011202EB411100EB410000F20E4769
:1016100055E0A12D17DA812D15DB402C13DB7F2C33
:1016200001DD601EC4B2A4F14000A5F18101C1EB4F
:10163000411202EB811100EB410000F20E4041F635
:10164000702147183BE0AA2D13DBA12C11DA7F2C67
:1016500001DD601EC4B2A4F14000A5F1AA0101EBB6
:10166000410100EB411000F20E4043F230214718D7
:1016700025E0812D0ED1392C0CDBAAF1EE0000EB18
:10168000800045F21E6101EB40005844A0F139078B
:1016900015E01FE0822D12D1A4F13000C0EB8010C4
:1016A00000EB800045F2BF6101EB8001AAF18100EF
:1016B00000EB800001EB40005844A0F1300707EB3D
:1016C000C7004FEAC0084822054808EB000103980C
:1016D00001F064FB00BF50E60E3D0900DE4F110033
:1016E000DE431F0030B501460A2491FBF4F4E2B258
:1016F0000A2491FBF4F504FB1514E3B203EB021486
:10170000E0B230BD00BFFEE710B500200F49086011
:101710000F48006820F470400D49086008460068D2
:1017200040F44050086000200A49C1F8AC01022092
:1017300002F09AFE012005490860022002F094FEA2
:1017400000200449C1F8A80110BD0000A881214271
:10175000040C01400080214208B50121092001F05C
:10176000F9F94FF44060ADF8000010208DF8030047
:1017700003208DF8020069460448FFF7E1FC4FF4AE
:1017800040610248FFF7BAFD08BD0000000C0140AF
:1017900010B500200F4908600F48006820F4704021
:1017A0000D4908600846006840F440500860012078
:1017B0000A49C1F8AC01022002F056FE0120054999
:1017C0000860022002F050FE00200449C1F8A80180
:1017D00010BD0000A8812142040C0140008021427C
:1017E00070B5054600241748006820F4704015497C
:1017F00008600846006840F400400860002616E0D3
:10180000002011490860022002F02EFE01200F493D
:10181000C1F8A8016006040E0B487C38006808B1C6
:10182000601CC4B2012002F01FFE701CC6B2082E5C
:10183000E6DB15B9FFF7ACFF01E0FFF765FF2046D7
:1018400070BD0000040C0140A881214200802142AB
:1018500070B504461848006820F4704016490860C6
:101860000846006840F440500860002013490860B2
:1018700000251EE0E00920B101201049091D086083
:1018800003E000200D49091D08606006040E0220D7
:1018900002F0EAFD012009490860022002F0E4FD9F
:1018A00000200749C1F8A801022002F0DDFD681CF4
:1018B000C5B2082DDEDB70BD040C0140A8812142B9
:1018C0000080214210B50F48006820F470400D4997
:1018D00008600846006840F44050086001200A494A
:1018E00008600A49C1F8A801042002F0BDFD0020EB
:1018F00005490860042002F0B7FD00200349C1F843
:10190000A80110BD040C0140AC812142008021429D
:1019100010B50F48006820F470400D490860084673
:10192000006840F44050086000200A4908600A49F5
:10193000C1F8AC01042002F097FD012005490860C0
:101940000549C1F8AC01042002F08EFD10BD000075
:10195000040C0140A88121420080214210B50024DE
:101960001448006820F47040124908600846006876
:1019700040F40040086001200F49086002F074FD47
:1019800001200E49C1F8A80102F06EFD07E0601CBD
:10199000C4B2FA2C03DDFFF7BBFF012010BD0648DF
:1019A000803800680028F2D10349091F086000BF91
:1019B000F4E70000040C0140AC8121420080214288
:1019C00070B5054600240121284600F071F828462C
:1019D00000F031F80446214602A001F05FFF2046E6
:1019E00070BD0000B5E7C1F73D202564200D0A0059
:1019F00070B5054600BF0221284600F059F8284678
:101A000000F019F8044604EB4400C0EBC410323077
:101A10006421B0FBF1F4A0B270BD10B544F2FF3206
:101A200000218A2000F022F84FF4806205218A20EC
:101A300000F01CF810BD70B505460024FFF742FF0A
:101A4000691CC8B2FFF704FFFFF788FF0120FFF70A
:101A5000C7FE04464FF6FF7000EA04240020FFF79B
:101A6000BFFE0443FFF754FF204670BD2DE9F0414F
:101A700006460D4614460027FFF724FF3046FFF7C1
:101A8000E7FEFFF76BFF2846FFF7E2FEFFF766FF72
:101A900027123846FFF7DCFEFFF760FFE7B2384653
:101AA000FFF7D6FEFFF75AFFFFF732FFBDE8F081E0
:101AB00070B505460C46FFF705FF2846FFF7C8FE40
:101AC000FFF74CFF2046FFF7C3FEFFF747FFFFF786
:101AD0001FFF70BD10B501F0F7FB4FF480412648A1
:101AE000FFF70AFCC82002F069FC4FF4804122484D
:101AF000FFF704FCC82002F061FCAF2001F00EFCEF
:101B0000402001F00BFCB02001F008FC102001F097
:101B100005FC012001F002FCA02001F0FFFBA62043
:101B200001F0FCFBA42001F0F9FBA32001F0F6FB7F
:101B3000E22001F0F3FBC82001F0F0FB2F2001F0C0
:101B4000EDFB252001F0EAFB812001F0E7FB2820D6
:101B500001F0E4FBAC2001F0E1FBF82001F0DEFB3A
:101B6000012001F0DBFB602001F0D8FBFEF718FE3E
:101B700002A001F093FE10BD001001404C4344B39D
:101B8000F5CABCBBAFCDEAB3C90D0A0008B5012147
:101B9000042000F0DFFF0121082000F0DBFF01211D
:101BA0001C48FFF759FB0820ADF8000048208DF8CD
:101BB000030001208DF8020069461748FFF7C0FABC
:101BC0001020ADF8000048208DF8030001208DF8AA
:101BD000020069461048FFF7B3FA2020ADF8000074
:101BE00048208DF8030001208DF8020069460A485C
:101BF000FFF7A6FA4FF40040ADF8000048208DF83A
:101C0000030001208DF8020069460448FFF798FAA6
:101C100008BD000000023000000C01400008014037
:101C200010B50246012000E050430B1EA1F1010453
:101C3000E1B2F9D110BD00002DE9F04F85B00746A3
:101C40000D4693461C46A846049503972046E31785
:101C500004EB5373DB1021464FEAE47C04EB5C7C1D
:101C60004FEAEC0CA4EBCC0CBCF1000F02D04FF00F
:101C7000010C01E04FF0000C6344224604EBD27CDF
:101C80004FEA6C0C03FB0CF3DBB20093ABF12000CA
:101C900000F0FF0B0E98012800D100E000200E9903
:101CA000022901D1012100E00021084310B30020E6
:101CB00001901CE0002002900BE0049AD1B2DDE913
:101CC00002321A44D0B2FEF743FD0298401CC0B263
:101CD000029004EBD4720299B1EB620FEDDB049831
:101CE000401C80B204900198401CC0B20190019841
:101CF000A042DFDB4FF0000A88E00C2C07D10BEB91
:101D00004B00454901EB800010F80A6014E0102CEC
:101D100005D1424800EB0B1010F80A600CE0182CBB
:101D200007D10BEBCB003E4901EB800010F80A60B5
:101D300002E005B0BDE8F08F0E9802281FD1F043F5
:101D4000C6B24FF0000916E006F0800018B1E9B203
:101D5000F8B2FFF715F87006060E681C85B2A5EB01
:101D60000800A04203D14546781C87B206E009F17D
:101D7000010000F0FF09B9F1080FE5DB42E00E9821
:101D8000F0B900BF4FF0000916E006F0800018B16E
:101D9000E9B2F8B2FEF7F4FF7006060E681C85B2D1
:101DA000A5EB0800A04203D14546781C87B206E0A7
:101DB00009F1010000F0FF09B9F1080FE5DB21E0AE
:101DC0000E9801281ED100BF4FF0000916E006F062
:101DD000800018B1E9B2F8B2FEF7D2FF7006060E25
:101DE000681C85B2A5EB0800A04203D14546781CCB
:101DF00087B206E009F1010000F0FF09B9F1080F10
:101E0000E5DB00BF0AF1010000F0FF0A00988245FF
:101E1000FFF673AF00BF8CE7C08A0008348F00085C
:101E2000249500082DE9FF4F82B0074691461E46D3
:101E3000DDE90F5A00200190002438E0301B401EDD
:101E4000C1B20A20FFF7ECFEB9FBF0F00A21B0FBAB
:101E5000F1F201FB12080198B0B9701EA04213DD27
:101E6000B8F1000F0ED1AB4605EBDB71491001FB59
:101E7000047188B22B463022CDF800A00399FFF7F9
:101E8000DBFE12E001200190AB4605EBDB7149104F
:101E900001FB047188B208F13001CAB22B46CDF8BB
:101EA00000A00399FFF7C8FE00BF601CC4B2B44293
:101EB000C4DB06B0BDE8F08F70B5044600250DE028
:101EC000A8B2002103F058FC002604E0207801F0BD
:101ED00063FA641C761C802EF8D36D1C082DEFD39A
:101EE00070BD2DE9FF4F83B007460D46DDE910B9FF
:101EF000A846029501970698002879D105980E28E2
:101F000029D1002424E00BEB040000EB0910067833
:101F10004FF0000A16E006F0800018B1E9B2F8B2FE
:101F2000FEF72EFF7006060E681C85B2A5EB0800B2
:101F3000082803D14546781C87B206E00AF1010063
:101F400000F0FF0ABAF1100FE5DB00BF601CC4B25D
:101F5000102CD8DBACE20598102857D1002424E0DF
:101F60000BEB040000EB491006784FF0000A16E076
:101F700006F0800018B1E9B2F8B2FEF701FF700672
:101F8000060E681C85B2A5EB0800102803D1454653
:101F9000781C87B206E00AF1010000F0FF0ABAF1EE
:101FA000100FE5DB00BF601CC4B2102CD8DB10247E
:101FB00029E00BEB040000EB491006784FF0000A13
:101FC0001BE006F0800038B105F10802D1B2A7F19C
:101FD0001002D0B2FEF7D4FE7006060E681C85B261
:101FE000A5EB0800102804D14546781C87B207E00D
:101FF000C0E00AF1010000F0FF0ABAF1100FE0DBC7
:1020000000BF601CC4B2202CD3DBE1E3059820287C
:10201000A0D1002424E00BEB040000EB891006782B
:102020004FF0000A16E006F0800018B1E9B2F8B2ED
:10203000FEF7A6FE7006060E681C85B2A5EB08002A
:10204000102803D14546781C87B206E00AF101004A
:1020500000F0FF0ABAF1100FE5DB00BF601CC4B24C
:10206000102CD8DB102428E00BEB040000EB8910C7
:1020700006784FF0000A1AE006F0800038B105F14A
:102080000802D1B2A7F11002D0B2FEF779FE7006B5
:10209000060E681C85B2A5EB0800102803D1454642
:1020A000781C87B206E00AF1010000F0FF0ABAF1DD
:1020B000100FE1DB00BF601CC4B2202CD4DB202455
:1020C00028E00BEB040000EB891006784FF0000AC3
:1020D0001AE006F0800038B105F11002D1B2A7F184
:1020E0002002D0B2FEF74CFE7006060E681C85B2C8
:1020F000A5EB0800102803D14546781C87B206E0FE
:102100000AF1010000F0FF0ABAF1100FE1DB00BF95
:10211000601CC4B2302CD4DB302428E00BEB04006C
:1021200000EB891006784FF0000A1AE006F08000F4
:1021300038B105F11802D1B2A7F13002D0B2FEF7E2
:102140001FFE7006060E681C85B2A5EB080010285D
:1021500003D14546781C87B206E00AF1010000F081
:10216000FF0ABAF1100FE1DB00BF601CC4B2402CC3
:10217000D4DB2DE30698022873D105980E2846D1AA
:102180000020009014E0002408E0029A2244D1B21A
:10219000019AD0B2FEF7DCFA601CC4B2082CF4DB62
:1021A0000198401C80B201900098401CC0B2009081
:1021B00000980828E7DB002426E00BEB040000EB86
:1021C00009100678F043C6B24FF0000A16E006F098
:1021D000800018B1E9B2F8B2FEF7D2FD7006060E23
:1021E000681C85B2A5EB0800082803D14546781C79
:1021F00087B206E00AF1010000F0FF0ABAF1100F01
:10220000E5DB00BF601CC4B2102CD6DBE0E2059811
:10221000102877D10020009014E0002408E0029AF2
:102220002244D1B2019AD0B2FEF792FA601CC4B235
:10223000102CF4DB0198401C80B201900098401CE7
:10224000C0B2009000981028E7DB002427E00BEBD9
:10225000040000EB49100678F043C6B24FF0000AC4
:1022600017E026E106F0800018B1E9B2F8B2FEF7F7
:1022700087FD7006060E681C85B2A5EB08001028C5
:1022800003D14546781C87B206E00AF1010000F050
:10229000FF0ABAF1100FE5DB00BF601CC4B2102CBE
:1022A000D5DB10242AE00BEB040000EB4910067884
:1022B000F043C6B24FF0000A1AE006F0800038B1D1
:1022C00005F10802D1B2A7F11002D0B2FEF758FD15
:1022D0007006060E681C85B2A5EB0800102803D115
:1022E0004546781C87B206E00AF1010000F0FF0ABB
:1022F000BAF1100FE1DB00BF601CC4B2202CD2DBAE
:1023000066E2FFE705982028FAD10020009014E04B
:10231000002408E0029A2244D1B2019AD0B2FEF71A
:1023200017FA601CC4B2202CF4DB0198401C80B268
:1023300001900098401CC0B2009000981028E7DB84
:10234000002426E00BEB040000EB89100678F04334
:10235000C6B24FF0000A16E006F0800018B1E9B2EC
:10236000F8B2FEF70DFD7006060E681C85B2A5EBEF
:102370000800102803D14546781C87B206E00AF110
:10238000010000F0FF0ABAF1100FE5DB00BF601C8E
:10239000C4B2102CD6DB10242AE00BEB040000EBB7
:1023A00089100678F043C6B24FF0000A1AE006F032
:1023B000800038B105F10802D1B2A7F11002D0B205
:1023C000FEF7DEFC7006060E681C85B2A5EB080061
:1023D000102803D14546781C87B206E00AF10100B7
:1023E00000F0FF0ABAF1100FE1DB00BF601CC4B2BD
:1023F000202CD2DB20242AE00BEB040000EB891018
:102400000678F043C6B24FF0000A1AE006F08000EA
:1024100038B105F11002D1B2A7F12002D0B2FEF717
:10242000AFFC7006060E681C85B2A5EB08001028EC
:1024300003D14546781C87B206E00AF1010000F09E
:10244000FF0ABAF1100FE1DB00BF601CC4B2302CF0
:10245000D2DB30242AE00BEB040000EB8910067875
:10246000F043C6B24FF0000A1AE006F0800038B11F
:1024700005F11802D1B2A7F13002D0B2FEF780FC0C
:102480007006060E681C85B2A5EB0800102803D163
:102490004546781C87B206E00AF1010000F0FF0A09
:1024A000BAF1100FE1DB00BF601CC4B2402CD2DBDC
:1024B0008EE106980128FBD105980E2844D1002012
:1024C000009014E0002408E0029A2244D1B2019A5C
:1024D000D0B2FEF73DF9601CC4B2082CF4DB0198C1
:1024E000401C80B201900098401CC0B2009000983F
:1024F0000828E7DB002424E00BEB040000EB0910C4
:1025000006784FF0000A16E006F0800018B1E9B234
:10251000F8B2FEF735FC7006060E681C85B2A5EB16
:102520000800082803D14546781C87B206E00AF166
:10253000010000F0FF0ABAF1100FE5DB00BF601CDC
:10254000C4B2102CD8DB43E10598102872D10020CA
:10255000009014E0002408E0029A2244D1B2019ACB
:10256000D0B2FEF7F5F8601CC4B2102CF4DB019871
:10257000401C80B201900098401CC0B200900098AE
:102580001028E7DB002424E00BEB040000EB4910EB
:1025900006784FF0000A16E006F0800018B1E9B2A4
:1025A000F8B2FEF7EDFB7006060E681C85B2A5EBCF
:1025B0000800102803D14546781C87B206E00AF1CE
:1025C000010000F0FF0ABAF1100FE5DB00BF601C4C
:1025D000C4B2102CD8DB102428E00BEB040000EB75
:1025E000491006784FF0000A1AE006F0800038B172
:1025F00005F10802D1B2A7F11002D0B2FEF7C0FB7C
:102600007006060E681C85B2A5EB0800102803D1E1
:102610004546781C87B206E00AF1010000F0FF0A87
:10262000BAF1100FE1DB00BF601CC4B2202CD4DB78
:10263000CEE0FFE70598202885D10020009014E027
:10264000002408E0029A2244D1B2019AD0B2FEF7E7
:102650007FF8601CC4B2202CF4DB0198401C80B2CF
:1026600001900098401CC0B2009000981028E7DB51
:10267000002424E00BEB040000EB891006784FF0F7
:10268000000A16E006F0800018B1E9B2F8B2FEF7D1
:1026900077FB7006060E681C85B2A5EB08001028B3
:1026A00003D14546781C87B206E00AF1010000F02C
:1026B000FF0ABAF1100FE5DB00BF601CC4B2102C9A
:1026C000D8DB102428E00BEB040000EB891006781F
:1026D0004FF0000A1AE006F0800038B105F1080258
:1026E000D1B2A7F11002D0B2FEF74AFB7006060E77
:1026F000681C85B2A5EB0800102803D14546781C5C
:1027000087B206E00AF1010000F0FF0ABAF1100FEB
:10271000E1DB00BF601CC4B2202CD4DB202428E005
:102720000BEB040000EB891006784FF0000A1AE06A
:1027300006F0800038B105F11002D1B2A7F12002F5
:10274000D0B2FEF71DFB7006060E681C85B2A5EB25
:102750000800102803D14546781C87B206E00AF12C
:10276000010000F0FF0ABAF1100FE1DB00BF601CAE
:10277000C4B2302CD4DB302428E00BEB040000EB97
:10278000891006784FF0000A1AE006F0800038B190
:1027900005F11802D1B2A7F13002D0B2FEF7F0FA7B
:1027A0007006060E681C85B2A5EB0800102803D140
:1027B0004546781C87B206E00AF1010000F0FF0AE6
:1027C000BAF1100FE1DB00BF601CC4B2402CD4DBB7
:1027D00007B0BDE8F08F000008B50121082000F027
:1027E000B9F94FF48040ADF8000010208DF80300D7
:1027F00003208DF8020069460448FEF7A1FC4FF45F
:1028000080410248FEF778FD08BD0000000C014041
:1028100000BFFEE710B53A480078012806D002282C
:1028200019D0032841D0042854D129E0002034498C
:10283000087034A001F032F8FDF7A4FF00F0E6FBC9
:102840003348007800EB4000324901EB80004078CB
:102850002F49087044E00020294908702EA001F09B
:102860001DF8FDF78FFF00F0D1FB2948007800EB41
:102870004000284901EB80008078254908702FE04E
:1028800000201F49087027A001F008F8FDF77AFF23
:1028900000F0BCFB1E48007800EB40001D4901EB36
:1028A0008000C0781A4908701AE0002014490870A6
:1028B0001FA000F0F3FFFDF765FF00F0A7FB144831
:1028C000007800EB4000134901EB800000791049CB
:1028D000087005E0012001F0A1FD02F011FE00BF2B
:1028E00000BF0B48007800EB40000A4901EB800074
:1028F00080681249086008460068804710BD0000E3
:1029000046000020C9CFBCFCB0B4CFC20D0A000005
:102910004C00002054000020CFC2BCFCB0B4CFC299
:102920000D0A0000C8B7B6A8B0B4CFC20D0A0000A7
:10293000CDCBB3F6B0B4CFC20D0A000050000020DA
:10294000F0B587B004460D461646002705E03078FE
:1029500003A9C855761C781CC7B20C2FF7DB0020E2
:102960008DF818000320009005F11100C3B204F1A6
:102970004C00C2B229462046FEF71CFA002005F1A1
:10298000100C0CF0FF0304F14B0C0CF0FF0205F1EE
:10299000010C0CF0FF0104F1010C00900CF0FF00A1
:1029A000FEF708FA00200C2103AA0B46CDE900210E
:1029B00002904822E91CE01C00F024FC07B0F0BDA6
:1029C0007047000070B5002100230F22C47804B3C3
:1029D000154C246804F4E064C4F5E064210AC1F1F4
:1029E0000403CA40447804FA03F184781440214374
:1029F00009010E4C0678A155047804F01F05012446
:102A0000AC4005786D11AD0005F1E025C5F8004139
:102A100009E0047804F01F050124AC40044D067859
:102A2000761145F8264070BD0CED00E000E400E0B2
:102A300080E100E002490143024A11607047000052
:102A40000000FA050CED00E02DE9F04186B00446E7
:102A50000F4690460026182233496846FDF788FB4A
:102A6000781E3DF8106006EB080086B2642194FBE6
:102A7000F1F201FB124109B1012100E00021E2174E
:102A800004EB92729210A4EB82020AB9012200E0D8
:102A90000022114031B94FF4C87194FBF1F201FBEF
:102AA000124119B9032F01DB701C86B2A4F26D70BC
:102AB00040F26D1100FB016086B240F26D751FE0BF
:102AC000642195FBF1F201FB125109B1012100E0F3
:102AD0000021EA1705EB92729210A5EB82020AB967
:102AE000012200E00022114031B94FF4C87195FB7A
:102AF000F1F201FB125109B9701C86B2681C85B253
:102B0000A542DDDB701C072190FBF1F201FB1200F6
:102B1000064908700846007808B90720087003487D
:102B2000007806B0BDE8F081886D00083E00002006
:102B30007047000029B1064AD2690243044BDA61AA
:102B400004E0034AD2698243014BDA617047000016
:102B50000010024029B1064A92690243044B9A616F
:102B600004E0034A92698243014B9A617047000076
:102B70000010024030B500210022002400232D4D1A
:102B80006D6805F00C0121B1042905D0082923D175
:102B900005E0294D056022E0274D05601FE0254D29
:102BA0006D6805F47012234D6D6805F480340225BC
:102BB00005EB92421CB9214D554305600BE01D4DBC
:102BC0006D6805F400351DB11C4D5543056002E0EC
:102BD000194D5543056002E0174D056000BF00BF69
:102BE000144D6D6805F0F0010909154D6B5C056821
:102BF000DD4045600F4D6D6805F4E061090A104D38
:102C00006B5C4568DD4085600A4D6D6805F4605178
:102C1000C90A0B4D6B5C4568DD40C560054D6D68AC
:102C200005F44041890B074D6B5CC568B5FBF3F5B6
:102C3000056130BD0010024000127A0000093D001D
:102C4000220000203200002008B5012141F20400DA
:102C5000FFF780FFE020ADF8000018208DF803009A
:102C600003208DF8020069461248FEF769FAE02158
:102C70001048FEF743FB00200F4908804FF4827094
:102C80004880002088800220C880012008814002FE
:102C90004881382088810020C881072008820748A1
:102CA00000F0E2F80121054800F048F8FF2000F0AC
:102CB00007F808BD0008014000080020003001406E
:102CC00070B50546002405E0601CC4B2C82C01DDC7
:102CD000002070BD02210E4800F0B8F80028F3D0A3
:102CE00029460B4800F0BEF8002405E0601CC4B281
:102CF000C82C01DD0020ECE70121054800F0A6F812
:102D00000028F3D0024800F0AAF8C0B2E1E70000C2
:102D100000300140084909884FF6C7721140064A41
:102D2000118011460988014311801146098841F03C
:102D300040011180704700000030014021B102883D
:102D400042F04002028004E002884FF6BF731A404E
:102D50000280704708B501210820FFF7FBFE042020
:102D6000ADF8000010208DF8030003208DF802005C
:102D700069460848FEF7E4F904210648FEF7BEFA62
:102D8000FFF762FF1020FFF7C5FF00F02FF80249A0
:102D9000088008BD000C0140360000202DE9F041FC
:102DA00006460C46174600200F4908600320FFF72F
:102DB00087FFC4F30740FFF783FFC4F30720FFF743
:102DC0007FFFE0B2FFF77CFF002505E0FF20FFF763
:102DD00077FF7055681C85B2BD42F7DB01200249C0
:102DE0000860BDE8F08100008881214210B5002410
:102DF0000020104908609020FFF762FF0020FFF7D5
:102E00005FFF0020FFF75CFF0020FFF759FFFF2066
:102E1000FFF756FF44EA0024FF20FFF751FF044369
:102E200001200549C1F88801214604A000F036FDC3
:102E3000204610BD88812142008021425732355101
:102E4000585849443D2523580D0A000002460020E9
:102E500013890B400BB1012000E0002070470146B0
:102E6000888970478181704710B50022028802F47A
:102E700041520B884C8823438C882343CC882343BE
:102E80000C8923434C8923438C892343CC892343D6
:102E90001A430280838B4FF2FF74234083830B8A93
:102EA000038210BD704710B500F002F810BD00009D
:102EB0000CB50020019000903348006840F4803049
:102EC0003149086000BF3048006800F400300090CD
:102ED0000198401C0190009818B90198B0F5A06FB6
:102EE000F1D12948006800F4003010B101200090B1
:102EF00001E0002000900098012843D12348006899
:102F000040F01000214908600846006820F00300E6
:102F100008600846006840F0020008601A484068EF
:102F2000194948600846406848600846406840F4CF
:102F3000806048600846406820F47C10486008467D
:102F4000406840F4E81048600846006840F080702F
:102F5000086000BF0C48006800F000700028F9D03D
:102F60000948406820F00300074948600846406867
:102F700040F00200486000BF0348406800F00C00C9
:102F80000828F9D10CBD00000010024000200240CA
:102F90002DE9F05F07460C4615461E46DDE90B9B02
:102FA000DDF828804FF0000A3846FEF79BFB82468A
:102FB0005146062003F0CCFE2046FEF793FB8246E6
:102FC0005146052003F0C4FE2846FEF78BFB8246DF
:102FD0005146042003F0BCFE3046FEF783FB8246D8
:102FE0005146022003F0B4FE4046FEF77BFB8246CA
:102FF0005146012003F0ACFE4846FEF773FB8246C3
:103000005146002003F0A4FEBDE8F09F10B5024831
:10301000FEF752FF10BD00001208002070B50446F4
:103020000D46224617211C20FFF78AFCFFF7EEFF12
:10303000284601F0F3F970BD2DE9FF4F99B0054620
:103040000F461C46A8461595149513972046E2177F
:1030500004EB5272D2102146E31704EB5373DB10DA
:10306000A4EBC3030BB1012300E000231A44624325
:1030700002F0FF0B0C2C06D0102C04D0182C02D020
:103080001DB0BDE8F08F224601A91B98FEF738F964
:10309000269848BB002624E001A810F806904FF0BF
:1030A000000A18E009F0800018B1F9B2E8B2FDF7A3
:1030B00067FE4FEA49604FEA1069681C85B2A5EBCC
:1030C0000800A04203D14546781C87B206E00AF109
:1030D000010000F0FF0ABAF1080FE3DB00BF701C2B
:1030E000C6B25E45D8DB8BE0269801285AD1002075
:1030F00017902AE001A91798085C189000201690F4
:103100001CE0139AD1B2149AD0B2FDF721FB1898A3
:103110004006000E18901498401C80B21490DDE90F
:103120001401401AA04205D1159814901398401C20
:1031300080B213901698401CC0B2169016980828BA
:10314000DFDB1798401CC0B2179017985845D1DBA9
:10315000002624E001A810F806904FF0000A18E0BD
:1031600009F0800018B1F9B2E8B2FDF709FE4FEAA4
:1031700049604FEA1069681C85B2A5EB0800A042BF
:1031800003D14546781C87B206E00AF1010000F041
:10319000FF0ABAF1080FE3DB00BF701CC6B25E4540
:1031A000D8DB2DE0269802282AD1002626E001A8A7
:1031B000805DC04300F0FF094FF0000A18E009F0FD
:1031C000800018B1F9B2E8B2FDF7DAFD4FEA4960C4
:1031D0004FEA1069681C85B2A5EB0800A04203D134
:1031E0004546781C87B206E00AF1010000F0FF0AAC
:1031F000BAF1080FE3DB00BF701CC6B25E45D6DB38
:1032000000BF3DE72DE9FE4F07460E4691469A4620
:10321000DDE90D4B0C9DB8460296002001904CE074
:10322000019870BB2878802802DD0120019044E0DD
:1032300004EBD47108EB0902A2EB6101B94202DA96
:10324000301986B2474602985044001BB04200DA5B
:1032500036E028780D2804D1301986B247466D1C17
:1032600007E0CDF800B02A78234631463846FEF70D
:10327000E3FC6D1C204604EBD07107EB61018FB2BB
:103280001BE0FFE70020019008EB0900001BB8429B
:1032900002DA301986B2474602985044001BB04209
:1032A00000DA0DE023462A4631463846CDF800B014
:1032B000FFF7C2FEAD1C381987B228780028AFD1BD
:1032C00000BFBDE8FE8F000008B501211020FFF708
:1032D00041FC4FF46040ADF8000010208DF8030071
:1032E00003208DF8020069460A48FDF729FF0121F5
:1032F0000820FFF72FFC4FF43070ADF800001020CD
:103300008DF8030003208DF8020069460248FDF79E
:1033100017FF08BD00100140000C014070B50446C5
:103320004FF400411A48FDF7E7FF4FF400511848E9
:10333000FDF7E2FF40211748FDF7DEFF002619E008
:10334000254640211348FDF7D7FF04F08000802870
:1033500004D180210F48FDF7D1FF03E080210D4803
:10336000FDF7CAFF40210B48FDF7C8FF6806040EB1
:10337000701CC6B2082EE3DB4FF400410448FDF791
:10338000BDFF4FF400510248FDF7B8FF70BD0000CB
:1033900000100140000C014070B504464FF400419C
:1033A0001A48FDF7A9FF4FF400511848FDF7A6FF92
:1033B00040211748FDF7A0FF002619E025464021CF
:1033C0001348FDF799FF04F08000802804D1802184
:1033D0000F48FDF793FF03E080210D48FDF78CFFB8
:1033E00040210B48FDF78AFF6806040E701CC6B228
:1033F000082EE3DB4FF400410448FDF77FFF4FF454
:1034000000510248FDF778FF70BD00000010014038
:10341000000C0140042808D14FF0E021096941F077
:1034200004014FF0E022116107E04FF0E02109694B
:1034300021F004014FF0E022116170477047000055
:103440004FF0E020006920F002004FF0E021086119
:103450000A4800680A49B0FBF1F0C0F3C700094907
:1034600008700846007800EB4001C1EBC0104FF631
:10347000FF7101EAC0000449088070470400002081
:1034800040420F00180000201A00002010B5134819
:10349000006840F001001149086008464068104982
:1034A00008400E494860084600680E4908400B492C
:1034B00008600846006820F48020086008464068DC
:1034C00020F4FE0048604FF41F008860FFF7EBFC1B
:1034D0004FF000600449086010BD00000010024079
:1034E0000000FFF8FFFFF6FE08ED00E010B5012137
:1034F0000B4800F05CF890B10121094800F048F851
:1035000008480088401C0749088007480088401C7C
:103510000549088005480088401C0449088010BD02
:103520000004004040000020420000204400002031
:103530007FB505460C4601210220FFF7FBFAADF8E6
:103540000850ADF804400020ADF80A00ADF80600C0
:1035500001A90E4800F048F8012211460B4800F07E
:1035600037F81D208DF8000001208DF801000320A0
:103570008DF8020001208DF803006846FFF722FA5B
:103580000121024800F007F87FBD00000004004060
:10359000CA430282704721B1028842F001020280D0
:1035A00004E002884FF6FE731A400280704730B57F
:1035B0000246002000230024158A05EA01039589AC
:1035C00005EA010413B10CB1012000E0002030BD78
:1035D0001AB183890B43838102E083898B43838102
:1035E0007047818470470000002202881D4B98427A
:1035F0000ED01D4B98420BD0B0F1804F08D01B4B22
:10360000984205D01A4B984202D01A4B984204D1E6
:103610004FF68F731A404B881A43174B984207D0C6
:10362000164B984204D04FF6FF431A40CB881A43FA
:1036300002808B8883850B8803850A4B98420BD0C8
:10364000094B984208D00E4B984205D00D4B98423A
:1036500002D00D4B984201D10B7A0386012383825D
:1036600070470000002C014000340140000400407D
:1036700000080040000C0040001000400014004012
:1036800000400140004401400048014010B540F2B4
:103690002551164800F03EF800B3144800F0F6F843
:1036A000C4B21348008800F40040B8B9104800883C
:1036B000B0F57A7F13DA00210E48FFF792FF0C482D
:1036C000008818B901210B48FFF765FF08480188F9
:1036D0000088401C064A10800748445405E004480E
:1036E000008840F400400249088010BD00380140C5
:1036F00020000020000800401804002021B1828929
:1037000042F40052828104E082894DF6FF731A4030
:103710008281704770B502460024002300250020F6
:1037200040F66A16B14200D100BFC1F3421501F064
:103730001F03012606FA03F3012D02D196893340B7
:1037400006E0022D02D1168A334001E0968A33400A
:103750000C12012606FA04F41688344013B10CB199
:10376000012000E0002070BDF0B5034600240026D3
:103770000025002040F66A17B94200D100BF184664
:10378000C1F3421401F01F06012707FA06F5012CC8
:1037900001D10C3004E0022C01D1103000E01430D3
:1037A0001AB107682F43076002E00768AF4307605C
:1037B000F0BD00002DE9F04786B005460E46002416
:1037C000A24600BFA1460027B08900B100BF2F4626
:1037D0002C8A4CF6FF700440F08804432C82AC899C
:1037E0004EF6F3100440B0883189084371890843CC
:1037F0000443AC81AC8A4FF6FF400440B0890443D7
:10380000AC8201A8FFF7B6F91F48874202D1DDF864
:1038100010A001E0DDF80CA0A88900F4004040B140
:103820000AEBCA0000EB0A1031684900B0FBF1F85E
:1038300007E00AEBCA0000EB0A1031688900B0FB10
:10384000F1F86420B8FBF0F004012009642101FBC9
:103850001089A88900F4004040B1322000EBC90073
:10386000B0FBF1F000F00700044308E0322000EB69
:1038700009106421B0FBF1F000F00F0004432C812B
:1038800006B0BDE8F0870000003801400146888896
:10389000C0F30800704700BFFEE700000FB4054BFF
:1038A00010B503A9044A029800F018F810BC5DF89E
:1038B00014FB0000C15300081C00002002E008C8EF
:1038C000121F08C1002AFAD170477047002001E09A
:1038D00001C1121F002AFBD1704700002DE9FF4FE4
:1038E0008DB09B460F460446002606E025280BD0E7
:1038F0005A460F999047641C761C20780028F5D111
:1039000011B03046BDE8F08F0025A8460122984945
:1039100000E0054314F8013F203B02FA03F008429F
:10392000F7D120782E2817D114F8010F45F004059F
:103930002A280ED06FF02F022078A0F1300109293B
:103940000AD808EB880102EB410100EB0108641C76
:10395000F2E757F8048B641C20786C280DD004DC47
:103960004C2812D06A2811D104E074280DD07A288E
:103970000CD10AE045F4001507E0617845F48015A4
:10398000814202D1641C05F58015641C2278692AE5
:1039900045D008DC002AB3D0582A69D0632A10D059
:1039A000642A08D13BE0702A67D0732A13D0752AA5
:1039B0005CD0782A5CD010465A460F999047761C06
:1039C000D3E017F8040B8DF8000000208DF80100FB
:1039D000E946012003E057F8049B4FF0FF306907E8
:1039E0004FF0000501D40AE06D1C45450DDA854213
:1039F000FADB19F805100029F6D106E06D1C8542A6
:103A0000FCDB19F805100029F8D12E4404E019F860
:103A1000010B5A460F9990476D1EF8D2A5E00A2077
:103A20000021CDE90801C5F3025002280DD001CFD5
:103A3000C117031E71F100030DDA4FF0000CD0EB3B
:103A40000C006CEB01012D2308E0FF1D27F0070798
:103A5000F7E80201EDE72B0504D52B238DF828307C
:103A600001233BE0EB0739D02023F7E70A2000E0F1
:103A700010200021CDE9080107E01020002145F0C9
:103A80000405CDE908014FF00808C5F302500228EB
:103A90000FD001CF00214FF0000A2B071FD5702A4D
:103AA0000DD0DDE908C38CF0100C5CEA030C0CD0DF
:103AB00015E0FF1D27F00707F7E80201EBE74022BA
:103AC0008DF828204FF0010A0BE050EA010306D0E0
:103AD00030238DF828308DF8292002239A46582A61
:103AE00004D024A20DF120090B9209E026A2F9E7E7
:103AF000DDE90823FCF709FC0B9B9B5C09F8013D01
:103B000050EA0102F4D1ADEB0900203008906807BB
:103B100001D44FF001080899884502DDA8EB0100A7
:103B200000E000208046002506E00AA85A46405DD5
:103B30000F9990476D1C761C5545F6DB04E030204C
:103B40005A460F999047761CB8F10001A8F1010878
:103B5000F5DC05E019F8010B5A460F999047761CE1
:103B60000899481E08900029F4DC641CC5E6000092
:103B70000928010030313233343536373839616243
:103B80006364656600000000303132333435363707
:103B90003839414243444546000000003EB5002408
:103BA00001F068FE0920FCF7D3FC44B274E001F098
:103BB00047FE02F0E3FB3A4800783A490978884228
:103BC00000D16AE00020102137A20B46CDE9002188
:103BD0000290602201461020FFF714FB0020102104
:103BE00035A20B46CDE90021029030221821102089
:103BF000FFF708FB01200C2131A20B46CDE9002183
:103C000002900A4618215020FFF7FCFA01201021EB
:103C100002232246CDE9001018216420FEF702F9A4
:103C2000FFF7F4F927480078012816D002281FD0A2
:103C3000032828D004282AD100202249087001F046
:103C400019FEE1B20920FCF7AFFC4FF416711EA07B
:103C5000FFF7E4F9FCF796FD1DE000201949087014
:103C600001F008FE601C44B2012C00DD002412E0CB
:103C700000201449087001F0FDFD601E44B2002CC4
:103C800000DA012407E000200E4908703EBD012043
:103C900000F0C4FB00BF00BF89E700BF00BFF5E72D
:103CA0004700002048000020B1B3B9E2BFAAB9D84C
:103CB000BFD8D6C600000000B5B1C7B0D6B5000069
:103CC000BFAA000046000020C9E8D6C3D2D1B1A3E4
:103CD000B4E600003EB5002401F0CCFD0220FCF764
:103CE00037FC044668E001F0ABFD02F047FB3448C6
:103CF000007834490978884200D15EE00020102124
:103D000031A20B46CDE9002102906022014610202D
:103D1000FFF778FA002010212FA20B46CDE90021F1
:103D20000290302218211020FFF76CFA0120102198
:103D300002232246CDE9001018215020FEF772F828
:103D4000FFF764F926480078012816D002281FD012
:103D5000032828D004282AD100202149087001F026
:103D600089FD21460220FCF71FFC4FF416711DA0AF
:103D7000FFF754F9FCF706FD1DE000201849087014
:103D800001F078FD601CC4B23C2C00DD002412E080
:103D900000201349087001F06DFD601EC4B2FF2CB5
:103DA00000D13C2407E000200D4908703EBD0120F1
:103DB00000F034FB00BF00BF95E700BF00BFF5E790
:103DC0004700002048000020B1B3B9E2CAB1BCE40A
:103DD000B5F7BDDA00000000B5B1C7B0D6B5000038
:103DE00046000020C9E8D6C3D2D1B1A3B4E6000092
:103DF0003EB501F03FFD76E001F022FD02F0BEFA93
:103E00003B4800783B490978884200D16CE00420A7
:103E1000FCF79EFB04460020102137A20B46CDE99B
:103E200000210290602201461820FFF7EBF90020E4
:103E3000102134A20B46CDE9002102903022182136
:103E40001020FFF7DFF90120102102232246CDE9DF
:103E5000001018215020FDF7E5FFFFF7D7F881206B
:103E6000FFF75CFA2046FFF759FA28480078012846
:103E700012D002281FD003282CD004282ED10020D5
:103E80002249087001F0F6FC4FF4167120A0FFF7EC
:103E9000C5F8FCF777FC25E000201C49087001F00C
:103EA000E9FC601CC4B23D2C00D119242146042039
:103EB000FCF77AFB16E000201449087001F0DAFCE8
:103EC000601EC4B2182C00D13C2421460420FCF70B
:103ED0006BFB07E000200D4908703EBD012000F09B
:103EE0009DFA00BF00BF87E700BF00BFF5E70000F5
:103EF0004700002048000020B6D4B1C8B6C8B5F7C6
:103F0000BDDA0000B5B1C7B0D6B50000460000204C
:103F1000C9E8D6C3D7D4B6AFB1A3B4E60000000059
:103F20003EB5002401F0A6FCFCF774FB05462946CB
:103F300067A0FFF7B3FC0020FCF7A8FB0546294665
:103F400067A0FFF7ABFCFCF7C1FB0546294668A05C
:103F5000FFF7A4FCFCF7AAFB0546294668A0FFF77B
:103F60009DFCB1E001F06CFC02F008FA68480078B2
:103F700068490978884200D1A7E00020102166A294
:103F80000B46CDE900210290602201461020FFF788
:103F900039F900200C2162A20B46CDE900210290E4
:103FA00024221021FFF72EF900200C215EA20B46DF
:103FB000CDE90021029030221C21FFF723F90020D7
:103FC0000C215BA20B46CDE9002102903022282172
:103FD000FFF718F900200C2157A20B46CDE900216C
:103FE000029030223421FFF70DF9FCF713FB054650
:103FF00001200C2104232A46CDE90010102128209D
:10400000FDF710FF0020FCF741FB054601200C21C5
:1040100004232A46CDE900101C212820FDF702FFC9
:10402000FCF754FB054601200C2104232A46CDE968
:10403000001028210846FDF7F5FEFCF737FB054682
:1040400001200C2104232A46CDE900103521282027
:10405000FDF7E8FEFEF7DAFF3948007801280DD0B9
:10406000022816D003281FD0042821D1002034496B
:10407000087001F0FFFBFCF785FB24E000203049CD
:10408000087001F0F7FB601EC4B2FF2C00D13C2485
:1040900019E000202A49087001F0ECFB601CC4B252
:1040A0003C2C00DD00240EE00020254908703EBDB8
:1040B000012000F0B3F916480078164909788842C3
:1040C00000D1F4E700BF00BF4CE700BF00BFEEE740
:1040D0004357323031352049443A25640D0A0000F7
:1040E000B5E7C1BFB0D9B7D6D6AE25640D0A00007A
:1040F000B5E7B3D8B5E7D1B93A25640D0A0D0A0082
:10410000CAB9D3C3CAB1BCE43A25640D0A0D0A008A
:10411000470000204800002043573230313500006E
:104120004944A3BA00000000534F433A0000000086
:104130005663653A0000000054696D3A00000000C3
:10414000460000203EB5002420217A48FDF7CCF837
:1041500028B94FF400417848FDF7C6F818B1774800
:10416000007801287ED1FCF70DFB0020102174A2FD
:104170000B46CDE90021029080220821FFF742F88A
:104180000020102172A20B46CDE90021029080226E
:104190002021FFF737F80020102172A20B46CDE94D
:1041A0000021029080223021FFF72CF8FEF72EFF2D
:1041B00000BF20215F48FDF797F80028F9D0ACE058
:1041C0004FF400415C48FDF78FF8002879D1642056
:1041D00000F024F94FF400415748FDF785F8002816
:1041E0006FD100BF4FF400415348FDF77DF8002820
:1041F000F8D0FCF7C7FA002010215EA20B46CDE9EB
:10420000002102907022FEF7FDFFFEF7FFFE142052
:104210005B49087001205B49087004205A49087006
:104220000C205A4908705A4908705A4908705A486F
:1042300000780978564A1278CDE900210290534857
:104240000378514802784F4801784D480078FEF7CE
:104250009FFE09210020FCF7A7F909210120FCF7A6
:10426000A3F900E05BE009210220FCF79DF923217E
:104270000320FCF799F909210420FCF795F90A219C
:104280000520FCF791F9322000F0C8F8FCF77AFA23
:104290000020102141A20B46CDE9002102906022AE
:1042A0002021FEF7AFFFFEF7B1FE4FF47A7000F069
:1042B000B5F80124002021490870FCF763FA2DE0CD
:1042C000FFE720211B48FDF70FF830BB2CBB642013
:1042D00000F0A4F820211748FDF706F8E8B9E4B982
:1042E000FCF750FA0020102130A20B46CDE9002146
:1042F000029060222021FEF785FFFEF787FE4FF433
:10430000FA7000F08BF800BF20210A48FCF7ECFFA0
:104310000028F9D0FCF736FA00E051E700BF04208E
:10432000FCF716F904468120FEF7F8FF2046FEF759
:10433000F5FF3EBD000C01400008014000000020D8
:1043400020B3F5CABCBBAFC9E8D6C3CAFDBEDD0009
:10435000B2CBB5A5BCFC20202020B7B5BBD8BCFC97
:104360000000000020C8B7C8CF202020202020C88F
:10437000A1CFFB00B3F5CABCBBAFD6D02E2E2E000A
:1043800038000020390000203A0000203B000020C7
:104390003C0000203D0000203E000020B3F5CABCD8
:1043A000BBAFD2D1CDEAB3C900000000B3F5CABC9F
:1043B000BBAFD2D1C8A1CFFB00000000014605E091
:1043C000002001E0421CD0B21428FBDD0A1EA1F13E
:1043D000010399B2F4D1704710B56FF00400FFF7F4
:1043E00019F80A4800680A49B0FBF1F00949087059
:1043F0000846007800EB4001C1EBC0104FF6FF719A
:1044000001EAC0000449088010BD0000040000203B
:1044100000127A00180000201A0000200146114AFC
:1044200012884A434FF0E0235A6100229A611A46EB
:10443000126942F001021A6100BF4FF0E0221069D8
:1044400000F001021AB100F48032002AF5D04FF0DA
:10445000E022126922F001024FF0E0231A610022EB
:104460009A6170471A0000200146114A12784A43A7
:104470004FF0E0235A6100229A611A46126942F015
:1044800001021A6100BF4FF0E022106900F0010242
:104490001AB100F48032002AF5D04FF0E022126900
:1044A00022F001024FF0E0231A6100229A61704766
:1044B000180000200EB500200C2117A20B46CDE9F4
:1044C000002102900A461C217020FEF79BFE00206E
:1044D0000C2112A20B46CDE9002102900A462821A8
:1044E0007020FEF78FFE01200C210223CDE9001081
:1044F0000B4802781C216420FDF794FC01200C215C
:104500000223CDE900100748027828216420FDF736
:1045100089FCFEF77BFD0EBDA1E600002500000032
:104520004A0000204B0000203EB5002401F0A2F913
:104530000820FCF70DF80446B9E001F081F901F01C
:104540001DFF5D4800785D490978884200D1AFE0E1
:10455000002010215AA20B46CDE9002102906022D2
:1045600001461020FEF74EFE64B901200C2158A22E
:104570000B46CDE900210290482218211020FEF7B9
:1045800041FE58E0012C0CD101200C2154A20B4615
:10459000CDE900210290482218211020FEF732FEBA
:1045A00049E0022C0CD101200C2151A20B46CDE98F
:1045B00000210290482218211020FEF723FE3AE045
:1045C000032C0CD101200C214DA20B46CDE900217A
:1045D0000290482218211020FEF714FE2BE0042C34
:1045E0000CD101200C214AA20B46CDE900210290FA
:1045F000482218211020FEF705FE1CE0052C0CD1E6
:1046000001200C2146A20B46CDE900210290482250
:1046100018211020FEF7F6FD0DE0062C0BD101202D
:104620000C2143A20B46CDE900210290482218211B
:104630001020FEF7E7FDFEF7E9FC4148007801286D
:1046400016D002281FD0032828D004282AD1002001
:104650003B49087001F00EF921460820FBF7A4FF42
:104660004FF4167137A0FEF7D9FCFCF78BF81DE06C
:1046700000203349087001F0FDF8601EC4B2FF2C21
:1046800000D1062412E000202D49087001F0F2F854
:10469000601CC4B2062C00DD002407E0002028497D
:1046A00008703EBD0120FFF7B9FE00BF00BF44E720
:1046B00000BF00BFF5E700004700002048000020D1
:1046C000BFAAC6F4CAB1BCE4B5F7BDDA0000000069
:1046D000BFAAB9D8D2BBD6B1BFAAC6F400000000A9
:1046E000C3BF3630B7D6D6D3B1E4BBBB00000000A1
:1046F000C3BF3330B7D6D6D3B1E4BBBB0000000094
:10470000C3BF3130B7D6D6D3B1E4BBBB0000000085
:10471000C3BF3032B7D6D6D3B1E4BBBB0000000074
:10472000C3BF3031B7D6D6D3B1E4BBBB0000000065
:10473000C3BFC8D5362D3138BFAAC6F4000000006B
:1047400046000020C9E8D6C3D2D1B1A3B4E6000028
:104750001CB5134800880A2190FBF1F201FB1200FE
:10476000052809DD0B200F4901232022CDE9001087
:1047700018211046FDF7B5FB094800880A2190FB77
:10478000F1F201FB1200052809DA0A20054901238C
:104790002022CDE9001018211046FDF7A2FB1CBD18
:1047A0004000002020BC00080EB501F0C9FEFFF754
:1047B000CFFFF6480378F6480278F64801780020E3
:1047C000FCF70AF8F44800780A2190FBF1F0C0B237
:1047D000F249029001232022CDE90010152100208A
:1047E000FDF77FFBEC4800780A2190FBF1F201FB1A
:1047F0001200C0B2E949029001232022CDE9001045
:1048000015211020FDF76DFBE54800780A2190FB8B
:10481000F1F0C0B2E149029001232022CDE900105D
:1048200015213020FDF75DFBDD4800780A2190FB63
:10483000F1F201FB1200C0B2D849029001232022FC
:10484000CDE9001015214020FDF74BFBD54800882D
:10485000C82190FBF1F201FB1200422834DA032058
:1048600016235022082100900020FCF7A3FA012013
:104870001021CDA20B46CDE9002102904022082153
:104880000020FEF7BFFC012010210223CDE900101B
:10489000C048027808211020FDF7C4FA0120102139
:1048A0000223CDE90010BA48027808212820FDF73C
:1048B000B9FA012010210223CDE90010B348027893
:1048C00008214020FDF7AEFAB6480088C82190FBC9
:1048D000F1F201FB120042282BDDB248008890FB68
:1048E000F1F201FB1200842823DA03201623502260
:1048F000082100900020FCF75DFA01200C21ADA2F8
:104900000B46CDE90021029018220A210020FEF773
:1049100079FCAA48007807280CD101200C21A8A214
:104920000B46CDE9002102902A220A211820FEF729
:1049300069FC63E0A148007806280CD101200C2115
:10494000A1A20B46CDE9002102902A220A211820BB
:10495000FEF758FC52E09948007805280CD1012058
:104960000C219BA20B46CDE9002102902A220A21AC
:104970001820FEF747FC41E09048007804280CD14D
:1049800001200C2194A20B46CDE9002102902A229D
:104990000A211820FEF736FC30E08848007803280A
:1049A0000CD101200C218EA20B46CDE900210290F2
:1049B0002A220A211820FEF725FC1FE07F480078F4
:1049C00002280CD101200C2187A20B46CDE9002141
:1049D00002902A220A211820FEF714FC0EE07748E4
:1049E000007801280AD10C2181A20B46CDE90021D3
:1049F00002902A220A211820FEF704FC6948008848
:104A0000C82190FBF1F201FB1200842878DD03201D
:104A100016235022082100900020FCF7CBF901203A
:104A20000C2175A20B46CDE9002102903C220A21FF
:104A30000020FEF7E7FB7348007801280BD10C211A
:104A400071A20B46CDE90021029018220A210C2008
:104A5000FEF7D8FB21E16B48007802280CD1012039
:104A60000C216BA20B46CDE90021029018220A21ED
:104A70000C20FEF7C7FB10E16248007803280CD138
:104A800001200C2164A20B46CDE9002102901822DE
:104A90000A210C20FEF7B6FBFFE05A4800780428F4
:104AA0000CD101200C215EA20B46CDE90021029021
:104AB00018220A210C20FEF7A5FBEEE051480078F1
:104AC00005280CD101200C2157A20B46CDE900216D
:104AD000029018220A210C20FEF794FBDDE04948E1
:104AE000007806280DD101200C2151A20B46CDE9FA
:104AF0000021029018220A210C20FEF783FBCCE053
:104B00000CE24048007807280CD101200C214AA271
:104B10000B46CDE90021029018220A210C20FEF755
:104B200071FBBAE03748007808280CD101200C212D
:104B300043A20B46CDE90021029018220A210C2045
:104B4000FEF760FBA9E02F48007809280CD101206E
:104B50000C213DA20B46CDE90021029018220A212A
:104B60000C20FEF74FFB98E0264800780A2873D106
:104B700001200C2136A20B46CDE90021029018221B
:104B80000A210C20FEF73EFB87E065E03A0000209A
:104B900039000020380000203B00002020BC000825
:104BA0003C00002040000020323020202D20202D0D
:104BB00000000000D0C7C6DA000000003E00002060
:104BC000C8D520D0DDCFA200C1F920D0DDCFA20012
:104BD000CEE520C9CFB0E000CBC420C9CFB0E00003
:104BE000C8FD20C9CFB0E000B6FE20C9CFB0E000BC
:104BF000D2BB20C9CFB0E000C5A920202020D4C25C
:104C0000000000000A0400202020D2BB00000000A9
:104C10002020B6FE000000002020C8FD000000009B
:104C20002020CBC4000000002020CEE500000000C2
:104C30002020C1F9000000002020C6DF0000000095
:104C40002020B0CB000000002020BEC500000000E6
:104C50002020CAAE00000000FE4800780B280CD1CE
:104C600001200C21FCA20B46CDE900210290182264
:104C70000A210C20FEF7C6FA0FE0F64800780C284F
:104C80000BD101200C21F6A20B46CDE900210290A8
:104C900018220A210C20FEF7B5FAF3480078012803
:104CA0000BD10C21F1A20B46CDE900210290182274
:104CB0000A213020FEF7A6FA61E2EB4800780228CC
:104CC0000CD101200C21EBA20B46CDE90021029072
:104CD00018220A213020FEF795FA50E2E2480078C7
:104CE00003280CD101200C21E4A20B46CDE90021C0
:104CF000029018220A213020FEF784FA3FE2DA48B7
:104D0000007804280CD101200C21DEA20B46CDE94D
:104D10000021029018220A213020FEF773FA2EE2B9
:104D2000D148007805280CD101200C21D7A20B46D0
:104D3000CDE90021029018220A213020FEF762FA04
:104D40001DE2C948007806280CD101200C21D1A20F
:104D50000B46CDE90021029018220A213020FEF7EF
:104D600051FA0CE2C048007807280CD101200C2130
:104D7000CAA20B46CDE90021029018220A21302058
:104D8000FEF740FAFBE1B848007808280CD1012072
:104D90000C21C4A20B46CDE90021029018220A2161
:104DA0003020FEF72FFAEAE1AF48007809280CD14D
:104DB00001200C21BDA20B46CDE900210290182252
:104DC0000A213020FEF71EFAD9E1A74800780A2808
:104DD0000CD101200C21B7A20B46CDE90021029095
:104DE00018220A213020FEF70DFAC8E19E4800780B
:104DF0000B280CD101200C2197A20B46CDE90021F4
:104E0000029018220A213020FEF7FCF9B7E19648FB
:104E100000780C280CD101200C2191A20B46CDE981
:104E20000021029018220A213020FEF7EBF9A6E1BA
:104E30008D4800780D280CD101200C219FA20B4633
:104E4000CDE90021029018220A213020FEF7DAF97C
:104E500095E1854800780E280CD101200C2199A2FB
:104E60000B46CDE90021029018220A213020FEF7DE
:104E7000C9F984E17C4800780F280CD101200C216D
:104E800092A20B46CDE90021029018220A2130207F
:104E9000FEF7B8F973E17448007810280CD10120AE
:104EA0000C218CA20B46CDE90021029018220A2188
:104EB0003020FEF7A7F962E16B48007811280CD189
:104EC00001200C2185A20B46CDE900210290182279
:104ED0000A213020FEF796F951E163480078122844
:104EE0000CD101200C217FA20B46CDE900210290BC
:104EF00018220A213020FEF785F940E15A4800784F
:104F000013280CD101200C2178A20B46CDE90021F9
:104F1000029018220A213020FEF774F92FE152483E
:104F2000007814280CD101200C2172A20B46CDE987
:104F30000021029018220A213020FEF763F91EE1B9
:104F40004948007815280CD101200C216BA20B4692
:104F5000CDE90021029018220A213020FEF752F9F3
:104F60000DE14148007816280CD101200C2165A2E2
:104F70000B46CDE90021029018220A213020FEF7CD
:104F800041F9FCE03848007817280CD101200C21A9
:104F90005EA20B46CDE90021029018220A213020A2
:104FA000FEF730F9EBE03048007818280CD10120EA
:104FB0000C2158A20B46CDE90021029018220A21AB
:104FC0003020FEF71FF9DAE02748007819280CD1C5
:104FD00001200C2151A20B46CDE90021029018229C
:104FE0000A213020FEF70EF9C9E01F4800781A2880
:104FF0000CD101200C214BA20B46CDE900210290DF
:1050000018220A213020FEF7FDF8B8E01648007893
:105010001B280CD101200C2144A20B46CDE9002114
:10502000029018220A213020FEF7ECF8A7E00E4883
:1050300000781C280CD101200C213EA20B46CDE9A2
:105040000021029018220A213020FEF7DBF896E0BA
:1050500074E000000A040020CAAED2BB00000000C9
:10506000CAAEB6FE000000000B040020B3F5D2BBB0
:1050700000000000B3F5B6FE00000000B3F5C8FD67
:1050800000000000B3F5CBC400000000B3F5CEE58E
:1050900000000000B3F5C1F900000000B3F5C6DF61
:1050A00000000000B3F5B0CB00000000B3F5BEC5B2
:1050B00000000000B3F5CAAE00000000CAAEC8FD93
:1050C00000000000CAAECBC400000000CAAECEE5AE
:1050D00000000000CAAEC1F900000000CAAEC6DF81
:1050E00000000000CAAEB0CB00000000CAAEBEC5D2
:1050F00000000000B6FECAAE00000000D8A5D2BB7A
:1051000000000000D8A5B6FE00000000D8A5C8FD2C
:1051100000000000D8A5CBC400000000D8A5CEE553
:1051200000000000D8A5C1F900000000D8A5C6DF26
:1051300000000000D8A5B0CB000000001B4800789C
:105140001D280CD101200C2119A20B46CDE900210C
:10515000029018220A213020FEF754F80FE013487D
:1051600000781E280BD101200C2113A20B46CDE99B
:105170000021029018220A213020FEF743F8002077
:10518000FBF784FA072190FBF1F0C0B20C490290C2
:1051900001230E22CDE9001000210846FCF7A1FEF4
:1051A000FFF788F9FDF732FF0EBD00000B04002069
:1051B000D8A5BEC500000000C8FDCAAE00000000B2
:1051C00070B100083EB54AA0FEF768FB0020FBF76F
:1051D000BFF9044621464BA0FEF760FB0120FBF718
:1051E000B7F9044621464AA0FEF758FB0220FBF718
:1051F000AFF90446214649A0FEF750FB0320FBF718
:10520000A7F90446214648A0FEF748FB0420FBF717
:105210009FF90446214647A0FEF740FB0520FBF717
:1052200097F90446214646A0FEF738FB0020FBF71D
:105230008FF90F280EDC0120FBF78AF90F2809DC13
:105240000220FBF785F90F2804DC0320FBF780F927
:105250000F284CDD002010213CA20B46CDE9002197
:10526000029070220146FDF7CDFF002010213BA2E5
:105270000B46CDE9002102908022FDF7C3FF0020FC
:1052800010213BA20B46CDE9002102908022202173
:10529000FDF7B8FF002010213AA20B46CDE900210E
:1052A000029050223021FDF7ADFFFDF7AFFE1CE06C
:1052B0004FF400413648FCF717F8B0B96420FFF707
:1052C000ADF84FF400413248FCF70EF868B9012000
:1052D0003049087000BF4FF400412D48FCF704F836
:1052E0000028F8D0FEF72EFF00E0E1E700BF3EBD4A
:1052F000B6C1C8A13234433032B2BFB7D6CAFDBE40
:10530000DD0D0A0062797465303D2564200D0A00C8
:1053100062797465313D2564200D0A0062797465F7
:10532000323D2564200D0A0062797465333D2564A1
:10533000200D0A0062797465343D2564200D0A0051
:1053400062797465353D2564200D0A00C9E8D6C32D
:10535000CAFDBEDDD3D0B4EDCEF30000CFB5CDB3E2
:10536000B2BBC4DCD5FDB3A3C6F4B6AF00000000E9
:10537000B0B4A1B0B2CBB5A5BCFCA1B1C6F4B6AF78
:1053800000000000B3F5CABCBBAFB3CCD0F2000044
:10539000000801400000002010B5FDF7DBFC2122D1
:1053A00005490648FDF7FAFC04480078AA2801D010
:1053B000012010BD0020FCE700604E00120C002010
:1053C00000BF054A128802F04002002AF9D0C2B29A
:1053D000014B1B1D1A8070470038014010B5034671
:1053E0000A460E2B70D2DFE803F086071019222B35
:1053F000353F49535D67727C4048805C00F008018E
:1054000009B9002010BD0120FCE73C48805C00F099
:10541000040109B90020F5E70120F3E73748805C73
:1054200000F0020109B90020ECE70120EAE7334867
:10543000805C00F0010109B90020E3E70120E1E709
:105440002E4C501C205C00F0800109B90020D9E7E7
:105450000120D7E7294C501C205C00F0400109B91D
:105460000020CFE70120CDE7244C501C205C00F049
:10547000200109B90020C5E70120C3E71F4C501CDB
:10548000205C00F0100109B90020BBE70120B9E75A
:105490001A4C501C205C00F0080109B90020B1E74B
:1054A0000120AFE7154C501C205C00F0040109B945
:1054B0000020A7E70120A5E7104C501C205C00F05D
:1054C000020111B900209DE715E001209AE70B4C7D
:1054D000501C205C00F0010109B9002092E7012076
:1054E00090E7064C901C205C00F0800109B9002078
:1054F00088E7012086E7002084E7000060D70008E5
:1055000010B50E480088142190FBF1F201FB120047
:10551000012811D10A490B48FBF75BFB0A480068D8
:1055200008B9012000E00020074908600920FBF7C6
:105530000FF80649C1F8A40110BD0000400000208A
:105540004B0000204A000020B88121420080214207
:10555000FEB5002400F08EF98A20FCF749FA0746D0
:1055600039466FA0FEF79AF98A20FCF729FA074618
:1055700039466EA0FEF792F9CDE000F061F900F037
:10558000FDFE6D4800786D490978884200D1C3E07E
:10559000002010216AA20B46CDE900210290602272
:1055A00001461020FDF72EFE01200C2166A20B46BD
:1055B000CDE900210290302218211020FDF722FEB3
:1055C00001200C2163A20B46CDE900210290182294
:1055D0001C217020FDF716FE8A20FCF709FA074609
:1055E00001200C2104233A46CDE900101C21502053
:1055F000FCF718FC01200C2157A20B46CDE9002135
:105600000290182228217020FDF7FCFD8A20FCF76B
:10561000D7F9B0F5004F21DA8A20FCF7D1F9074617
:1056200000EBD77040100A2190FBF1F085B2012009
:105630000C2104232A46CDE9001028215020FCF734
:10564000F1FB01200C2145A20B46CDE9002102907F
:10565000302226211020FDF7D5FD22E08A20FCF71C
:10566000AFF9C0F58030471F07EBD77040100A2113
:1056700090FBF1F086B201200C2104233246CDE9E3
:10568000001028215020FCF7CDFB01200C2136A270
:105690000B46CDE900210290302226211020FDF793
:1056A000B1FDFDF7B3FC3348007801280DD0022886
:1056B00016D003281FD0042821D100202D490870BE
:1056C00000F0D8F8FBF75EF824E0002029490870C4
:1056D00000F0D0F8601E84B2FF2C00D13C2419E009
:1056E00000202449087000F0C5F8601C84B23C2CEE
:1056F00000DD00240EE000201E490870FEBD0120E0
:10570000FEF78CFE0C4800780C490978884200D1DD
:10571000F4E700BF00BF30E700BF00BFEEE70000C6
:10572000B5E7D1B93D25640D0A000000B5E7C1F722
:105730003D25640D0A0000004700002048000020BD
:10574000494E413232360000B5E7B3D8B5E7D1B99A
:10575000000000006D5600006D410000B7C5B5E7C0
:10576000B5E7C1F700000000B3E4B5E7B5E7C1F75E
:10577000000000004600002070B505460C464FF4BE
:1057800000410A48FBF7B8FD601C84B205F1B00186
:10579000C8B2FDF7C3FDC4F303101030FDF7BEFD22
:1057A00004F00F00FDF7BAFD70BD000000100140CD
:1057B0004FF4A060FDF73EF9FDF742FEFEF70CFE48
:1057C0004FF4165001F074FA14A0FEF767F817A012
:1057D000FEF764F841F61F414FF47A70FDF7A8FE1A
:1057E000FFF7DAFDFAF792FEFCF7D0F9FCF772F951
:1057F000FCF7F2FFFCF711F9FAF714FFFBF794F945
:10580000FBF7A4FBFEF79EFCFFF7DCFC01200B4935
:10581000086001E0FCF7FEFFFCE70000CFB5CDB368
:10582000C6F4B6AFD6D02E2E2E0D0A002E2E2E2E5A
:105830002E2E2E2E2E2E2E2E2E0D0A00A48121422B
:1058400010B5002000F064FE04462046E21704EB89
:1058500012721211A4EB02122146E31704EB137328
:105860001B1103EB830302EB4302014B1A7010BDC3
:105870004800002070B50520FAF76AFE05460020B2
:1058800000F046FE04462046E21704EB12721211A5
:10589000A4EB02122146E31704EB13731B1103EB75
:1058A000830302EB43022A44074B1A701846007820
:1058B0003C2808DB184600783C2190FBF1F201FB04
:1058C00012001946087070BD4700002010B5FEF7A1
:1058D0006BFF10BD2DE9FE430024002500260027A4
:1058E000A046A146FAF74EFF3B480078012801D1B7
:1058F00002241EE038480078022801D1022518E071
:1059000035480078032801D1022612E03248007899
:10591000042801D102270CE02F480078052802D185
:105920004FF0020805E02C480078062801D14FF01E
:1059300002090020102129A20B46CDE90021029086
:10594000402201462020FDF75DFC102026A10346E1
:105950004022CDE90104009101460020FDF752FCF0
:10596000102023A103464022CDE901050091014604
:105970005020FDF747FC10201FA103464022CDE92F
:105980000106009120210020FDF73CFC10201CA105
:1059900003464022CDE90107009120215020FDF768
:1059A00031FC102018A103464022CDE901080091E6
:1059B00030210020FDF726FC102015A103464022CF
:1059C000CDE90109009130215020FDF71BFCFDF7C6
:1059D0001DFBBDE8FE8300004C000020B9A6C4DC1E
:1059E000B2CBB5A500000000312EB5F7CAB100005A
:1059F000322EB5F7B2CE0000332EBFD8D6C6000087
:105A0000342EC6E4CBFC0000352EB9A4BEDF000066
:105A1000362ECFB5CDB30000FEB5002600240025FC
:105A2000FAF7B0FE20480078072801D102260AE0E4
:105A30001D480078082801D1022404E01A480078A3
:105A4000092800D102250020102118A20B46CDE91B
:105A500000210290402201462020FDF7D3FB1020B8
:105A600015A103466022CDE9010600910146002000
:105A7000FDF7C8FB102013A103466022CDE9010405
:105A8000009120210020FDF7BDFB102010A103464E
:105A90006022CDE90105009130210020FDF7B2FB25
:105AA000FDF7B4FAFEBD00004C000020CAB1BCE412
:105AB000C9E8D6C300000000312ECAD6B6AFB5F78C
:105AC000BDDA0000322ED7D4B6AFB8FCD0C2000089
:105AD000332ED4B6B3CCB8FCD0C2000010B500F061
