:020000040800F2
:100000003810002045010008232500088B13000844
:10001000C123000803060008313200080000000078
:10002000000000000000000000000000732900082C
:10003000310B0008000000003D260008652E000876
:100040005F0100085F0100085F0100085F01000810
:100050005F0100085F0100085F0100085F01000800
:100060005F010008510D0008750D00085F010008D0
:100070005F0100085F0100085F0100085F010008E0
:100080005F0100085F0100085F0100085F010008D0
:100090005F0100085F0100085F010008990D00087A
:1000A0005F0100085F0100085F0100085F010008B0
:1000B0005F010008F52E00085F0100085F010008DD
:1000C0005F0100085F0100085F0100085F01000890
:1000D0005F010008793000085F0100085F01000837
:1000E000290D00085F0100085F0100085F0100089A
:1000F0005F0100085F0100085F0100085F01000860
:100100005F0100085F0100085F0100085F0100084F
:100110005F0100085F0100085F0100085F0100083F
:100120005F0100085F0100085F0100085F0100082F
:10013000DFF80CD000F0A4F900480047C54A0008D9
:10014000381000200648804706480047FEE7FEE7D3
:10015000FEE7FEE7FEE7FEE7FEE7FEE7FEE7FEE777
:10016000A52E000831010008002800DA404270473F
:1001700040EA01039B0703D009E008C9121F08C029
:10018000042AFAD203E011F8013B00F8013B521EA9
:10019000F9D270472DE9FE4F81EA030404F00044D0
:1001A00021F0004100944FF0000B23F0004350EA8F
:1001B00001045ED052EA03045BD0C3F30A54C1F3D6
:1001C0000A552C44A4F2F3340194A0FB0254C1F369
:1001D000130141F48011C3F3130343F4801301FBB3
:1001E000024400FB034E840A970A44EA815447EA1A
:1001F0008357A4FB076802958D0A05FB07854FEA24
:10020000932C04FB0C542705029D4FEA065847EA3D
:100210001637B5EB08056EEB070C870E920E47EA12
:10022000811742EA8312A7FB0201B6EB0B0164EBD4
:1002300000042B0D43EA0C335E1844EB1C50DA46E5
:100240005146E7FB0201C5F313044FEA0B3343EABF
:1002500014534FEA0432019C43EA0603A4F10C0450
:100260000294009CCDE900B400F0BBF803B0BDE8F7
:10027000F08F00200146F9E70EB5C10F80EAE0706B
:100280000844CA07002140F233438DE80E000A46B5
:100290000B4600F0A6F803B000BD0EB540F23341A6
:1002A00002910021CDE900110A460B4600F099F8B1
:1002B00003B000BD70B5C1F30A5201F0004500243F
:1002C000C1F3130140F2FF3341F480119A4201DA85
:1002D000002070BD40F233439A42A2F2334203DC65
:1002E000524200F05FF800E090402C43F1D04042D1
:1002F00070BDC1F30A5210B5C1F3130140F2FF33D0
:1003000041F480119A4201DA002010BD40F23343DB
:100310009A42A2F2334203DC524200F043F810BD8D
:10032000904010BD2DE9F05F0546002092469B46A7
:1003300088460646814640241BE0284641464746FB
:10034000224600F02FF853465A46C01A914110D366
:1003500011461846224600F016F82D1A67EB0108E0
:100360004F4622460120002100F00DF817EB00094E
:100370004E41201EA4F10104DFDC484631462A46E6
:100380004346BDE8F09F202A04DB203A00FA02F140
:10039000002070479140C2F1200320FA03F3194373
:1003A00090407047202A04DB203A21FA02F0002115
:1003B000704721FA02F3D040C2F120029140084375
:1003C0001946704710B5141E73F1000408DA401C7A
:1003D00041F1000192185B411A4301D120F0010064
:1003E00010BD2DE9F04D92469B4611B1B1FA81F254
:1003F00002E0B0FA80F220329046FFF7C4FF0446D4
:100400000F4640EA0A0041EA0B0153465A460843A8
:1004100013D0114653EA010019D0C8F140025046EA
:10042000FFF7C0FF05460E46504659464246FFF7C5
:10043000AAFF084305D0012004E020463946BDE864
:10044000F08D0020054346EAE0762C4337430A98B6
:100450006305E40AA0EB08000022FD0A44EA4754C1
:100460000A3002D500200146E9E70105101969416B
:10047000DDE9084500196941BDE8F04DA2E700003B
:10048000064C074D06E0E06840F0010394E80700E1
:1004900098471034AC42F6D3FFF74EFEEC7B0008D1
:1004A0000C7C000870B58C1810F8015B15F0070380
:1004B00001D110F8013B2A1106D110F8012B03E0FD
:1004C00010F8016B01F8016B5B1EF9D12B0705D405
:1004D0000023521E0DD401F8013BFAE710F8013B4E
:1004E000CB1A921C03E013F8015B01F8015B521E6A
:1004F000F9D5A142D8D3002070BD10B5FF2000F07F
:1005000035F837280AD03721FF2000F050F8FF20B7
:1005100000F02CF8372803D0012010BD002010BDBA
:10052000002010BD10B500F04DFFFFF7E6FF20B131
:10053000BDE8104003A002F07DBEBDE8104006A05B
:1005400002F078BE3234433032B3F5CABCBBAFCA16
:10055000A7B0DC0D0A0000003234433032B3F5CAD4
:10056000BCBBAFB3C9B9A60D0A00000010B5044664
:1005700000F0CAFF200AA02101EB4000C0B200F049
:100580008FFF00F0FBFFE0B200F08AFF00F0F6FF03
:1005900000F0BAFFA12000F083FF00F0EFFF002081
:1005A00000F048FF044600F0CBFF204610BD70B5B8
:1005B00004460D4600F0A8FF200AA02101EB4000F0
:1005C000C0B200F06DFF00F0D9FFE0B200F068FFAC
:1005D00000F0D4FF284600F063FF00F0CFFF00F0EA
:1005E000AFFFBDE870400A2003F026BB00F00F010A
:1005F000000900F00F0000EB800040000844C0B28A
:100600007047FEE7002000F017B810B500F0DAFEE2
:10061000322003F011FB00210A2000F05FF83220A5
:1006200003F00AFB5021082000F058F80021BDE833
:1006300010400A2000F052B810B5044600F064FFE4
:10064000C42000F02DFF00F099FF204600F028FFA5
:1006500000F094FF00F058FFC52000F021FF00F0EB
:100660008DFF002000F0E6FE044600F069FF204602
:1006700010BD10B504460020002C02D10420FFF765
:10068000DBFF012C04D1BDE810400520FFF7D4BFEB
:1006900010BD10B50620FFF7CFFF04460720FFF777
:1006A000CBFF00EB042080B210BD000010B502208B
:1006B000FFF7C2FF04460320FFF7BEFF00EB042054
:1006C000FFF7EBFD034A044BFFF764FDFFF711FE54
:1006D00080B210BD85EB51B81E85D33F70B505467D
:1006E0000C4600F011FFC42000F0DAFE00F046FFD7
:1006F00018B100F025FF012070BD284600F0D0FEA3
:1007000000F03CFF204600F0CBFE00F037FF18B1B0
:1007100000F016FF012070BD00F012FF002070BD38
:1007200010B580280CD240290AD2CA0800EBC210AA
:10073000044A01F007040121135CA1408B431354C8
:1007400010BD0000160800200020054A00214FF4CB
:1007500080631154401C80B29842FAD37047000065
:100760001608002070B5002505F1B000C0B202F0F7
:10077000EFFA102002F0ECFA012002F0E9FA00246E
:10078000002002F023FB641CE4B2802CF8D36D1C23
:10079000EDB2082DE8D370BD2DE9F04F82460D462D
:1007A0006C1EBAF1000F1ED004EB44001FFA80F952
:1007B000DFF8D08108EB0900817801F06000C60005
:1007C00046EA5010C6B201F01F00012E10D01E30B4
:1007D000C1B25B1E0A2A0ED26B48104410F8010CFD
:1007E000184480B20FE005F1630000EB4009DFE739
:1007F000401EC1B2EDE7634EA2F10A00B61F36F803
:100800001000184480B2022A03D9AA0701D1401C63
:1008100080B2884233D3401A86B20124A3464946A7
:10082000584603F0A1FF002750B11E2018F8091008
:1008300001F0F0010A0142EA111101F0FF0817E08E
:100840001D20F3E7301A86B20BF1010B0BF0FF0B02
:10085000444505D1F843C7B227B9641CE4B201E0AE
:10086000641CE4B24946584603F07EFF28B11E20BE
:100870008642E7D2761CF0B241E01D20F8E7081A64
:10088000C6B2DDB1E5B2A9F103091FFA89FB0C2458
:1008900018F80B0000F0F000010141EA101000F020
:1008A000FF09B9F1000F0DD04FF00D080027594690
:1008B000404603F059FF40B11E201BE063254FF076
:1008C000010AE0E74FF00C08F0E71D2012E0301AB3
:1008D000C6B2A8F1010808F0FF080FB9641EE4B21F
:1008E0004C4501D1F843C7B25946404603F03CFF9E
:1008F000F0B31E208642EAD8801B401CC0B2234BB6
:1009000083F800A00A21B5FBF1F2160946EA0212AB
:10091000D2B2B5FBF1F601FB16552A4302F00F05E2
:10092000120902EB820205EB42025A70B4FBF1F2AB
:10093000150945EA0212D2B2B4FBF1F501FB1544E8
:10094000224302F00F04120902EB820204EB42027E
:100950009A70B0FBF1F2140944EA0212D2B2B0FB71
:10096000F1F401FB1400024302F00F01100900E052
:1009700006E000EB800001EB4000D870BDE8F08F8E
:100980001D20B7E78E790008E37B00080C040020E7
:1009900070B500241548016821F4700101600168F8
:1009A00041F400010160124D04E0641CE4B2012036
:1009B00003F05CF9D5F8340108B1642CF5D3642C4C
:1009C00001D3012070BD002404E0641CE4B20120C6
:1009D00003F04CF9D5F8340108B9642CF5D3642C34
:1009E00002D304A002F026FC002070BD040C0140DC
:1009F000008021424448543131CAA7B0DC0D0A00BE
:100A000038B50121082001F029FE4FF40054ADF85B
:100A1000004010208DF8030003208DF80200074DE0
:100A20006946284600F096FA2146284600F01DFB4C
:100A300000F062F8FFF7ACFF38BD0000000C014089
:100A400070B50024104D04E0641CE4B2012003F0F2
:100A50000DF9D5F8340108B1642CF5D3002404E075
:100A6000641CE4B2012003F001F9D5F8340108B99F
:100A7000642CF5D31E2003F0F9F8D5F8340108B141
:100A8000012070BD002070BD0080214270B50020A3
:100A900000244006050EFFF7D3FF2843641CE4B290
:100AA000082CF6D370BD2DE9FC4106460F4600F038
:100AB00023F8FFF76DFF10B10120BDE8FC81002491
:100AC0006D46FFF7E3FF2855641CE4B2052CF8D30C
:100AD0009DF800109DF801009DF803300A189DF85C
:100AE000020003441A449DF804309A4201D139703F
:100AF00030700020E1E7000010B50B48016821F4D8
:100B000070010160016841F440110160074C002050
:100B10002060192003F090F801202060BDE810400B
:100B20001E2003F0A3B80000040C0140B481214250
:100B300070472DE9FF5F05469246AAEB0500039A30
:100B4000A2EB010B002801DD012200E000224FF0A2
:100B5000FF3303EB4208BBF1000F01DD012200E08F
:100B6000002203EB42090E460024FFF785FBFFF746
:100B7000FBFAFFF79FFB07465846FFF77DFBFFF7A1
:100B8000F3FAFFF797FB83460E9828B35F4510DD15
:100B9000C2440AE0F1B2E8B200F044F85C44B7EBBA
:100BA000440F01DC4E44E41B4544AA45F2D1BDE8A4
:100BB000FF9F039800EB090A0BE0F1B2E8B200F0E6
:100BC00031F83C44BBEB440F02DC4544A4EB0B047E
:100BD0004E44B245F1D1EAE75F450FDDC2440AE079
:100BE000F1B2E8B2FFF79CFD5C44B7EB440F01DCC7
:100BF0004E44E41B4544AA45F2D1D8E7039800EBE4
:100C0000090A0BE0F1B2E8B2FFF78AFD3C44BBEB06
:100C1000440F02DC4544A4EB0B044E44B245F1D131
:100C2000C5E7000010B580280CD240290AD2CA08B6
:100C300000EBC210044A01F007040121135CA1403B
:100C40000B43135410BD0000160800202DE9F84393
:100C5000074608980C4615469946002809D06E1C90
:100C600009F1010801282FD0022830D003281DD116
:100C700057E0012623462A46214638460096FFF7CC
:100C800058FF4B462A46494638460096FFF751FF23
:100C90004B463A46214638460096FFF74AFF4B46F8
:100CA0002A46214628460096FFF743FFBDE8F88311
:100CB0003D4605E021462846FFF7B4FF6D1CEDB226
:100CC000B542F7D3641CE4B24445F1D3EEE7002605
:100CD00023462A46214638460096FFF72AFF4B4610
:100CE0002A46494638460096FFF723FF4B463A46C8
:100CF000214638460096FFF71CFF4B462A46214600
:100D000028460096FFF715FFD0E73D4605E021464F
:100D10002846FFF705FD6D1CEDB2B542F7D3641C04
:100D2000E4B24445F1D3C1E710B54FF40044214685
:100D3000054800F091F910B9044A042010702046CB
:100D4000BDE8104000F0B2B80008014048000020A3
:100D500010B50821054800F07FF910B904490120B9
:100D60000870BDE81040082000F0A0B8000C014059
:100D70004800002010B51021054800F06DF910B9A9
:100D8000044902200870BDE81040102000F08EB821
:100D9000000C01404800002010B52021054800F05B
:100DA0005BF910B9044903200870BDE81040202009
:100DB00000F07CB8000C014048000020FEB500F0B7
:100DC000EBFC0121084601F049FC0321012000F061
:100DD000ADF80820019000258DF808500C268DF8FC
:100DE000096001248DF80A4001A800F065F804218B
:100DF000012000F09BF8102001908DF808508DF82C
:100E000009608DF80A4001A800F056F8052101207C
:100E100000F08CF8202001908DF808508DF80960C2
:100E20008DF80A4001A800F047F80F21002000F0DB
:100E30007DF8E00301908DF808508DF809608DF879
:100E40000A4001A800F038F809208DF800000225BA
:100E50008DF801508DF802508DF80340684601F07E
:100E600061FB0A208DF800008DF801508DF80250CA
:100E70008DF80340684601F055FB17208DF80000FF
:100E80008DF801508DF802508DF80340684601F04E
:100E900049FB28208DF800008DF801508DF8025094
:100EA0008DF80340684601F03DFBFEBD0149086036
:100EB000704700001404014030B51B4A8379016873
:100EC000002B2AD013688B431360111D0B68046834
:100ED000A3430B60017911440B68046823430B6042
:100EE000114C08342168036899432160231D196857
:100EF0000568A94319604179102905D011440A6891
:100F0000006802430A6030BD216802681143216015
:100F1000196800680143196030BD00791044026807
:100F20008A43026030BD00000004014010B58A070A
:100F3000120F0F23934021F00304054921448C68CC
:100F40009C438C608B68904003438B6010BD000015
:100F5000000001402DE9F0410022CC7804F00F039D
:100F6000E40601D58C7823430C784FF00F0714F07A
:100F7000FF0F4FF0010C1CD005680CFA02F40E882C
:100F80002640A64211D1960007FA06F825EA080580
:100F900003FA06F848EA0505CE78282E02D0482E36
:100FA00002D002E0446100E00461521C082AE4D34C
:100FB00005600A88FF2A1ED94568002202F108064A
:100FC0000CFA06F40E882640A64210D1960007FAC5
:100FD00006F825EA080503FA06F848EA0505CE787A
:100FE000282E00D14461CE78482E00D10461521CD5
:100FF000082AE3D34560BDE8F0810000F0B5154C48
:10100000002801DAE36900E06368C0F30346420D9B
:10101000120185B2C0F301579540032F07D0C202D9
:101020000CD50322B240934343F0706209E023F0F1
:101030007062636823F07063636002E0AB4343F067
:10104000706201B12A43002801DAE261F0BD6260FA
:10105000F0BD0000000001408068084201D001207E
:101060007047002070474161704701617047000080
:101070002DE9F05F884617460026790701D0012147
:1010800000E0002101EBD7017943C9B2057844782B
:1010900090F8029090F803A07F2C06D041F63E6BAA
:1010A0000C2F0DD0102F66D0DFE00022002003E0CF
:1010B00008F8010B521CD2B28A42F9D3BDE8F09F66
:1010C000A5F1A100082809D8A12C07D3C0EB001175
:1010D00001EB401004EB4006A13E0FE0A5F1A80093
:1010E00001280BD8A12C09D27F2C01D9641EE4B2AF
:1010F00000EB400004EB401606F20E36A5F1B000FE
:1011000047280AD8A12C08D3C0EB001101EB4010EE
:1011100004EB400606F26D3623E0A5F1810020289D
:101120000ED2402C0CD37F2C01D9641EE4B2C0EB4C
:10113000401101EB801004EB400000EB0B0610E0C7
:10114000AA2D0ED3A12C0CD27F2C01D9641EE4B29F
:10115000A5F1AA0000EB400004EB401143F2FE5061
:101160000E1806EB4600C0007F4918220144404695
:1011700001F084FB79E0A5F1A00001280AD8A12C98
:1011800008D3401EC0EB001101EB401004EB4006F9
:10119000A13E0FE0A5F1A80001280BD8A12C09D28F
:1011A0007F2C01D9641EE4B200EB400004EB401632
:1011B00006F20E36A5F1B00047280AD8A12C08D3B4
:1011C000C0EB001101EB401004EB400606F26D3657
:1011D00044E0A5F1810020280ED2402C0CD37F2CB6
:1011E00001D9641EE4B2C0EB401101EB801004EBA6
:1011F000400000EB0B0631E0AA2D0FD3A12C0DD23D
:101200007F2C01D9641EE4B2A5F1AA0000EB4000D6
:1012100004EB401143F2FE500E181FE0812D0BD15C
:10122000392C09D3A9F1EE0000EB80000AEB400154
:1012300045F2E5500E1811E0822D0FD1A4F13001D6
:1012400040F2EC404143A9F1810000EB800001EB4A
:10125000400000EB0A0145F28F600E18700143490F
:1012600020220144404601F009FB182F7FF426AFED
:10127000A5F1A1000A2809D8A12C07D3C0EB0011C1
:1012800001EB401004EB4006A13E0FE0A5F1A800E1
:1012900001280BD8A12C09D27F2C01D9641EE4B2FD
:1012A00000EB400004EB401606F20E36A5F1B0004C
:1012B00047280AD8A12C08D3C0EB001101EB40103D
:1012C00004EB400606F26D3642E0A5F181002028CD
:1012D0000ED2402C0CD37F2C01D9641EE4B2C0EB9B
:1012E000401101EB801004EB400000EB0B062FE0F7
:1012F000AA2D0ED3A12C0CD27F2C01D9641EE4B2EE
:10130000AA3D05EB450004EB401143F2FE500E18D8
:101310001EE0812D0BD1392C09D3A9F1EE0909EB7F
:1013200089000AEB400145F2E5500E1810E0822DCD
:101330000ED1303C40F2EC404443A9F1810909EB65
:10134000890004EB400000EB0A0145F28F600E18A3
:1013500006EBC600C0000649482201444046BDE8ED
:10136000F05F01F08BBA00000E3D0900DE4F110066
:10137000DE431F000A21B0FBF1F2B0FBF1F301FBE9
:10138000130000EB0210C0B27047FEE770B50B4CC3
:10139000002525600A48016821F470410160016858
:1013A00041F4405101606560022002F05FFC0120C1
:1013B0002060022002F05AFC256070BDA881214205
:1013C000040C014038B50121092001F047F94FF420
:1013D0004064ADF8004010208DF8030003208DF824
:1013E0000200054D69462846FFF7B4FD2146284610
:1013F000FFF73BFE38BD0000000C014070B50B4C00
:10140000002525600A48016821F4704101600168E7
:1014100041F44051016001266660022002F026FC82
:101420002660022002F022FC256070BDA8812142C6
:10143000040C01402DE9F04781460024164801685C
:1014400021F470410160016841F400410160002510
:10145000124E00274FF00108C6F8A871022002F0D2
:1014600005FCC6F8A8816006040ED6F82C0108B168
:10147000641CE4B2012002F0F9FB6D1CEDB2082DF2
:10148000EAD3B9F1000F04D0FFF780FF2046BDE892
:10149000F087FFF7B3FFF9E7040C01400080214219
:1014A0002DE9F04105461648016821F470410160BC
:1014B000016841F440510160124E4FF00008C6F837
:1014C000A88100240127280602D5C6F8AC7101E0E6
:1014D000C6F8AC816806050E022002F0C7FBC6F80C
:1014E000A871022002F0C2FBC6F8A881022002F017
:1014F000BDFB641CE4B2082CE5D3BDE8F08100001C
:10150000040C01400080214270B50B48016821F4B1
:1015100070410160016841F440510160074C0120B5
:1015200060602060042002F0A1FB002565600420BB
:1015300002F09CFB256070BD040C0140A881214293
:1015400010B50C48016821F470410160016841F454
:1015500040510160084C002020606060042002F0CF
:1015600085FB012020606060BDE81040042002F08F
:101570007DBB0000040C0140A881214270B500240D
:101580001248016821F470410160016841F4004192
:1015900001600F4D0126C5F8AC61012002F066FB29
:1015A000C5F8A861012002F061FB07E0641CE4B209
:1015B000FA2C03D9FFF7C4FF012070BDD5F82C0128
:1015C0000028F3D1C5F8A80170BD0000040C01404B
:1015D0000080214210B504460121204600F06AF83F
:1015E000204600F02FF80446214602A001F022FE1A
:1015F000204610BDB5E7C1F73D202564200D0A0047
:1016000010B504460221204600F054F8204600F0B0
:1016100019F800EB4001C1EBC01032306421B0FB7F
:10162000F1F080B210BD10B544F2FF3200218A20E3
:1016300000F022F80521BDE810404FF480628A20B6
:1016400000F01AB870B50446FFF75EFF641CE0B204
:10165000FFF726FFFFF792FF0120FFF7EBFE4FF6A3
:10166000FF7101EA00250020FFF7E4FE40EA0504CF
:10167000FFF766FF204670BD70B506460D4614465E
:10168000FFF742FF3046FFF70BFFFFF777FF2846D3
:10169000FFF706FFFFF772FF200AFFF701FFFFF7D2
:1016A0006DFFE0B2FFF7FCFEFFF768FFBDE870409A
:1016B000FFF746BF70B505460C46FFF725FF2846E5
:1016C000FFF7EEFEFFF75AFF2046FFF7E9FEFFF7B0
:1016D00055FFBDE87040FFF733BF000070B501F063
:1016E0000FFB284D4FF4804421462846FFF7BBFCF2
:1016F000C82002F079FA21462846FFF7B6FCC82038
:1017000002F072FAAF2001F023FB402001F020FB31
:10171000B02001F01DFB102001F01AFB012001F0A8
:1017200017FBA02001F014FBA62001F011FBA42060
:1017300001F00EFBA32001F00BFBE22001F008FBFF
:10174000C82001F005FB2F2001F002FB252001F04D
:10175000FFFA812001F0FCFA282001F0F9FAAC2010
:1017600001F0F6FAF82001F0F3FA012001F0F0FAA6
:10177000602001F0EDFAFEF7F5FFBDE8704002A031
:1017800001F058BD001001404C4344B3F5CABCBB46
:10179000AFCDEAB3C90D0A00F8B50121042000F06D
:1017A0005DFF0121082000F059FF01211948FFF7D2
:1017B00025FC0820ADF8000048258DF803500124D1
:1017C0008DF80240144E69463046FFF7C3FB1021E6
:1017D000ADF800108DF803508DF802406946304690
:1017E000FFF7B8FB2020ADF800008DF803508DF80E
:1017F000024069463046FFF7ADFBE003ADF800005C
:101800008DF803508DF8024069460448FFF7A2FBAB
:10181000F8BD000000023000000C0140000801404B
:101820000346012000E05843491EC9B2FBD270476D
:101830002DE9FF4F81B00746DDF838A00C461E4663
:10184000A046A146700701D0012000E0002000EB77
:10185000D60071084843C0B20090203AD0B203903D
:10186000BAF1010F04D00020BAF1020F07D000E056
:101870000120002108431BD04FF0000B16E001218E
:10188000F8E7002507E0781909F0FF01C0B2FEF77C
:1018900047FF6D1CEDB2B5EB560FF4D309F101090A
:1018A0001FFA89F90BF1010B0BF0FF0BB345E8D3DD
:1018B0004FF0000981E00C2E15D0102E1CD0182EF0
:1018C0007FD10398404900EBC00001EB800010F885
:1018D0000950BAF1020F16D0BAF1000F31D0BAF1A7
:1018E000010F4AD065E00398384900EB400001EB56
:1018F000800010F80950ECE73549039801EB00101F
:1019000010F80950E5E7E84300F0FF0B00255FEA17
:101910000B6003D5E1B2F8B2FFF784F94FEA4B60F0
:101920004FEA106B641CA4B2A4EB0800B04203D1D0
:1019300044467F1CBFB23CE06D1CEDB2082DE6D3DF
:1019400037E04FF0000B280603D5E1B2F8B2FFF7FD
:1019500069F96806050E641CA4B2A4EB0800B04245
:1019600003D144467F1CBFB223E00BF1010B0BF007
:10197000FF0BBBF1080FE6D31BE04FF0000B28066E
:1019800003D5E1B2F8B2FFF74DF96806050E641C05
:10199000A4B2A4EB0800B04204D144467F1CBFB2FD
:1019A00007E00EE00BF1010B0BF0FF0BBBF1080F92
:1019B000E5D309F1010909F0FF0900988145FFF419
:1019C0007AAF05B0BDE8F08F3C680008D85D00082C
:1019D0004C6200082DE9FF4F81B08046DDE90EB969
:1019E00092461D46002600244FEA5B071FE0281B95
:1019F000401EC1B20A20FFF713FFBAFBF0F00A2124
:101A0000B0FBF1F201FB120026B9691E8C4201DA2B
:101A100090B101263030C2B207FB048080B25B4631
:101A2000CDF800900299FFF703FF641CE4B2AC42CA
:101A3000DDD305B0BDE8F08F07FB048080B25B46C4
:101A40003022CDF800900299FFF7F2FEEDE770B575
:101A500006460025A8B2002103F01AF800243078C9
:101A600001F0B4F9761C641C802CF8D36D1C082D91
:101A7000F0D370BD2DE9F04F8CB00546DDE9158936
:101A80000C4626462F46002B7ED0022B7DD0012B04
:101A90007CD10E2A7BD0102A7AD0202A76D14FF022
:101AA000000B4FF0000A04EB0A00C1B2F8B2FEF7D7
:101AB00037FE0AF1010A0AF0FF0ABAF1200FF2D349
:101AC0007F1CBFB20BF1010B0BF0FF0BBBF1100F32
:101AD000E7D34FF0000B08EB0B0000EB891090F8F8
:101AE00000A000275FEA0A6003D5E1B2E8B2FFF781
:101AF00099F84FEA4A604FEA106A641CA4B2A01B2E
:101B000010287DD07F1CFFB2102FEBD30BF1010BFF
:101B10000BF0FF0BBBF1100FDDD34FF0100B08EBF8
:101B20000B0000EB891090F800A00027A5F1100031
:101B300002905FEA0A6006D504F10800C1B202987B
:101B4000C0B2FFF76FF84FEA4A604FEA106A641CB0
:101B5000A4B2A01B10287DD07F1CFFB2102FE8D3A9
:101B60000BF1010B0BF0FF0BBBF1200FD7D34FF0A4
:101B7000200B08EB0B0000EB891090F800A0002769
:101B8000A5F12000019004E050E098E14BE035E33E
:101B900077E35FEA0A6006D504F11000C1B201984C
:101BA000C0B2FFF73FF84FEA4A604FEA106A641C80
:101BB000A4B2A01B10287CD07F1CFFB2102FE2D350
:101BC0000BF1010B0BF0FF0BBBF1300FD1D34FF03A
:101BD000300B08EB0B0000EB891090F800A00027F9
:101BE000A5F1300000905FEA0A6006D504F1180004
:101BF000C1B20098C0B2FFF715F84FEA4A6000E0A2
:101C0000B0E34FEA106A641CA4B2A01B10287CD079
:101C10007F1CFFB2102FE6D30BF1010B0BF0FF0B73
:101C2000BBF1400FD5D30CB0BDE8F08F0E2A6DD0BC
:101C3000102A6CD0202AF6D14FF0000B08EB0B00D5
:101C400000EB891090F800A000275FEA0A6005D534
:101C5000E1B200E08BE3E8B2FEF7E4FF4FEA4A604E
:101C60004FEA106A641CA4B2A01B10287DD07F1C10
:101C7000FFB2102FE9D30BF1010B0BF0FF0BBBF1FF
:101C8000100FDBD34FF0100B08EB0B0000EB8910AB
:101C900090F800A00027A5F110000A905FEA0A6002
:101CA00006D504F10800C1B20A98C0B2FEF7BAFF27
:101CB00000E061E34FEA4A604FEA106A641CA4B294
:101CC000A01B10287ED07F1CFFB2102FE6D30BF193
:101CD000010B0BF0FF0BBBF1200FD5D34FF0200B06
:101CE00008EB0B0000EB891090F800A00027A5F18D
:101CF000200009905FEA0A6006D504F11000C1B225
:101D00000998C0B2FEF78EFF02E039E341E06BE0D4
:101D10004FEA4A604FEA106A641CA4B2A01B102864
:101D20007ED07F1CFFB2102FE4D30BF1010B0BF020
:101D3000FF0BBBF1300FD3D34FF0300B08EB0B0090
:101D400000EB891090F800A00027A5F13000089062
:101D50005FEA0A6006D504F11800C1B20898C0B263
:101D6000FEF760FF4FEA4A6000E098E04FEA106A31
:101D7000641CA4B2A01B10287ED07F1CFFB2102FC1
:101D8000E6D30BF1010B0BF0FF0BBBF1400FD5D3EA
:101D900049E74FF0000B08EB0B0000EB091090F83F
:101DA00000A000275FEA0A6003D5E1B2E8B2FEF7BF
:101DB00039FF4FEA4A604FEA106A641CA4B2A01BC4
:101DC000082800E06FE00BD07F1CFFB2102FE9D392
:101DD0000BF1010B0BF0FF0BBBF1100FDBD322E774
:101DE00034466D1CADB2F3E74FF0000B08EB0B006F
:101DF00000EB491090F800A000275FEA0A6003D5C5
:101E0000E1B2E8B2FEF70EFF4FEA4A604FEA106A0D
:101E1000641CA4B2A01B102839D07F1CFFB200E0C4
:101E200045E0102FE9D30BF1010B0BF0FF0BBBF1D9
:101E3000100FDBD34FF0100B08EB0B0000EB491039
:101E400090F800A00027A5F110000B905FEA0A604F
:101E500006D504F10800C1B20B98C0B2FEF7E2FE4D
:101E60004FEA4A604FEA106A641CA4B2A01B102813
:101E700011D07F1CFFB200E01DE0102FE6D30BF164
:101E8000010B0BF0FF0BBBF1200FD5D3CBE6344693
:101E90006D1CADB2C7E734466D1CADB2EFE73446FA
:101EA0006D1CADB2E7E634466D1CADB20FE73446AB
:101EB0006D1CADB239E734466D1CADB261E70E2A38
:101EC0007ED0102A7DD0202A89D14FF0000B4FF010
:101ED000000A04EB0A00C1B2F8B2FEF721FC0AF1D5
:101EE000010A0AF0FF0ABAF1200FF2D37F1CBFB239
:101EF0000BF1010B0BF0FF0BBBF1100FE7D34FF011
:101F0000000B08EB0B0000EB89100078C04300F0D9
:101F1000FF0A00275FEA0A6003D5E1B2E8B2FEF7E4
:101F200081FE4FEA4A604FEA106A641CA4B2A01B0B
:101F300010287CD07F1CFFB2102FEBD30BF1010BCC
:101F40000BF0FF0BBBF1100FDBD34FF0100B08EBC6
:101F50000B0000EB89100078C04300F0FF0A002757
:101F6000A5F1100006905FEA0A6006D504F10800AA
:101F7000C1B20698C0B2FEF755FE4FEA4A604FEA7A
:101F8000106A641CA4B2A01B10287CD07F1CFFB276
:101F9000102FE8D30BF1010B0BF0FF0BBBF1200F5F
:101FA000D5D34FF0200B08EB0B0000EB8910007825
:101FB000C04300F0FF0A0027A5F12000059001E0D2
:101FC0004DE094E05FEA0A6006D504F11000C1B26A
:101FD0000598C0B2FEF726FE4FEA4A604FEA106A43
:101FE000641CA4B2A01B10287CD07F1CFFB2102F51
:101FF000E5D30BF1010B0BF0FF0BBBF1300FD2D38C
:102000004FF0300B08EB0B0000EB89100078C04359
:1020100000F0FF0A0027A5F1300004905FEA0A6093
:1020200008D504F11800C1B20498C0B200E0D5E0B0
:10203000FEF7F8FD4FEA4A604FEA106A641CA4B24A
:10204000A01B10287ED07F1CFFB2102FE6D30BF10F
:10205000010B0BF0FF0BBBF1400FD3D3E3E54FF0C7
:10206000000B4FF0000A04EB0A00C1B2F8B2FEF711
:1020700057FB0AF1010A0AF0FF0ABAF1080FF2D37E
:102080007F1CBFB200E0ADE00BF1010B0BF0FF0BCA
:10209000BBF1080FE5D34FF0000B08EB0B0000EB92
:1020A00009100078C04300F0FF0A00275FEA0A60C9
:1020B00003D5E1B2E8B2FEF7B5FD4FEA4A604FEA58
:1020C000106A641CA4B2A01B08280CD07F1CFFB2AD
:1020D000102FEBD30BF1010B0BF0FF0BBBF1100F2B
:1020E000DBD3A0E582E034466D1CADB2F2E74FF0E1
:1020F000000B4FF0000A04EB0A00C1B2F8B2FEF781
:102100000FFB0AF1010A0AF0FF0ABAF1100FF2D32D
:102110007F1CBFB20BF1010B0BF0FF0BBBF1100FDB
:10212000E7D34FF0000B08EB0B0000EB49100078F1
:10213000C04300F0FF0A00275FEA0A6005D5E1B25C
:10214000E8B200E056E0FEF76DFD4FEA4A604FEA64
:10215000106A641CA4B2A01B102837D07F1CFFB2E9
:10216000102FE9D30BF1010B0BF0FF0BBBF1100F9C
:10217000D9D34FF0100B08EB0B0000EB491000789F
:10218000C04300F0FF0A0027A5F1100007905FEAA6
:102190000A6006D504F10800C1B20798C0B2FEF784
:1021A00041FD4FEA4A604FEA106A641CA4B2A01BCA
:1021B00010280FD07F1CFFB2102FE8D30BF1010BBA
:1021C0000BF0FF0BBBF1200FD5D32CE534466D1C73
:1021D000ADB2C7E734466D1CADB2EFE734466D1CB7
:1021E000ADB2ABE634466D1CADB2D3E634466D1CE1
:1021F000ADB2FEE634466D1CADB228E74FF0000BE1
:102200004FF0000A04EB0A00C1B2F8B2FEF788FAF8
:102210000AF1010A0AF0FF0ABAF1080FF2D37F1C93
:10222000BFB20BF1010B0BF0FF0BBBF1080FE7D3B3
:102230004FF0000B08EB0B0000EB091090F800A02A
:1022400000275FEA0A6003D5E1B2E8B2FEF7EAFCD4
:102250004FEA4A604FEA106A641CA4B2A01B082827
:102260000BD07F1CFFB2102FEBD30BF1010B0BF047
:10227000FF0BBBF1100FDDD3D5E434466D1CADB2BE
:10228000F3E74FF0000B4FF0000A04EB0A00C1B275
:10229000F8B2FEF745FA0AF1010A0AF0FF0ABAF1AC
:1022A000100FF2D37F1CBFB20BF1010B0BF0FF0B31
:1022B000BBF1100FE7D34FF0000B08EB0B0000EB66
:1022C000491090F800A000275FEA0A6003D5E1B248
:1022D000E8B2FEF7A7FC4FEA4A604FEA106A641CB6
:1022E000A4B2A01B102835D07F1CFFB2102FEBD357
:1022F0000BF1010B0BF0FF0BBBF1100FDDD34FF017
:10230000100B08EB0B0000EB491090F800A0002721
:10231000A5F1100003905FEA0A6006D504F10800F9
:10232000C1B20398C0B2FEF77DFC4FEA4A604FEAA3
:10233000106A641CA4B2A01B10280FD07F1CFFB22F
:10234000102FE8D30BF1010B0BF0FF0BBBF1200FAB
:10235000D7D368E434466D1CADB2C9E734466D1C72
:10236000ADB2EFE734466D1CADB2FFF7CFBB3446DC
:102370006D1CADB2FFF7F4BB34466D1CADB21FE46B
:1023800034466D1CADB247E438B50121082000F099
:1023900065F94FF48044ADF8004010208DF803003B
:1023A00003208DF80200054D69462846FEF7D2FD50
:1023B00021462846FEF757FE38BD0000000C0140BC
:1023C000FEE7000070B52E492E4C0022087804F17B
:1023D0000805012814D0022822D0032840D0042860
:1023E0002ED0012001F028FC02F03AFA207800EB10
:1023F000400005EB800080686060BDE870400047E9
:102400000A7021A000F016FFFEF79EF900F03EFBD7
:10241000207800EB400005EB800040782070E5E775
:102420000A701CA000F006FFFEF78EF900F02EFBEC
:10243000207800EB400005EB800080782070D5E725
:102440000A7017A000F0F6FEFEF77EF900F01EFB02
:10245000207800EB400005EB8000C0782070C5E7D5
:102460000A7012A000F0E6FEFEF76EF900F00EFB17
:10247000207800EB400005EB800000792070B5E784
:102480004800002050000020C9CFBCFCB0B4CFC22F
:102490000D0A0000CFC2BCFCB0B4CFC20D0A0000D0
:1024A000C8B7B6A8B0B4CFC20D0A0000CDCBB3F602
:1024B000B0B4CFC20D0A0000F0B587B004460D4697
:1024C000002303AE12F8010BF0545B1CDBB20C2BA3
:1024D000F8D300278DF818700320009005F1110043
:1024E000C3B204F14C00C2B229462046FEF7AEFB4F
:1024F00005F11000C3B204F14B00C2B2681CC1B2B6
:10250000601CC0B20097FEF7A1FB0C20CDE90107CB
:1025100003464822E91C0096E01C00F09BFB07B034
:10252000F0BD704770B50F23C27801260178002AEC
:102530001ED0144A126802F4E062C2F5E062120A88
:10254000C2F10404D3404578A54082781A402A435A
:10255000120101F1E02181F80024007800F01F0150
:102560008E404009800000F1E020C0F8006170BD9D
:1025700001F01F0086404809800000F1E020C0F80B
:10258000806170BD0CED00E002490843024908601B
:10259000704700000000FA050CED00E070B586B051
:1025A00004460D461646182222496846FDF7E0FD0E
:1025B000681E3DF81000304480B2A1074FF064025D
:1025C0004FF4C87304D1B4FBF2F102FB114121B9FD
:1025D000B4FBF3F103FB114119B9032D01D3401CE6
:1025E00080B2A4F26D7140F26D1501FB050080B25E
:1025F00040F26D710FE08D0704D1B1FBF2F502FBE3
:10260000151525B9B1FBF3F503FB15150DB9401CE4
:1026100080B2491C89B2A142EDD3401C0721B0FB16
:10262000F1F201FB1200044A907100B991719079A6
:1026300006B070BDC05D00083A0000207047000081
:10264000054A002903D0D1690143D1617047D1699E
:102650008143D1617047000000100240054A002903
:1026600003D0916901439161704791698143916100
:10267000704700000010024010B5264A516801F072
:102680000C01254B002927D0042927D0082927D061
:102690000360516801F0F0010909204B5C5C01689E
:1026A000E1404160546804F4E064240A1C5D21FAAE
:1026B00004F48460546804F46054E40A1B5DD94057
:1026C000C160526802F44042920B144B1B1F9A5C8B
:1026D000B1FBF2F1016110BD0360DAE70360D8E7F6
:1026E000516801F47011536803F48033022404EB41
:1026F000914133B153689B0307D5094B594301609E
:10270000C7E7074B59430160C3E7034B59430160D7
:10271000BFE700000010024000127A0028000020ED
:1027200000093D0038B5012141F20400FFF796FF92
:10273000E020ADF8000018208DF8030003208DF88C
:102740000200144C69462046FEF704FCE0212046B6
:10275000FEF78BFC1048002101804FF4827242800A
:1027600081800222C28001220281520242813822EB
:102770008281C18107210182084C0146204600F078
:10278000DCF80121204600F047F8FF2000F008F8AF
:1027900038BD00000008014004080020003001405E
:1027A00070B505460024134E05E0641CE4B2C82C45
:1027B00001D9002070BD0221304600F0B3F8002896
:1027C000F3D029463546284600F0B5F8002405E048
:1027D000641CE4B2C82C01D9002070BD0121284638
:1027E00000F0A0F80028F3D0284600F0A2F8C0B20C
:1027F00070BD00000030014006490A8822F038020E
:102800000A800A8802430A80088840F04000088055
:102810007047000000300140002904D0018841F0D9
:10282000400101807047018821F04001018070471C
:1028300038B501210820FFF711FF0420ADF8000092
:1028400010208DF8030003208DF80200094C694622
:102850002046FEF77FFB04212046FEF706FCFFF72B
:1028600061FF1020FFF7C8FF00F030F80249088030
:1028700038BD0000000C0140380000202DE9F04177
:1028800005460C461646104F0020C7F88801032065
:10289000FFF786FFC4F30740FFF782FFC4F307206A
:1028A000FFF77EFFE0B2FFF77BFF002405E0FF208B
:1028B000FFF776FF2855641CA4B2B442F7D3012079
:1028C000C7F88801BDE8F0810080214270B5104E44
:1028D000002434609020FFF763FF0020FFF760FFC3
:1028E0000020FFF75DFF0020FFF75AFFFF20FFF7F2
:1028F00057FF44EA0025FF20FFF752FF40EA050496
:1029000001203060214603A000F094FC204670BDF9
:102910008881214257323551585849443D25235822
:102920000D0A00000246002012890A4200D0012050
:102930007047808970478181704730B5028802F402
:1029400041530A884C88CD8822438C882C432243EB
:102950000C8922434C8922438C892243CC8922430F
:102960001A430280828B22F400628283098A0182E8
:1029700030BD7047AFF300800CB500220192009289
:102980002748016841F4803101604FF4A063016879
:1029900001F4003100910199491C0191009911B98C
:1029A00001999942F3D10168890302D5012100916F
:1029B00000E000920099012930D11A490A6842F0DA
:1029C00010020A600A6822F003020A600A6842F0F4
:1029D00002020A604168416041684160416841F417
:1029E00080614160416821F47C114160416841F49B
:1029F000E8114160016841F080710160016889015E
:102A0000FCD5416821F003014160416841F00201B9
:102A100041604168C1F381010229FAD10CBD000077
:102A200000100240002002402DE9F0418846DDE917
:102A3000065417461E46FEF79DFC0146062003F08D
:102A4000A3F94046FEF796FC0146052003F09CF9E9
:102A50003846FEF78FFC0146042003F095F9304616
:102A6000FEF788FC0146022003F08EF92846FEF7A7
:102A700081FC0146012003F087F92046FEF77AFC2D
:102A80000146BDE8F041002003F07EB90148FEF7A1
:102A9000DEBF00001608002010B50C4602461721C4
:102AA0001C20FFF709FDFFF7F1FF2046BDE81040AD
:102AB00001F0C2B82DE9F04F93B00446DDF87090F4
:102AC0000D4694461E462746A046AB46700701D0E9
:102AD000012000E0002000EBD600704300F0FF0A68
:102AE0000C2E03D0102E01D0182E38D13246694654
:102AF0006046FEF7BDFAB9F1000F08D0B9F1010F39
:102B000030D0B9F1020F2AD14FF0000B9FE04FF007
:102B1000000B22E01DF80B904FF000085FEA0960FF
:102B200003D5E9B2E0B2FEF77DF84FEA49604FEA1B
:102B30001069641CA4B2E01BB04203D13C466D1C7A
:102B4000ADB206E008F1010808F0FF08B8F1080F7F
:102B5000E4D30BF1010B0BF0FF0BD345DAD313B029
:102B6000BDE8F08F002012901FE04FF000090BF03D
:102B7000FF0108F0FF00FDF7D3FD08F101081FFA7F
:102B800088F8A8EB0400B04204D1A0460BF1010B79
:102B90001FFA8BFB09F1010909F0FF09B9F1080FD0
:102BA000E5D31298401CC0B2129012985045DCD365
:102BB0004FF0000B22E01DF80B904FF000085FEA89
:102BC000096003D5E9B2E0B2FEF72CF84FEA49609C
:102BD0004FEA1069641CA4B2E01BB04203D13C462A
:102BE0006D1CADB206E008F1010808F0FF08B8F16D
:102BF000080FE4D30BF1010B0BF0FF0BD345DAD335
:102C0000ADE71DF80B00C04300F0FF094FF00008CE
:102C10005FEA096003D5E9B2E0B2FEF703F84FEAD4
:102C200049604FEA1069641CA4B2E01BB04203D1B2
:102C30003C466D1CADB206E008F1010808F0FF0843
:102C4000B8F1080FE4D30BF1010B0BF0FF0BD345E8
:102C5000D7D384E72DE9FF4F81B00446DDE90E7537
:102C60000E469346A046B2464FF000091CE0B9F16B
:102C7000000F1FD04FF0000908EB0B00401BA042D3
:102C800002DA701986B2444604985044401BB042A0
:102C90000DDB109800902B463A4631462046FFF750
:102CA00009FFBF1C601984B23A78002ADFD105B051
:102CB000BDE8F08F802A02D94FF00109F4E708EB54
:102CC0000B00A0EB5500A04202DA701986B2444610
:102CD00004985044401BB042E9DB0D2A0BD01098F9
:102CE00000902B4631462046FEF7A2FD7F1C04EBE8
:102CF000550084B2D8E7701986B244467F1CF5E7C8
:102D000038B501211020FFF7A9FC4FF46040ADF861
:102D1000000010258DF8035003248DF80240694609
:102D20000948FEF717F901210820FFF797FC4FF437
:102D30003070ADF800008DF803508DF80240694600
:102D40000248FEF707F938BD00100140000C0140B1
:102D50002DE9F04705461B4E4FF4004841463046EA
:102D6000FEF781F94FF4005949463046FEF77BF9EA
:102D7000154F40213846FEF776F9002440213846A9
:102D8000FEF771F9280604D580213846FEF76DF963
:102D900003E080213846FEF766F940213846FEF709
:102DA00064F96806050E641CE4B2082CE6D34146BB
:102DB0003046FEF75AF949463046BDE8F047FEF77F
:102DC00054B9000000100140000C01402DE9F0470B
:102DD00005461B4E4FF4004841463046FEF743F986
:102DE0004FF4005949463046FEF73FF9154F402150
:102DF0003846FEF738F9002440213846FEF733F90B
:102E0000280604D580213846FEF72FF903E08021FB
:102E10003846FEF728F940213846FEF726F96806BD
:102E2000050E641CE4B2082CE6D341463046FEF79A
:102E30001CF949463046BDE8F047FEF714B90000DA
:102E400000100140000C01404FF0E021042804D0A4
:102E5000086920F0040008617047086940F0040028
:102E600008617047704700004FF0E020016921F0D1
:102E700002010161084809490068B0FBF1F0084906
:102E8000C0B2087000EB4002C2EBC0104FF6FF72F8
:102E900002EAC000488070470400002000127A0057
:102EA0001800002010B50F48016841F001010160D1
:102EB00041680D4A1140416001680C4A11400160AF
:102EC000016821F480210160416821F4FE01416024
:102ED0004FF41F018160FFF74DFD05494FF0006081
:102EE000086010BD001002400000FFF8FFFFF6FE72
:102EF00008ED00E010B50B4C0121204600F055F81C
:102F000000280DD00121204600F040F80648018835
:102F1000491C01804188491C41808188491C81806D
:102F200010BD000000040040420000207FB50446B0
:102F30000D4601210220FFF783FBADF80840ADF8F4
:102F400004500020ADF80A00ADF806000E4C01A9AF
:102F5000204600F043F801221146204600F031F8E7
:102F60001D218DF8001001218DF8011003228DF82C
:102F700002208DF803106846FFF7D4FA012120469D
:102F800000F007F87FBD000000040040C943018243
:102F90007047002904D0018841F001010180704789
:102FA000018821F001010180704702460020138A48
:102FB0000B4092890A40002B02D0002A00D0012049
:102FC0007047002A03D082890A4382817047828930
:102FD0008A438281704781847047000030B502883F
:102FE0001B4C1C4DA0420DD0A8420BD0B0F1804F1D
:102FF00008D0194B984205D0184B984202D0184B74
:10300000984203D122F070034A881A43154B984224
:1030100006D0154B984203D022F44073CA881A4355
:1030200002808A8882850A880285A0420AD0A84246
:1030300008D00E4A904205D00D4A904202D00D4A67
:10304000904201D1097A01860121818230BD0000C0
:10305000002C014000340140000400400008004002
:10306000000C0040001000400014004000400140EF
:10307000004401400048014070B5144C40F2255115
:10308000204600F037F800281AD0204600F0CCF88F
:10309000C4B20F4D2888010412D4B0F57A7F10D243
:1030A0000C4E00213046FFF796FF298819B90121FF
:1030B0003046FFF76EFF2888411C298006490C54D2
:1030C00070BD40F40040288070BD00000038014011
:1030D0001C000020000800401C040020002904D02F
:1030E000818941F4005181817047818921F4005127
:1030F0008181704770B5002440F66A12C1F3421313
:1031000001F01F05012606FA05F2012B0CD0022B57
:103110000DD0838A1340090A8E40008830400BB1DD
:1031200000B10124204670BD83891340F3E7038A70
:103130001340F0E710B540F66A13C1F3421301F0F3
:103140001F040121A140012B07D0022B07D014300E
:103150003AB102680A43026010BD0C30F8E7103043
:10316000F6E702688A43026010BD000030B585B002
:1031700004460D46208A4CF6FF710840E988014359
:103180002182A0894EF6F3110840A9882A891143AB
:103190006A8902431143A181A08A4FF6FF4108408A
:1031A000A9890143A1826846FFF766FA1D48844257
:1031B00001D1039800E00298A189090408D500EB29
:1031C000C00101EB001029684900B0FBF1F007E0F5
:1031D00000EBC00101EB001029688900B0FBF1F0A1
:1031E0006422B0FBF2F109010B096FF018056B4383
:1031F00000EB8300A3891D044FF0320307D503EBD6
:10320000C000B0FBF2F000F00700084306E003EB5B
:103210000010B0FBF2F000F00F000843208105B071
:1032200030BD0000003801408088C0F308007047BE
:10323000FEE700000FB4054B10B503A9044A02983D
:1032400000F018F810BC5DF814FB000051470008AE
:103250002000002002E008C8121F08C1002AFAD18D
:1032600070477047002001E001C1121F002AFBD106
:10327000704700002DE9FF4F8DB09B460F46044676
:10328000002606E025280BD05A460F999047641C6B
:10329000761C20780028F5D111B03046BDE8F08FBB
:1032A0000025A8460122984900E0054314F8013F93
:1032B000203B02FA03F00842F7D120782E2817D1DC
:1032C00014F8010F45F004052A280ED06FF02F02E4
:1032D0002078A0F1300109290AD808EB880102EB17
:1032E000410100EB0108641CF2E757F8048B641CF1
:1032F00020786C280DD004DC4C2812D06A2811D11B
:1033000004E074280DD07A280CD10AE045F40015A9
:1033100007E0617845F48015814202D1641C05F50F
:103320008015641C2278692A45D008DC002AB3D0B5
:10333000582A69D0632A10D0642A08D13BE0702A49
:1033400067D0732A13D0752A5CD0782A5CD01046D7
:103350005A460F999047761CD3E017F8040B8DF866
:10336000000000208DF80100E946012003E057F835
:10337000049B4FF0FF3069074FF0000501D40AE0CD
:103380006D1C45450DDA8542FADB19F80510002958
:10339000F6D106E06D1C8542FCDB19F8051000290A
:1033A000F8D12E4404E019F8010B5A460F999047C2
:1033B0006D1EF8D2A5E00A200021CDE90801C5F371
:1033C000025002280DD001CFC117031E71F1000376
:1033D0000DDA4FF0000CD0EB0C006CEB01012D234B
:1033E00008E0FF1D27F00707F7E80201EDE72B05CE
:1033F00004D52B238DF8283001233BE0EB0739D08F
:103400002023F7E70A2000E010200021CDE9080181
:1034100007E01020002145F00405CDE908014FF038
:103420000808C5F3025002280FD001CF00214FF049
:10343000000A2B071FD5702A0DD0DDE908C38CF0D8
:10344000100C5CEA030C0CD015E0FF1D27F00707F9
:10345000F7E80201EBE740228DF828204FF0010A3F
:103460000BE050EA010306D030238DF828308DF8A8
:10347000292002239A46582A04D024A20DF12009BB
:103480000B9209E026A2F9E7DDE90823FCF74AFFE1
:103490000B9B9B5C09F8013D50EA0102F4D1ADEBB6
:1034A000090020300890680701D44FF001080899FE
:1034B000884502DDA8EB010000E0002080460025E1
:1034C00006E00AA85A46405D0F9990476D1C761C8D
:1034D0005545F6DB04E030205A460F999047761C9C
:1034E000B8F10001A8F10108F5DC05E019F8010BBD
:1034F0005A460F999047761C0899481E0890002953
:10350000F4DC641CC5E600000928010030313233C8
:10351000343536373839616263646566000000000F
:1035200030313233343536373839414243444546F9
:1035300000000000FEB501F01DFB194E0024194DDE
:1035400001F008FB01F0F4FF30787178884225D053
:103550001020CDE9010414A100910346602200214E
:10356000FFF778FBFFF792FA287801280DD00228A0
:103570000FD0032811D0042803D0012000F05CFBF9
:10358000DEE72C7001F0F6FADAE72C7001F0F2FABF
:10359000D6E72C7001F0EEFAD2E72C70FEBD0000E9
:1035A0004900002048000020B1B3B9E2C1C1B6C84B
:1035B000B5F7BDDA000000002DE9FE4301F0DAFAAC
:1035C0000220FCF7D3FF0446DFF8B88000262E4D1A
:1035D00001F0C0FA01F0ACFF98F8000098F8011073
:1035E00088424DD01027CDE9017628A000903B46B7
:1035F000602200213846FFF72DFBCDE9017627A098
:1036000010230090302218211846FFF723FBCDE944
:1036100000760223224618215020FEF7DBF9FFF73F
:1036200035FA2878012818D002281FD0032826D080
:10363000042803D0012000F0FFFAC9E72E7001F042
:1036400099FA21460220FCF7B2FF4FF4167115A03B
:10365000FFF722FAFDF778F8BAE72E7001F08AFA40
:10366000641EE4B2FF2CB3D13C24B1E72E7001F00C
:1036700081FA641CE4B23C2CAAD90024A8E72E707D
:10368000BDE8FE834900002048000020B1B3B9E244
:10369000CAB1BCE4B5F7BDDA00000000B5B1C7B0EF
:1036A000D6B50000C9E8D6C3D2D1B1A3B4E60000B4
:1036B0002DE9FE4301F05EFA334F0025334C01F053
:1036C00049FA01F035FF3878797888425AD00420D9
:1036D000FCF74CFF06464FF01008CDE901852CA001
:1036E00000904346602200211820FFF7B3FACDE98D
:1036F00001852AA010230090302218211846FFF7D8
:10370000A9FACDE900850223324618215020FEF7A0
:1037100061F9FFF7BBF98120FFF71AFB3046FFF78D
:1037200017FB2178012914D002291ED0032928D0A3
:10373000042903D0012000F07FFAC0E7257001F0D2
:1037400019FA4FF4167117A0FFF7A6F9FCF7FCFF62
:10375000B5E7257001F00EFA761EF1B2182900D1F6
:103760003C210420FCF723FFA9E7257001F002FAB1
:10377000761CF1B23D2900D119210420FCF717FF76
:103780009DE72570BDE8FE83490000204800002029
:10379000B6D4B1C8B6C8B5F7BDDA0000B5B1C7B088
:1037A000D6B50000C9E8D6C3D7D4B6AFB1A3B4E646
:1037B000000000002DE9FE43002401F0DBF9FCF7D6
:1037C00021FF014656A0FFF735FD0020FCF751FF11
:1037D000014657A0FFF72EFDFCF768FF014658A0F1
:1037E000FFF728FDFCF755FF014659A0FFF722FD22
:1037F00000265B4FDFF86C8101F0ACF901F098FE18
:1038000098F8000098F8011088426DD01020CDE99A
:10381000010655A10091034660220021FFF71AFA24
:103820000C2553A08DE861002B4624221021002096
:10383000FFF710FA50A08DE861000C2330221C2104
:103840000020FFF707FA4EA08DE861000C2330221C
:1038500028210020FFF7FEF94BA08DE861000C2322
:10386000302234210020FFF7F5F9FCF7CBFE4FF0B2
:103870000109CDE900590246042310212820FEF752
:10388000A9F80020FCF7F5FECDE900590246042313
:103890001C212820FEF79EF8FCF708FFCDE900590F
:1038A0000246282104230846FEF794F8FCF7F1FEAF
:1038B000CDE900590246042335212820FEF78AF875
:1038C000FFF7E4F83878012816D002281DD0032825
:1038D00024D004280AD0012000F0AEF998F80000A6
:1038E00098F80110884287D1BDE8FE833E7001F050
:1038F00041F9FCF729FF7FE73E7001F03BF9641EB8
:10390000E4B2FF2CF7D13C2476E73E7001F032F9A7
:10391000641CE4B23C2CEED900246DE73E70E3E772
:103920004357323031352049443A25640D0A0000AE
:10393000B5E7C1BFB0D9B7D6D6AE25640D0A000031
:10394000B5E7B3D8B5E7D1B93A25640D0A0D0A0039
:10395000CAB9D3C3CAB1BCE43A25640D0A0D0A0042
:103960004800002049000020435732303135000024
:103970004944A3BA00000000534F433A000000003E
:103980005663653A0000000054696D3A000000007B
:103990002DE9FE4F0024DFF8C89120214846FDF7AD
:1039A0005BFBDFF8C0A1704E4FF4004520B92946FB
:1039B0003046FDF751FB18B19AF8000001287DD17F
:1039C000FCF7C2FE4FF010080027CDE9018767A081
:1039D00000904346802208213846FFF73BF9CDE9A5
:1039E000018766A000901023802220210020FFF78D
:1039F00031F9CDE9018766A00090102380223021A3
:103A00000020FFF727F9FFF741F820214846FDF78E
:103A100023FB0028F9D075E0642000F00DF9294659
:103A20003046FDF719FB00285ED129463046FDF7E8
:103A300013FB0028F9D0FCF787FECDE9018758A0D9
:103A400010230090702219460020FFF703F9FFF7BA
:103A50001DF8564914200870554A01211170554B24
:103A600004221A70544C0C232370544C2370544C71
:103A70002370544C24780093CDE90134FEF7D4FF31
:103A800009210020FCF793FD09210120FCF78FFD9F
:103A900009210220FCF78BFD23210320FCF787FD81
:103AA00009210420FCF783FD0A210520FCF77FFD96
:103AB000322000F0C1F8FCF747FE00E043E0CDE91A
:103AC000018741A000901023602220210020FFF7F1
:103AD000C1F8FEF7DBFF4FF47A7000F0ADF88AF81A
:103AE0000070FCF731FE2EE020214846FDF7B4FAC5
:103AF00040B93CB9642000F09FF820214846FDF70A
:103B0000ABFA30B129463046FDF7A6FA0028EBD1D2
:103B100082E7FCF719FECDE901872FA00090102362
:103B2000602220210020FFF795F8FEF7AFFF4FF449
:103B3000FA7000F081F820214846FDF78DFA002840
:103B4000F9D0FCF701FE0420FCF710FD04468120AB
:103B5000FFF7FEF82046BDE8FE4FFFF7F9B800007A
:103B6000000C0140000000200008014020B3F5CA0D
:103B7000BCBBAFC9E8D6C3CAFDBEDD00B2CBB5A59C
:103B8000BCFC20202020B7B5BBD8BCFC0000000046
:103B900020C8B7C8CF202020202020C8A1CFFB00FC
:103BA000B3F5CABCBBAFD6D02E2E2E003A000020F3
:103BB0003B0000203C0000203D0000203E00002093
:103BC0003F00002040000020B3F5CABCBBAFD2D1FB
:103BD000CDEAB3C900000000B3F5CABCBBAFD2D177
:103BE000C8A1CFFB0000000004E00021491CC9B2BD
:103BF0001429FBD9401E80B2F7D2704710B56FF080
:103C00000400FFF721F9094809490068B0FBF1F009
:103C10000849C0B2087000EB4002C2EBC0104FF67A
:103C2000FF7202EAC000488010BD000004000020BE
:103C300000127A00180000200B49498848434FF0D1
:103C4000E021486100238B61086940F001000861B0
:103C50000869C20701D0C003FAD5086920F0010045
:103C600008618B6170470000180000200B4909783B
:103C700048434FF0E021486100238B61086940F020
:103C8000010008610869C20701D0C003FAD50869BC
:103C900020F0010008618B617047000018000020CF
:103CA000FEB50C24002514A08DE8310023462246E1
:103CB0001C217020FEF7CEFF10A08DE831000C23F0
:103CC0001A4628217020FEF7C5FF01260C4DCDE9CC
:103CD00000460223EA781C216420FDF77BFECDE933
:103CE000004602232A7928216420FDF773FEBDE8EF
:103CF000FE40FEF7CBBE0000A1E60000250000005C
:103D0000490000207CB5114D0A24114E2888B0FBD3
:103D1000F4F104FB1100052808D90B20CDE900605F
:103D20002022012318211046FDF7A4FE2888B0FBAD
:103D3000F4F104FB1100052807D2CDE9006420222C
:103D4000012318211046FDF795FE7CBD420000209E
:103D5000887600082DE9FE4F01F0A8FCFFF7D2FF9E
:103D6000FA4EFB4FDFF8EC8333783A7898F800107E
:103D70000020FCF711FDDFF8E0930A24F74D99F8D5
:103D800000000123B0FBF4F0CDE900502022152102
:103D90000020FDF76FFE99F800000123B0FBF4F15D
:103DA00004FB1100CDE90050202215211020FDF761
:103DB00061FEDFF8AC930123202299F80000152161
:103DC000B0FBF4F0CDE900503020FDF753FE99F838
:103DD00000000123B0FBF4F104FB1100CDE9005019
:103DE000202215214020FDF745FEDFF87893642559
:103DF0000124B9F80000B0FBF5F105FB11003228F1
:103E00006CD94FF0100ACDE901A4D7A00090534619
:103E1000202208210020FEF71DFFCDE900A4022387
:103E200098F8002008211020FDF7D4FDCDE900A46A
:103E300002233A7808212020FDF7CCFDCDE900A42B
:103E40000223327808213020FDF7C4FDC7480078EE
:103E500007280CD0062812D0052818D004281ED018
:103E6000032824D002282AD0012830D036E00C23A1
:103E7000BFA20A2140200094FEF71CFE2EE00C2376
:103E8000BCA20A2140200094FEF714FE26E00C2379
:103E9000B9A20A2140200094FEF70CFE1EE00C237C
:103EA000B6A20A2140200094FEF704FE16E00C237F
:103EB000B3A20A2140200094FEF7FCFD0EE00C2383
:103EC000B0A20A2140200094FEF7F4FD06E00C2386
:103ED000ADA20A2140200094FEF7ECFDB9F80000E5
:103EE000B0FBF5F105FB110032286FD203200090E2
:103EF00016234E2208210020FCF7A8FE0C25CDE950
:103F00000154A2A000902B463C220A210020FEF77B
:103F1000A1FEA1480078012816D002281FD003284E
:103F200028D0042831D005283AD0062843D00728C5
:103F30004DD0082856D009285FD00A2868D00B2811
:103F400073D00C287CD085E0CDE9015493A00C23DC
:103F5000009018220A211846FEF77CFE7AE0CDE98F
:103F6000015490A00C23009018220A211846FEF755
:103F700071FE6FE0CDE901548CA00C230090182253
:103F80000A211846FEF766FE64E0CDE9015489A0D7
:103F90000C23009018220A211846FEF75BFE59E018
:103FA000CDE9015485A00C23009018220A2118465F
:103FB000FEF750FE4EE0CDE9015482A00C230090A4
:103FC00018220A211846FEF745FE43E001E2CDE93A
:103FD00001547EA00C23009018220A211846FEF7F7
:103FE00039FE37E0CDE901547AA00C230090182265
:103FF0000A211846FEF72EFE2CE0CDE9015477A0E9
:104000000C23009018220A211846FEF723FE21E017
:10401000CDE9015473A00C23009018220A21184600
:10402000FEF718FE16E000E00AE0CDE901546FA0AB
:104030000C23009018220A211846FEF70BFE09E017
:10404000CDE901546BA00C23009018220A211846D8
:10405000FEF700FE6948007801283AD0022843D0D4
:1040600003284CD0042855D0052854D0062853D016
:10407000072852D0082851D0092850D00A284FD0FC
:104080000B284ED00C284DD00D284CD00E284BD0EC
:104090000F284AD0102849D0112848D0122847D0DC
:1040A000132846D0142845D0152844D0162843D0CC
:1040B000172842D0182841D0192840D01A283FD0BC
:1040C0001B283ED01C283DD01D283CD01E283BD0AC
:1040D000CCE1CDE901544AA000900C2318220A211A
:1040E0003020FEF7B7FDC1E1CDE9015446A00090B4
:1040F0000C2318220A213020FEF7ACFDB6E1CDE9F1
:10410000015443A000900C2318220A213020FEF70E
:10411000A1FDABE180E08AE094E09EE0A8E0B2E09F
:10412000BCE0C6E0D1E0DCE0E6E0F0E0FAE004E18B
:104130000EE118E122E12CE136E140E14AE154E1EF
:104140005EE168E172E17CE186E100003C00002074
:104150003B0000203A0000203D0000208876000847
:104160003E000020420000203230000040000020CD
:10417000C8D50000C1F90000CEE50000CBC40000A6
:10418000C8FD0000B6FE0000D2BB0000C5A920207B
:104190002020D4C2000000000E0400202020D2BB4A
:1041A000000000002020B6FE000000002020C8FD16
:1041B000000000002020CBC4000000002020CEE53D
:1041C000000000002020C1F9000000002020C6DF10
:1041D000000000002020B0CB000000002020BEC561
:1041E000000000002020CAAE00000000CAAED2BB12
:1041F00000000000CAAEB6FE000000000F04002060
:10420000B3F5D2BB00000000B3F5B6FE000000001D
:10421000B3F5C8FD00000000CDE901549EA0009058
:104220000C2318220A213020FEF714FD1EE1CDE9EF
:1042300001549BA000900C2318220A213020FEF785
:1042400009FD13E1CDE9015497A000900C23182239
:104250000A213020FEF7FEFC08E1CDE9015494A0CC
:1042600000900C2318220A213020FEF7F3FCFDE019
:10427000CDE9015490A000900C2318220A2130208F
:10428000FEF7E8FCF2E0CDE901548DA000900C238C
:1042900018220A213020FEF7DDFCE7E0CDE90154C9
:1042A00089A000900C2318220A213020FEF7D2FCAE
:1042B000DCE0AFF2C800CDE9015400900C231822D5
:1042C0000A213020FEF7C6FCD0E0AFF2D800CDE9DD
:1042D000015400900C2318220A213020FEF7BAFC6A
:1042E000C4E0CDE901547AA000900C2318220A21E1
:1042F0003020FEF7AFFCB9E0CDE9015476A0009084
:104300000C2318220A213020FEF7A4FCAEE0CDE9F0
:10431000015473A000900C2318220A213020FEF7CC
:1043200099FCA3E0CDE901546FA000900C23182262
:104330000A213020FEF78EFC98E0CDE901546CA0F4
:1043400000900C2318220A213020FEF783FC8DE018
:10435000CDE9015468A000900C2318220A213020D6
:10436000FEF778FC82E0CDE9015465A000900C23B3
:1043700018220A213020FEF76DFC77E0CDE90154C8
:1043800061A000900C2318220A213020FEF762FC65
:104390006CE0CDE901545EA000900C2318220A21A4
:1043A0003020FEF757FC61E0CDE901545AA000909F
:1043B0000C2318220A213020FEF74CFC56E0CDE9F0
:1043C000015457A000900C2318220A213020FEF738
:1043D00041FC4BE0CDE9015453A000900C2318227E
:1043E0000A213020FEF736FC40E0CDE9015450A010
:1043F00000900C2318220A213020FEF72BFC35E018
:10440000CDE901544CA000900C2318220A21302041
:10441000FEF720FC2AE0CDE9015449A000900C23CE
:1044200018220A213020FEF715FC1FE0CDE90154C7
:1044300045A000900C2318220A213020FEF70AFC28
:1044400014E0CDE9015442A000900C2318220A2167
:104450003020FEF7FFFB09E0CDE901543EA00090BB
:104460000C2318220A213020FEF7F4FB0020FCF771
:1044700000F90721B0FBF1F03949CDE90010002126
:1044800001230E220846FDF7F5FAFFF709FCBDE807
:10449000FE4FFEF7FBBA0000B3F5CBC400000000EE
:1044A000B3F5CEE500000000B3F5C1F9000000004F
:1044B000B3F5C6DF00000000B3F5B0CB000000008C
:1044C000B3F5BEC500000000B3F5CAAE00000000A1
:1044D000CAAEC8FD00000000CAAECBC40000000098
:1044E000CAAECEE500000000CAAEC1F9000000006F
:1044F000CAAEC6DF00000000CAAEB0CB00000000AC
:10450000CAAEBEC500000000B6FECAAE0000000084
:10451000D8A5D2BB00000000D8A5B6FE0000000060
:10452000D8A5C8FD00000000D8A5CBC4000000003D
:10453000D8A5CEE500000000D8A5C1F90000000014
:10454000D8A5C6DF00000000D8A5B0CB0000000051
:10455000D8A5BEC500000000C8FDCAAE000000001E
:10456000987500083EB546A0FEF764FE0020FBF7F4
:10457000FDFF014647A0FEF75DFE0120FBF7F6FFB9
:10458000014647A0FEF756FE0220FBF7EFFF01466B
:1045900046A0FEF74FFE0320FBF7E8FF014646A0CA
:1045A000FEF748FE0420FBF7E1FF014645A0FEF7B9
:1045B00041FE0520FBF7DAFF014645A0FEF73AFE73
:1045C0000020FBF7D3FF0F280ED80120FBF7CEFF0A
:1045D0000F2809D80220FBF7C9FF0F2804D80320B1
:1045E000FBF7C4FF0F2849D900241025CDE9015459
:1045F0003AA000902B46702221462046FEF72AFB67
:10460000CDE9015439A010230090802219460020E2
:10461000FEF720FBCDE9015439A000901023802241
:1046200020210020FEF716FBCDE9015439A00090AF
:104630001023502230210020FEF70CFBFEF726FA53
:10464000EC02374D21462846FCF706FD0028F9D13B
:104650006420FFF7F1FA21462846FCF7FDFC00280C
:10466000F0D130490120087021462846FCF7F4FCBF
:104670000028F9D0BDE83E40FFF78AB93EBD0000F2
:10468000B6C1C8A13234433032B2BFB7D6CAFDBEBC
:10469000DD0D0A0062797465303D2564200D0A0045
:1046A00062797465313D2564200D0A006279746574
:1046B000323D2564200D0A0062797465333D25641E
:1046C000200D0A0062797465343D2564200D0A00CE
:1046D00062797465353D2564200D0A00C9E8D6C3AA
:1046E000CAFDBEDDD3D0B4EDCEF30000CFB5CDB35F
:1046F000B2BBC4DCD5FDB3A3C6F4B6AF0000000066
:10470000B0B4A1B0B2CBB5A5BCFCA1B1C6F4B6AFF4
:1047100000000000B3F5CABCBBAFB3CCD0F20000C0
:10472000000801400000002010B5FEF781F82122AA
:1047300005490648FEF7A2F804480078AA2801D0E7
:10474000012010BD002010BD00604E00160C00209E
:1047500004490A885206FCD5024AC1B2121D1180D2
:10476000704700000038014010B53C4B5A180E2825
:1047700071D2DFE800F070070F171F272F373F4770
:104780004F575F67585C00F0080008B1012010BD6A
:10479000002010BD585C00F0040008B1012010BDDD
:1047A000002010BD585C00F0020008B1012010BDCF
:1047B000002010BD585C00F0010008B1012010BDC0
:1047C000002010BD507800F0800008B1012010BD1D
:1047D000002010BD507800F0400008B1012010BD4D
:1047E000002010BD507800F0200008B1012010BD5D
:1047F000002010BD507800F0100008B1012010BD5D
:10480000002010BD507800F0080008B1012010BD54
:10481000002010BD507800F0040008B1012010BD48
:10482000002010BD507800F0020008B1012010BD3A
:10483000002010BD507800F0010008B1012010BD2B
:10484000002010BD907800F0800008B1012010BD5C
:10485000002010BDFFE70020FBE700008E79000874
:1048600010B50D4814210088B0FBF1F201FB1200D5
:1048700001280FD10949481EFCF715F9074C08A07B
:10488000241FE178FEF7D6FC2179BDE8104007A08F
:10489000FEF7D0BC10BD0000420000204D000020FB
:1048A000CEC2B6C8D6B53D25640D0A00CAAAB6C8A0
:1048B0003D25640D0A0000002DE9FE4F002400F0A4
:1048C00059F98A20FCF79CFE01465CA0FEF7B2FC79
:1048D0008A20FCF77FFE01465BA0FEF7ABFC0127B8
:1048E0000C254FF014090026DFF868A1DFF8688175
:1048F00000F030F900F01CFE98F8000098F8011064
:1049000088427AD01020CDE9010654A100910346D7
:1049100060220021FEF79EF952A08DE8A1000C2331
:10492000302218211020FEF795F951A08DE8A10042
:104930000C2318221C217020FEF78CF98A20FCF72A
:104940005FFECDE90057024604231C215020FDF7ED
:1049500041F848A08DE8A1000C23182228217020DE
:10496000FEF778F98A20FCF735FEB0F5004F15D236
:104970008A20FCF72FFEB0FBF9F2CDE900570423A3
:1049800028215020FDF726F83BA08DE8A1000C233C
:10499000302226211020FEF75DF918E08A20FCF76E
:1049A00019FE4FF6FB71081A90FBF9F082B2CDE9BF
:1049B0000057042328215020FDF70CF831A08DE882
:1049C000A1000C23302226211020FEF743F9FEF728
:1049D0005DF89AF80000012818D0022820D003289A
:1049E00028D004280BD00120FFF726F998F8000002
:1049F00098F8011088427FF47BAFBDE8FE8F8AF8FB
:104A0000006000F0B7F8FBF79FFE71E78AF80060DE
:104A100000F0B0F8641EA4B2FF2CF6D13C2467E786
:104A20008AF8006000F0A6F8641CA4B23C2CECD913
:104A300000245DE78AF80060DFE70000B5E7D1B940
:104A40003D25640D0A000000B5E7C1F73D25640D62
:104A50000A0000004800002049000020494E413271
:104A600032360000B5E7B3D8B5E7D1B90000000091
:104A70006D5600006D410000B7C5B5E7B5E7C1F759
:104A800000000000B3E4B5E7B5E7C1F7000000009F
:104A900070B505460C464FF400410948FCF7E3FAAF
:104AA000641CB035E8B2FEF753F9C4F303101030BC
:104AB000FEF74EF904F00F00BDE87040FEF748B96C
:104AC000001001404FF4A060FDF75EFDFEF7CCF949
:104AD000FFF794F84FF4165001F006F914A0FEF712
:104AE000A9FB17A0FEF7A6FB41F61F414FF47A7011
:104AF000FEF71CFAFFF718FEFBF714FDFCF74CFE5F
:104B0000FCF7ECFDFDF740FCFCF78DFDFBF77DFDB0
:104B1000FBF776FFFCF752F9FEF73AFFFFF722FDAD
:104B20004FF400710A48FCF7A0FAFDF74BFCFCE7D4
:104B3000CFB5CDB3C6F4B6AFD6D02E2E2E0D0A000B
:104B40002E2E2E2E2E2E2E2E2E2E2E2E2E0D0A00F8
:104B5000000C014010B5002000F092FD00F00F01A4
:104B6000000900EB800001EB40000149487010BDD6
:104B70004900002010B50520FBF7F8FC0446002092
:104B800000F07EFD00F00F01000900EB800001EB5A
:104B90004000064A2044C0B210703C2805D33C2196
:104BA000B0FBF1F301FB1300107010BD49000020B1
:104BB000FFF7D0B82DE9FE4F002500260027A846B4
:104BC000A946AA46FBF7C0FD3148007801280AD063
:104BD00002280AD003280AD004280AD005280BD0BE
:104BE00006280CD00DE002250BE0022609E0022782
:104BF00007E04FF0020804E04FF0020901E04FF037
:104C0000020A102423A1CDE90014002002900146DD
:104C1000234640222020FEF71DF821A08DE8310018
:104C20001023402219460020FEF714F81EA08DE83C
:104C300051001023402219465020FEF70BF81CA00B
:104C40008DE891001023402220210020FEF702F879
:104C500019A08DE811011023402220215020FDF7DA
:104C6000F9FF17A08DE81102102340223021002007
:104C7000FDF7F0FF14A08DE811041023402230212D
:104C80005020FDF7E7FFBDE8FE4FFDF7FFBE000037
:104C900050000020B9A6C4DCB2CBB5A500000000CE
:104CA000312EB5F7CAB10000322EB5F7B2CE0000F2
:104CB000332ECFD4CABE0000342EC6E4CBFC000095
:104CC000352EB9A4BEDF0000362ECFB5CDB300001F
:104CD000FEB5002400250026FBF736FD1D480078B0
:104CE000072804D0082804D0092804D004E00224AE
:104CF00002E0022500E00226102717A1CDE90017E7
:104D00000020029001463B4640222020FDF7A2FFF2
:104D1000CDE9017413A010230090602219460020F1
:104D2000FDF798FFCDE9017511A0009010236022D6
:104D300020210020FDF78EFFCDE901760FA0009025
:104D40001023602230210020FDF784FFBDE8FE40E3
:104D5000FDF79CBE50000020CAB1BCE4C9E8D6C330
:104D600000000000312ECAD6B6AFB5F7BDDA00009C
:104D7000322ED7D4B6AFB8FCD0C20000332ED4B692
:104D8000B3CCB8FCD0C2000010B500F0C3FC02499F
:104D90000720087010BD00005000002070477047C9
:104DA00070477047704700002DE9FE4F0024002532
:104DB00000260027A046A146FBF7C6FC3D48007828
:104DC0000D280AD00E280AD00F280AD010280AD0A1
:104DD00011280AD012280BD00CE002240AE0022588
:104DE00008E0022606E0022704E04FF0020801E096
:104DF0004FF0020900214FF0100A0D282ED00E2886
:104E00002CD00F282AD0CDE901A12BA0009010238F
:104E100040222020FDF71EFFCDE901A729A0102385
:104E20000090602219460020FDF714FFCDE901A88B
:104E300027A000901023602220210020FDF70AFF08
:104E4000CDE901A924A00090102360223021002088
:104E5000FDF700FFBDE8FE4FFDF718BECDE901A14B
:104E600015A000901023402200212020FDF7F2FE23
:104E7000CDE901A41AA01023009060221946002059
:104E8000FDF7E8FECDE901A518A0009010236022EF
:104E900020210020FDF7DEFECDE901A616A000903E
:104EA0001023702230210020FDF7D4FEBDE8FE4F14
:104EB000FDF7ECBD50000020CFB5CDB3B2CECAFD9A
:104EC00000000000342EB2CBB5A5CAB1BCE400008E
:104ED000352ED4A4D6C63200362ED4A4D6C633007E
:104EE000312EB1B3B9E2C1C1B6C80000322EB1B3A0
:104EF000B9E2CAB1BCE40000332EB6D4B1C8B6C81A
:104F0000B5F7BDDA0000000010B5FEF713FB02494B
:104F10000D20087010BD00005000002010B5FEF7F5
:104F20004BFB02490E20087010BD0000500000200D
:104F300010B5FEF7BDFB02490F20087010BD000040
:104F40005000002010B500F00FFB0249102008703F
:104F500010BD000050000020704770472DE9FE4F43
:104F60000024002500260027A046A146FBF7ECFB05
:104F70003D48007813280AD014280AD015280AD0F2
:104F800016280AD017280AD018280BD00CE00224C3
:104F90000AE0022508E0022606E0022704E04FF0BE
:104FA000020801E04FF0020900214FF0100A132817
:104FB0002ED014282CD015282AD0CDE901A12BA061
:104FC0000090102340222020FDF744FECDE901A7E8
:104FD00029A010230090602219460020FDF73AFE18
:104FE000CDE901A827A000901023602220210020F5
:104FF000FDF730FECDE901A924A000901023602226
:1050000030210020FDF726FEBDE8FE4FFDF73EBD36
:10501000CDE901A115A000901023402200212020FD
:10502000FDF718FECDE901A41AA01023009060221C
:1050300019460020FDF70EFECDE901A518A000904D
:105040001023602220210020FDF704FECDE901A6F7
:1050500016A000901023702230210020FDF7FAFDE9
:10506000BDE8FE4FFDF712BD50000020CFB5CDB317
:10507000B2CECAFD00000000342EB2CBB5A5CAB135
:10508000BCE40000352ED4A4D6C63200362ED4A4FB
:10509000D6C63300312EB1B3B9E2C1C1B6C80000E3
:1050A000322EB1B3B9E2CAB1BCE40000332EB6D49B
:1050B000B1C8B6C8B5F7BDDA000000007047704748
:1050C00070477047704770472DE9FE4F0024002558
:1050D00000260027A046A146FBF736FB3D48007896
:1050E00019280AD01A280AD01B280AD01C280AD04E
:1050F0001D280AD01E280BD00CE002240AE002254D
:1051000008E0022606E0022704E04FF0020801E072
:105110004FF0020900214FF0100A19282ED01A284A
:105120002CD01B282AD0CDE901A12BA00090102360
:1051300040222020FDF78EFDCDE901A729A01023F4
:105140000090602219460020FDF784FDCDE901A8FA
:1051500027A000901023602220210020FDF77AFD77
:10516000CDE901A924A00090102360223021002065
:10517000FDF770FDBDE8FE4FFDF788BCCDE901A14C
:1051800015A000901023402200212020FDF762FD91
:10519000CDE901A41AA01023009060221946002036
:1051A000FDF758FDCDE901A518A00090102360225D
:1051B00020210020FDF74EFDCDE901A616A00090AC
:1051C0001023702230210020FDF744FDBDE8FE4F82
:1051D000FDF75CBC50000020CFB5CDB3B2CECAFD08
:1051E00000000000342EB2CBB5A5CAB1BCE400006B
:1051F000352ED4A4D6C63200362ED4A4D6C633005B
:10520000312EB1B3B9E2C1C1B6C80000322EB1B37C
:10521000B9E2CAB1BCE40000332EB6D4B1C8B6C8F6
:10522000B5F7BDDA0000000070477047704770475F
:10523000704770472DE9FE4F002400250026002707
:10524000A046A146FBF780FA3D4800781F280AD007
:1052500020280AD021280AD022280AD023280AD0C0
:1052600024280BD00CE002240AE0022508E00226E4
:1052700006E0022704E04FF0020801E04FF00209C7
:1052800000214FF0100A1F282ED020282CD02128D2
:105290002AD0CDE901A12BA000901023402220208C
:1052A000FDF7D8FCCDE901A729A0102300906022CA
:1052B00019460020FDF7CEFCCDE901A827A00090FB
:1052C0001023602220210020FDF7C4FCCDE901A9B4
:1052D00024A000901023602230210020FDF7BAFCAA
:1052E000BDE8FE4FFDF7D2BBCDE901A115A00090AE
:1052F0001023402200212020FDF7ACFCCDE901A4C1
:105300001AA010230090602219460020FDF7A2FC8D
:10531000CDE901A518A000901023602220210020D3
:10532000FDF798FCCDE901A616A00090102370228D
:1053300030210020FDF78EFCBDE8FE4FFDF7A6BB37
:1053400050000020CFB5CDB3B2CECAFD00000000A2
:10535000342EB2CBB5A5CAB1BCE40000352ED4A41E
:10536000D6C63200362ED4A4D6C63300312EB5E7C9
:10537000B3D8D0C5CFA20000322ECEC2CAAAD0C5A3
:10538000CFA20000332EB6D4B1C8B6C8B5F7BDDA87
:1053900000000000704770477047704770477047C3
:1053A0002DE9FE4F0024002500260027A046A14637
:1053B000FBF7CAF93D48007825280AD026280AD0EC
:1053C00027280AD028280AD029280AD02A280BD032
:1053D0000CE002240AE0022508E0022606E002278B
:1053E00004E04FF0020801E04FF0020900214FF005
:1053F000100A25282ED026282CD027282AD0CDE9FF
:1054000001A12BA00090102340222020FDF722FCB8
:10541000CDE901A729A010230090602219460020A1
:10542000FDF718FCCDE901A827A000901023602209
:1054300020210020FDF70EFCCDE901A924A0009059
:105440001023602230210020FDF704FCBDE8FE4F50
:10545000FDF71CBBCDE901A115A00090102340224F
:1054600000212020FDF7F6FBCDE901A41AA01023AE
:105470000090602219460020FDF7ECFBCDE901A564
:1054800018A000901023602220210020FDF7E2FBED
:10549000CDE901A616A00090102370223021002033
:1054A000FDF7D8FBBDE8FE4FFDF7F0BA5000002035
:1054B000B8DFBCB6B2CECAFD00000000342E4144B5
:1054C00043D0C5CFA2000000352ED4A4D6C63200EA
:1054D000362ED4A4D6C63300312EB5E7C1F7D0C5D9
:1054E000CFA20000322EB5E7B3D8D0C5CFA20000BE
:1054F000332ECEC2CAAAB6C8D0C5CFA200000000C3
:1055000010B5FFF7D9F902492520087010BD000039
:105510005000002010B5FEF74DF902492620087012
:1055200010BD000050000020704770477047704762
:105530001CB50C4B187898705978884201D23C30D1
:1055400098709878401AC2B29A7001200C21CDE967
:105550000010022334210020FCF73CFABDE81C4077
:10556000FDF794BA490000202DE9FE43FFF702FB46
:105570000520FAF7FBFF0446DFF8B88000262E4D21
:10558000FFF7E8FAFFF7D4FF98F8000098F8011049
:1055900088424DD01027CDE9017628A000903B46E7
:1055A000602200213846FDF755FBCDE9017627A0A2
:1055B00010230090302218211846FDF74BFBCDE94F
:1055C00000760223224618215020FCF703FAFDF74B
:1055D0005DFA2878012818D002281FD0032826D089
:1055E000042803D00120FEF727FBC9E72E70FFF740
:1055F000C1FA21460520FAF7DAFF4FF4167115A01B
:10560000FDF74AFAFBF7A0F8BAE72E70FFF7B2FAF7
:10561000641EE4B2042CB3D13B24B1E72E70FFF733
:10562000A9FA641CE4B23C2CAAD10524A8E72E7088
:10563000BDE8FE834900002048000020B2CBB5A59C
:10564000CAB1BCE4B5F7BDDA00000000B5B1C7B01F
:10565000D6B50000C9E8D6C3D2D1B1A3B4E60000E4
:1056600010B5FBF751FFD120FBF71AFFFBF786FFC0
:105670000120FBF7DFFE0446FBF762FF204610BD6A
:1056800010B50446FBF740FFD020FBF709FFFBF7FE
:1056900075FF2046FBF704FFFBF770FFFFF7E0FF05
:1056A000022C01D100F03F0010BD000010B5002019
:1056B000FFF7E6FFFAF79AFF154C60710120FFF73C
:1056C000DFFFFAF793FF20710220FFF7D9FFFAF707
:1056D0008DFFE0702078A278617800F5FA60FCF721
:1056E0005DFFA0710420FFF7CBFFFAF77FFFA070EA
:1056F0000520FFF7C5FFFAF779FF60700620FFF776
:10570000BFFF02461046FAF771FF2070104610BD29
:105710003A0000202DE9FE4F0024FFF72BFADFF8B6
:10572000FCA3DFF8FC934FF0020B00264FF00108BA
:10573000FFF710FAFFF7FCFEFA4D287869788842E7
:105740007ED0FFF7B3FF99F8000000F00F010009C9
:1057500000EB800001EB4000C0B29AF8001001F0AD
:105760000F02090901EB810102EB4101C9B20228D4
:1057700002D18A0700D01C27022802D1890700D154
:105780001D2701280BD0032809D0052807D007289A
:1057900005D0082803D00A2801D00C2800D11F27E3
:1057A000042805D0062803D0092801D00B2800D1F1
:1057B0001E27DD49087801287ED002287DD00328E5
:1057C0007CD004287BD00120FEF736FA287869784F
:1057D000884235D0FAF7B8FF1025D4A08DE86100D3
:1057E00000212B4680220846FDF734FAD3A08DE82D
:1057F00061001023802220210020FDF72BFAD1A088
:105800008DE861001023202230211846FDF722FA8E
:10581000002C7DD0CDE9005602239AF8002000210B
:105820001020FCF7D7F8012C73D0CDE900560223E5
:1058300099F8002000212820FCF7CCF8022C00E089
:1058400056E167D0C148CDE9005602780223002115
:105850004020FCF7BFF8032C7ED0BD48CDE90056B0
:105860000278022320210020FCF7B4F8042C74D025
:10587000B848CDE900560278022320211820FCF711
:10588000A9F8052C6AD0B448CDE900560278022365
:1058900020213020FCF79EF8B0480078072874D00B
:1058A000062873D0052872D0042871D0032870D040
:1058B00002286FD0012803E019E09DE016E10AE01C
:1058C0007FF436AF1023A6A200217020CDF800800F
:1058D000FDF7F0F82CE70E70FFF74CF9FAF734FFFC
:1058E000641CE4B2062C7FF475AF002472E70E70DE
:1058F000FFF740F9FAF728FFECB1012C32D0022C67
:1059000049D0032C58D0042C66D0052CEED102E0EF
:10591000F0E02BE13DE190490878401CC0B20870EE
:105920003B2800D90E700878FBF724FD01460020C3
:1059300000F02AFA4EE79AF80000401CC0B28AF83C
:105940000000632801D98AF800609AF80000FBF78C
:1059500011FD0146062002E02EE140E152E100F097
:1059600013FA37E799F80000401CC0B289F800002C
:105970000C2801D989F8008099F80000FBF7FAFC9F
:105980000146052000F000FA24E74EE156E15EE111
:1059900066E16EE176E16D490878401CC0B208709E
:1059A000B84201D981F800800878FBF7E3FC014692
:1059B000042000F0E9F90DE765490878401CC0B201
:1059C0000870172800D90E700878FBF7D3FC014641
:1059D000022000F0D9F9FDE65E490878401CC0B20B
:1059E00008703B2800D90E700878FBF7C3FC01460D
:1059F000012000F0C9F9EDE60E70FFF7BBF8FAF7E9
:105A0000A3FE8CB1012C23D0022C34D0032C41D026
:105A1000042C50D0052C8DD14F490878401EC0B2BF
:105A20000870FF2858D059E09AF80000401EC0B214
:105A30008AF80000FF2802D163208AF800009AF853
:105A40000000FBF797FC0146062000F09DF9C1E637
:105A500099F80000401EC0B289F8000010B90C206F
:105A600089F8000099F80000FBF784FC0146052046
:105A700000F08AF9AEE635490878401EC0B20870D9
:105A800000B90F700878FBF775FC0146042000F0A0
:105A90007BF99FE62E490878401EC0B20870FF28A7
:105AA00001D1172008700878FBF764FC014602203A
:105AB00000F06AF98EE627490878401EC0B20870E7
:105AC000FF2801D13B2008700878FBF753FC014602
:105AD000012000F059F97DE63B2008700878FBF7BB
