:020000040800F2
:10000000F0070020B525000851030008530300083D
:10001000570300085B0300085F03000800000000AE
:100020000000000000000000000000006303000862
:10003000650300080000000067030008690300086A
:10004000CF250008CF250008CF250008CF250008C0
:10005000CF250008CF250008CF250008CF250008B0
:10006000CF250008CF250008CF250008CF250008A0
:10007000CF250008CF250008CF250008CF25000890
:10008000CF250008CF250008CF250008CF25000880
:10009000CF250008CF250008CF250008CF25000870
:1000A000CF250008CF250008CF250008CF25000860
:1000B000CF2500082727000861270008CF25000862
:1000C000CF250008CF250008CF250008CF25000840
:1000D000CF2500087B4C0008934C0008E34C000837
:1000E000CF250008CF250008CF25000800F002F832
:1000F00000F071F80AA090E8000C82448344AAF151
:100100000107DA4501D100F066F8AFF2090EBAE84E
:100110000F0013F0010F18BFFB1A43F0010318473B
:10012000CC810000EC810000103A24BF78C878C16F
:10013000FAD8520724BF30C830C144BF04680C60ED
:10014000704700000023002400250026103A28BF35
:1001500078C1FBD8520728BF30C148BF0B60704739
:10016000662907F03E87652907F03B87692904F077
:10017000BB86642904F0B886752904F0B5866F291A
:1001800004F04C87782904F071870368DB0928BFE5
:1001900041F08001632905F09A84732905F09F845A
:1001A000E32905F0BD84002070471FB59DE80300DA
:1001B00005F0BCF905F0E4FC04000020002107F084
:1001C00091F8401C60600020002107F0A1F8E06079
:1001D0001FBD10B510BD05F0F8FD1146FFF7E5FF96
:1001E00000F066F805F016FE03B4FFF7F2FF03BC5B
:1001F00004F0FEFB10B544A004F0F4FD4FF496703B
:1002000004F0C3FB42A1434805F02AF804463EA08F
:1002100004F0E8FD4FF4967004F0B7FB3CA13D48B4
:1002200005F01EF8044602F021FAC4B901203A494B
:1002300008604FF4967004F0A8FB4FF4967004F039
:10024000A4FB4FF4967004F0A0FB4FF4967004F0FA
:100250009CFB00203149C1F8800102F007FA2AA076
:1002600004F0C0FD4FF4967004F08FFB02F0FEF92D
:1002700027A1284804F0F4FF044629A004F0B2FDA9
:100280004FF4967004F081FB00202849086002F0CA
:10029000EDF927A004F0A6FD4FF4967004F075FB6D
:1002A00027A004F09FFD4FF4967004F06EFB10BD84
:1002B00004F02EFB04F096FB02F09CF94FF416506C
:1002C00004F0C2FB4FF4165004F00DFCFFF792FF50
:1002D00002F06DFA02F077FB15E020254324214659
:1002E000284602F0CCFB4FF4FA7004F04EFB02F00B
:1002F00095FD0E48006808B9012000E000200B4978
:10030000086002F0B3F9E8E741540D0A000000006C
:100310004F4B0000C3000020800121420000214219
:100320004154453026570D0A0000000080812142CB
:1003300041542B514D54444953433D300D0A000064
:1003400041542B514D54434C4F53453D300D0A0001
:10035000704700BFFEE700BFFEE700BFFEE700BF3B
:10036000FEE77047704770477047000010B500F017
:100370003DFE012000F0BFFE00BF212000F079FE0D
:100380000028FAD0102000F099F9022000F082F93C
:10039000002000F0D0FE002000F0DFFE4FF480606F
:1003A00000F0D2FE4FF46011002000F0A7FE012003
:1003B00000F0B0FE00BF392000F05BFE0028FAD04C
:1003C000022000F0AAFE00BF00F0B0FE0828FBD11A
:1003D00001211D2000F078FF10BD0CB50020019018
:1003E00000906C48006840F480306A49086000BFA3
:1003F0006848006800F4003000900198401C0190AB
:10040000009818B90198B0F5A06FF1D16148006863
:1004100000F4003010B10120009001E000200090B5
:100420000098012843D15C48006840F010005A4908
:1004300008600846006820F003000860084600686D
:1004400040F002000860534840685249486008463E
:10045000406848600846406840F48060486008464C
:10046000406820F47C1048600846406840F4E8107A
:1004700048600846006840F08070086000BF45484A
:10048000006800F000700028F9D04248406820F071
:100490000300404948600846406840F00200486058
:1004A00000BF3C48406800F00C000828F9D10CBDA2
:1004B00010B5FFF792FF10BD10B53648006840F048
:1004C0000100344908600846406834490840314911
:1004D000486008460068324908402E4908600846CE
:1004E000006820F4802008600846406820F4FE0080
:1004F00048604FF41F008860FFF7DAFF4FF000609C
:100500002849086010BD10B5002100200022214BB1
:100510005B6803F00C0121B1042906D0082928D119
:1005200007E0214B214C236027E01F4B1F4C236029
:1005300023E0184B5B6803F47010164B5B6803F400
:100540008032022303EB904022B9194B4343174CEE
:1005500023600DE00F4B5B6803F4003323B1144BB1
:100560004343124C236003E00F4B43430F4C236083
:1005700003E00D4B0D4C236000BF00BF054B5B68D3
:10058000C3F303130B4CE15C084B1B68CB40074CD7
:10059000236010BD00100240002002400000FFF860
:1005A000FFFFF6FE08ED00E000127A0000000020D8
:1005B00000093D000400002031490143314A116027
:1005C000704770B5002100230F22C47804B32D4C6E
:1005D000246804F4E064C4F5E064210AC1F1040372
:1005E000CA40447804FA03F1847814402143090195
:1005F000254C0678A155047804F01F050124AC4071
:1006000005786D11AD0005F1E025C5F8004109E060
:10061000047804F01F050124AC401C4D06787611C7
:1006200045F8264070BD1A4A0A400243154B1B1F6D
:100630001A60704739B1134A121D12680243114BF8
:100640001B1D1A6006E00F4A121D126882430D4BF3
:100650001B1D1A607047042808D14FF0E02109697A
:1006600041F004014FF0E022116107E04FF0E0217A
:10067000096921F004014FF0E02211617047000088
:100680000000FA050CED00E000E400E080E100E08D
:1006900080FFFF1F01460020FE4A106800F038006E
:1006A000084310607047FB49096821F00801F94AC6
:1006B000116011460968014311607047F5490968E6
:1006C00021F01001F34A11601146096801431160DD
:1006D0007047F148EF494860F04848607047EE487D
:1006E000EC494860ED4848607047EA48006940F0CE
:1006F0008000E84908617047E648006940F08000E2
:10070000E449086170470420E249C96801F0010129
:1007100009B101200EE0DF49C96801F0040109B107
:10072000022007E0DB49C96801F0100109B103208C
:1007300000E00420704700B502460423FFF7E3FF02
:10074000034603E0FFF7DFFF0346521E012B01D1F2
:10075000002AF7D102B90523184600BD30B504467A
:1007600004254FF43020FFF7E6FF0546042D17D18E
:10077000C848006940F00200C64908610846446163
:10078000006940F0400008614FF43020FFF7D3FFCC
:100790000546C048006941F6FD710840BD49086141
:1007A000284630BD10B504244FF43020FFF7C3FFB6
:1007B0000446042C16D1B748006940F00400B5493E
:1007C00008610846006940F0400008614FF430209D
:1007D000FFF7B1FF0446AF48006941F6FB710840DE
:1007E000AC490861204610BD00B502460423FFF75E
:1007F0008AFF034603E0FFF786FF0346521E012BE4
:1008000001D1002AF7D102B90523184600BD10B561
:1008100004244FF43020FFF7E7FF0446042C16D1E0
:100820009C48006940F004009A4908610846006944
:1008300040F0400008614FF43020FFF7D5FF044638
:100840009448006941F6FB710840924908612046CE
:1008500010BD00208F49C96901F0020109B10120D2
:1008600000E00020704730B5A5250424FFF7F1FF14
:1008700000B100254FF43020FFF75DFF0446042C43
:100880003AD1854883498860844888600846006971
:1008900040F0200008610846006940F0400008610F
:1008A0004FF43020FFF747FF0446042C1BD1794852
:1008B000006941F6DF710840764908610846006921
:1008C00040F01000086176480580E002FFF733FF32
:1008D0000446052C10D06F48006941F6EF710840BE
:1008E0006C49086108E0052C06D06A48006941F6A9
:1008F000EF71084067490861204630BD78B506466B
:100900000C46042500200090E802FFF714FF05467E
:10091000042D24D15F48006940F001005D49086161
:100920003480E802FFF707FF0546042D10D1B01C04
:100930000090200C00990880E802FFF7FCFE0546B5
:100940005448006941F6FE7108405249086106E0CA
:100950005048006941F6FE7108404E49086128463A
:1009600078BD70B504460D460426F002FFF7E3FE9D
:100970000646042E11D14748006940F00100454960
:1009800008612580F002FFF7D6FE0646414800695F
:1009900041F6FE7108403F490861304670BD70B5B0
:1009A00005460E460424E002FFF7C5FE0446042C6B
:1009B00017D1394837498860384888600846006947
:1009C00040F0100008612E80E002FFF7B4FE0446FC
:1009D000052C06D02F48006941F6EF7108402D49DB
:1009E0000861204670BD2DE9F04304464FF6FF76BE
:1009F0003746B046B1460425E443E6B2C4F30727C0
:100A0000C4F307484FEA1469E802FFF794FE05466D
:100A1000042D49D120481F49886020488860084635
:100A2000006940F010000861FF2E06D01C48083015
:100A30000680E802FFF77FFE0546042D08D1FF2F50
:100A400006D017480A300780E802FFF774FE054613
:100A5000042D0AD1B8F1FF0F07D011480C30A0F8CF
:100A60000080E802FFF767FE0546042D0AD1B9F1C0
:100A7000FF0F07D00A480E30A0F80090E802FFF7F9
:100A80005AFE0546052D0FD00248006941F6EF7168
:100A9000084007E00020024023016745AB89EFCD05
:100AA00000F8FF1F664908612846BDE8F08330B5AD
:100AB000054604244FF43020FFF73DFE0446042C85
:100AC00041D160485E4988605F4888600846006997
:100AD00040F0200008610846006940F040000861CD
:100AE0004FF43020FFF727FE0446042C22D154484F
:100AF000006941F6DF710840514908610846006904
:100B000040F0100008611DB100205049088002E04B
:100B1000A5204E4908804FF43020FFF70CFE044614
:100B2000052C10D04648006941F6EF710840444951
:100B3000086108E0052C06D04148006941F6DF71E4
:100B400008403F490861204630BDF0B505460E46D5
:100B5000174604243B483A4988603B488860E002D5
:100B6000FFF7E9FD0446042C19D13548006940F02F
:100B700010003349086147F0F800304328433349F7
:100B8000891C0880E002FFF7D6FD0446052C06D03C
:100B90002B48006941F6EF71084029490861204659
:100BA000F0BD2748C069800870472548006A704733
:100BB00000202349096801F0200109B1012000E06B
:100BC0000020704729B11E4A126902431C4B1A616A
:100BD00004E01B4A12698243194B1A6170470146AF
:100BE0000020012908D1164AD26902F001020AB197
:100BF000012008E0002006E0114AD2680A400AB14C
:100C0000012000E0002070470D49C86070470420B3
:100C10000B49C96801F0010109B101200EE0084942
:100C2000C96801F0040109B1022007E00449C9685C
:100C300001F0100109B1032000E00420704700001A
:100C40000020024023016745AB89EFCD00F8FF1F6C
:100C500010B50446CC48844208D10121042000F09C
:100C60004DFB0021042000F049FB46E0C7488442C8
:100C700008D10121082000F041FB0021082000F0EC
:100C80003DFB3AE0C248844208D10121102000F027
:100C900035FB0021102000F031FB2EE0BD488442DE
:100CA00008D10121202000F029FB0021202000F0A4
:100CB00025FB22E0B848844208D10121402000F001
:100CC0001DFB0021402000F019FB16E0B3488442D0
:100CD00008D10121802000F011FB0021802000F0CC
:100CE0000DFB0AE0AE48844207D10121801500F0D7
:100CF00005FB0021A01500F001FB10BD10B501217E
:100D0000084600F0FBFA0021012000F0F7FA10BDC0
:100D10002DE9F04102460025002600200023002492
:100D2000002791F803C00CF00F0591F803C00CF0F8
:100D3000100CBCF1000F03D091F802C04CEA05057D
:100D400091F800C0BCF1000F31D0146800202BE0F6
:100D50004FF0010C0CFA00F3B1F800C00CEA0306E6
:100D60009E4220D183004FF00F0C0CFA03F7BC43D6
:100D700005FA03FC4CEA040491F803C0BCF1280F07
:100D800006D14FF0010C0CFA00FCC2F814C00AE0C6
:100D900091F803C0BCF1480F05D14FF0010C0CFADB
:100DA00000FCC2F810C0401C0828D1D31460B1F870
:100DB00000C0BCF1FF0F34DD546800202EE000F1CC
:100DC000080C4FF0010808FA0CF3B1F800C00CEA67
:100DD00003069E4221D183004FF00F0C0CFA03F75B
:100DE000BC4305FA03FC4CEA040491F803C0BCF1CF
:100DF000280F05D100F1080C08FA0CF8C2F814808D
:100E000091F803C0BCF1480F07D100F1080C4FF076
:100E1000010808FA0CF8C2F81080401C0828CED34C
:100E20005460BDE8F0814FF6FF71018002218170AE
:100E30000421C17070470246002093680B400BB13B
:100E4000012000E0002070470146886880B27047AA
:100E500002460020D3680B400BB1012000E00020C7
:100E600070470146C86880B27047016170474161B0
:100E700070470AB1016100E041617047C16070478D
:100E80004FF480320A4382618161826182698269A2
:100E9000704702460020434B18684FF68073184095
:100EA00040EA021008433F4B186070473E49C86152
:100EB0007047F0B50A46002300240021002500F009
:100EC0000046B6F1004F02D1364EF16901E0354ED1
:100ED0007168C0F3034583B200F44016B6F5401FB5
:100EE00008D121F070612F4E766826F070662D4F84
:100EF0007E6012E000F48016B6F5801F06D103264E
:100F000006FA05F4A14341F0706106E0460D360192
:100F100003FA06F6B14341F0706122B1460D360185
:100F200003FA06F6314300F00046B6F1004F02D155
:100F30001C4EF16101E01B4E7160F0BD30B5002226
:100F40008B071C0F0F2303FA04F2164B08338C1087
:100F500053F824309343134C08348D1044F8253053
:100F600023468C1053F824308C07240F00FA04F425
:100F700023430C4C08348D1044F8253030BD0A4909
:100F8000DC3108607047000000080140000C01409F
:100F9000001001400014014000180140001C0140F5
:100FA0000020014000000140000020420E4908607E
:100FB00070470D49486070470B49886070474AF692
:100FC000AA200949086070474CF6CC4006490860E1
:100FD000704701460020044AD2680A400AB1012045
:100FE00000E000207047000000300040DF4800684B
:100FF00040F00100DD49086008464068DC490840CF
:10100000DA49486008460068DA490840D74908606C
:101010000846006820F4802008600846406820F4F4
:10102000FE0048604FF41F0088607047CF49096890
:1010300021F48031CD4A11601146096821F48021E4
:101040001160B0F5803F03D0B0F5802F0ED106E0DF
:10105000C649096841F48031C44A116007E0C349B8
:10106000096841F4A021C14A116000E000BF00BF3F
:10107000704710B501460022002300204A11012AC2
:1010800002D1BA4C236806E0022A02D1B74C236A87
:1010900001E0B64C636A01F01F02012494401C4039
:1010A0000CB1012000E0002010BD38B500200090F8
:1010B0000024002500BF3120FFF7DBFF0546009824
:1010C000401C00900098B0F5A06F01D0002DF2D028
:1010D0003120FFF7CEFF08B1012400E000242046B4
:1010E00038BD01460020A14A106820F0F80040EA0F
:1010F000C10010607047A049086070470246002098
:101100009A4B586820F47C1042EA01031843974B2D
:101110005860704798490866704701460020934A16
:10112000506820F003000843506070478F484068C3
:1011300000F00C007047014600208C4A506820F0F7
:10114000F00008435060704701460020874A50680D
:1011500020F4E06008435060704701460020834A55
:10116000506820F4605040EAC1005060704729B1D7
:101170007E4A527A02437D4B5A7204E07B4A527A8D
:1011800082437A4B5A7270477B49D8310860704766
:1011900001460020754A506820F4404008435060E2
:1011A00070470021714A20321170704A82F8201075
:1011B000012802D004280AD104E001216B4A203220
:1011C000117005E00521694A2032117000E000BF6E
:1011D00000BF70476949086070476449096A014364
:1011E000624A11627047654944390860704730B5FA
:1011F00000210022002400235C4D6D6805F00C01E5
:1012000021B1042905D0082923D105E05C4D0560F2
:1012100022E05B4D05601FE0544D6D6805F47012CF
:10122000524D6D6805F48034022505EB92421CB9DD
:10123000544D554305600BE04C4D6D6805F4003589
:101240001DB1504D5543056002E04D4D55430560BD
:1012500002E04B4D056000BF00BF444D6D6805F0D6
:10126000F0010909484D6B5C0568DD4045603F4D64
:101270006D6805F4E061090A434D6B5C4568DD402B
:1012800085603A4D6D6805F46051C90A3E4D6B5C4E
:101290004568DD40C560354D6D6805F44041890BFA
:1012A0003A4D6B5CC568B5FBF3F5056130BD29B1FE
:1012B0002E4A526902432D4B5A6104E02B4A52696F
:1012C00082432A4B5A61704729B1284A92690243E6
:1012D000264B9A6104E0254A92698243234B9A6126
:1012E000704729B1214AD2690243204BDA6104E0F8
:1012F0001E4AD26982431D4BDA61704729B11B4AED
:10130000D2680243194BDA6004E0184AD26882437B
:10131000164BDA60704729B1144A12690243134B25
:101320001A6104E0114A12698243104B1A61704736
:1013300012494039086070470F49C86470470B492B
:10134000C87170470948406A40F080700749486298
:10135000704701460020054A92680A400AB1012000
:1013600000E0002070470149887270470010024079
:101370000000FFF8FFFFF6FE0000424280044242F8
:1013800000127A0000093D00140000202400002013
:1013900010B50446FE48844208D10121C014FFF76D
:1013A000ADFF0021E014FFF7A9FFC4E0B4F1804FC6
:1013B00008D101210846FFF7AEFF00210120FFF709
:1013C000AAFFB8E0F348844208D101210220FFF7C8
:1013D000A2FF00210220FFF79EFFACE0EE4884420E
:1013E00008D101210420FFF796FF00210420FFF718
:1013F00092FFA0E0E948844208D101210820FFF7CC
:101400008AFF00210820FFF786FF94E0E448844229
:1014100008D101211020FFF77EFF00211020FFF7E7
:101420007AFF88E0DF48844208D101212020FFF7BD
:1014300072FF00212020FFF76EFF7CE0DA48844233
:1014400008D101214014FFF759FF00216014FFF774
:1014500055FF70E0D548844209D10121C804FFF747
:101460004DFF00214FF40020FFF748FF63E0D04814
:10147000844209D101210805FFF740FF00214FF404
:101480008010FFF73BFF56E0CA48844209D1012192
:101490004805FFF733FF00214FF40010FFF72EFF40
:1014A00049E0C548844208D101214020FFF733FFBD
:1014B00000214020FFF72FFF3DE0C048844208D1C3
:1014C00001218020FFF727FF00218020FFF723FF65
:1014D00031E0BB48844208D101218015FFF71BFF92
:1014E0000021A015FFF717FF25E0B648844209D177
:1014F00001210804FFF702FF00214FF48030FFF7BD
:10150000FDFE18E0B048844209D101214804FFF7EC
:10151000F5FE00214FF40030FFF7F0FE0BE0AB4882
:10152000844208D101218804FFF7E8FE00214FF42E
:101530008020FFF7E3FE10BD00220288944B984202
:101540000ED0994B98420BD0B0F1804F08D0914B00
:10155000984205D0904B984202D0904B984204D1CB
:101560004FF68F731A404B881A438D4B984207D021
:101570008C4B984204D04FF6FF431A40CB881A4355
:1015800002808B8883850B880385814B98420BD022
:10159000854B984208D08B4B984205D08A4B984295
:1015A00002D08A4B984201D10B7A038601238382B1
:1015B000704770B5002400220023058C4FF6FE769C
:1015C00035400584028C8388048B4FF68F752C4040
:1015D000B51E2C400D882C43751E2A400D892A43C8
:1015E0004D882A436A4DA8420BD06F4DA84208D0BF
:1015F000744DA84205D0744DA84202D0734DA84244
:1016000013D14FF6F7752A404D892A434FF6FB75E3
:101610002A408D882A434FF6FF652B404FF6FF5531
:101620002B408D892B43CD892B4383800483CD8828
:101630008586028470BD70B5002400220023058CCD
:101640004FF6EF7635400584028C8388048B48F68C
:10165000FF752C404FF6FF452C400D884FF6FF7666
:1016600006EA05252C434FF6DF752A400D8906EA68
:1016700005152A434D8806EA05152A43444DA8421C
:1016800002D0494DA8421DD14FF67F752A404D89A1
:101690004FF6FF7606EA05152A434FF6BF752A4036
:1016A0008D8806EA05152A434FF6FF352B404FF289
:1016B000FF752B408D8906EA85052B43CD8906EA07
:1016C00085052B4383800483CD880587028470BD04
:1016D00070B5002400220023058C4FF6FF663540CC
:1016E0000584028C8388848B4FF68F752C404FF6CF
:1016F000FC752C400D882C434FF6FF552A400D8970
:101700004FF6FF7606EA05252A434D8806EA0525A9
:101710002A431F4DA84202D0234DA8421DD14FF2AB
:10172000FF752A404D894FF6FF7606EA05252A43C4
:101730004FF6FF352A408D8806EA05252A434EF6E6
:10174000FF752B404DF6FF752B408D8906EA051578
:101750002B43CD8906EA05152B4383808483CD88EE
:101760008587028470BD70B5002200230024058C9B
:101770004EF6FF7635400584038C8488828B48F6CC
:10178000FF752A404FF6FF452A400D8820E00000F3
:10179000002C01400004004000080040000C004004
:1017A000001000400014004000340140004C014093
:1017B000005001400054014000180040001C00404F
:1017C000002000400040014000440140004801402A
:1017D0004FF6FF7606EA05252A434DF6FF752B40A6
:1017E0000D8906EA05352B434D8806EA05352B435E
:1017F000FA4DA84202D0FA4DA84208D14BF6FF7527
:101800002C408D894FF6FF7606EA85152C4384809F
:101810008283CD88A0F84050038470BD828B4FF244
:10182000FF331A408283828B4FF6FF7303EA012352
:101830001A4382837047F0B50C46154600220021FA
:101840000026078C4EF6FF7C07EA0C070784828B84
:10185000018C4FF6FF7707EA043640F6FF473A401F
:101860004FF6FF7707EA05273A434FF6FF7707EA77
:1018700003373A43D94FB8420ED0D94FB8420BD0B4
:10188000B0F1804F08D0D74FB84205D0D64FB842FC
:1018900002D0D64FB84206D14DF6FF77394046F414
:1018A0008057394305E047F6FF57394044F48057E5
:1018B000394382830184F0BD828B4FF6F3731A4063
:1018C0008283828B0A4382837047F0B50C461546AB
:1018D000002200210026078C4FF6FF6C07EA0C0758
:1018E0000784828B018C4FF6FF7707EA04264FF6B8
:1018F0000C773A404FF6FF7707EA03172F433A4336
:10190000B64FB8420ED0B64FB8420BD0B0F1804FB0
:1019100008D0B44FB84205D0B34FB84202D0B34F4D
:10192000B84206D14FF6FF57394046F48077394325
:1019300005E04FF2FF57394044F480773943828302
:101940000184F0BD028B4FF2FF331A400283028BF9
:101950004FF6FF7303EA01231A4302837047F0B581
:101960000C461546002200210026078C4FF6EF7C1E
:1019700007EA0C070784028B018C4FF6FF7707EA12
:10198000041640F6FF473A404FF6FF7707EA033761
:101990003A434FF6FF7707EA05273A438F4FB8429D
:1019A0000ED08F4FB8420BD0B0F1804F08D08D4F82
:1019B000B84205D08C4FB84202D08C4FB84206D105
:1019C0004FF6DF77394046F01007394305E04FF610
:1019D0005F77394044F01007394302830184F0BD3A
:1019E000028B4FF6F3731A400283028B0A43028381
:1019F0007047F0B50C46154600220021068C4FF6C4
:101A0000FE773E400684028B018C4FF60C76324006
:101A10007E1C06EA03162E433243704EB0420ED0AF
:101A20006F4EB0420BD0B0F1804F08D06D4EB04237
:101A300005D06D4EB04202D06C4EB04206D14FF68A
:101A4000FD76314044F00106314305E04FF6F5766E
:101A5000314044F00106314302830184F0BD70B58A
:101A600005460C465D4885420ED05D4885420BD048
:101A7000B5F1804F08D05B48854205D05A48854271
:101A800002D05A48854200D100E000BF208850B9FA
:101A90002389A28861882846FFF7ABFFE1882846A2
:101AA000FFF79EFF25E0208804280AD12389A28819
:101AB00061882846FFF753FFE1882846FFF742FF79
:101AC00017E0208808280AD12389A288618828463F
:101AD000FFF7FBFEE1882846FFF7EEFE09E02389C9
:101AE000A28861882846FFF7A6FEE1882846FFF70E
:101AF00095FE70BD2DE9F04105460C4600260127F4
:101B0000608808B9022600E00026A088012801D1DB
:101B1000022700E001272088A0B92389A2886188D4
:101B20002846FFF766FFE1882846FFF759FF23891B
:101B30003A4631462846FFF712FFE1882846FFF76C
:101B400001FF13E02389A28861882846FFF707FF79
:101B5000E1882846FFF7F6FE23893A4631462846B3
:101B6000FFF747FFE1882846FFF73AFFBDE8F0811D
:101B70000A884B881A438B881A43CB881A430B89EF
:101B80001A434B891A438B891A43A0F844207047A3
:101B90004FF6FF71818000210180C1804180017278
:101BA00070470021018041808180C1800181418195
:101BB0008181C181704700210180418001218180A4
:101BC0000021C18001817047002101804180818016
:101BD000C18001814181818170470000002C01405A
:101BE000003401400004004000080040000C0040A8
:101BF00021B1028842F00102028004E002884FF61F
:101C0000FE731A400280704731B1B0F8442042F4AC
:101C10000042A0F8442005E0B0F84420C2F30E02D0
:101C2000A0F8442070471AB183890B43838102E0F6
:101C300083898B43838170478182704741EA020325
:101C4000A0F8483070471AB183890B43838102E0C2
:101C500083898B438381704701894FF6F872114065
:101C6000018170470A46002101894FF68F731940A0
:101C700011430181704730B504460D462946204680
:101C8000FFF7F0FF208940F00700208130BD2DE9EB
:101C9000F04104460D4616461F46602D06D13B46D0
:101CA000012231462046FFF75AFE05E03B4601225D
:101CB00031462046FFF79DFE29462046FFF7D2FF1A
:101CC000208940F007002081BDE8F08130B50C4646
:101CD00000210189C9B24FF6FF7505EA03251543B6
:101CE00025432943018130BD2DE9F04105460E46CB
:101CF00017469846002443463A4631462846FFF7A1
:101D0000E5FF2C894FF6F870044044F007044FF6C5
:101D10008F70044044F070042C81BDE8F081F0B570
:101D200004460D4616461F463B4632462946204687
:101D3000FFF7CCFF208940F480402081F0BD018571
:101D4000828270470A46002101884FF68F7319403E
:101D5000114301807047F0B50C4615461E46002120
:101D6000002200230189028B038C4FF6F87739405B
:101D700021434FF6FC473A4040F201173A434FF6F1
:101D8000DD773B404FF6FF7707EA06172F433B43CB
:101D9000018102830384F0BD0A460021018B4FF6C6
:101DA0008F7319401143018370470A460021018B4C
:101DB00048F6FF7319404FF6FF7303EA02231943F5
:101DC000018370470A460021818B4FF68F731940BB
:101DD0001143818370470A460021818B48F6FF73C7
:101DE00019404FF6FF7303EA0223194381837047BA
:101DF00021B1028842F08002028004E002884FF69E
:101E00007F731A400280704721B1828842F0040239
:101E1000828004E082884FF6FB731A40828070470C
:101E200021B1828842F00802828004E082884FF665
:101E3000F7731A408280704721B1828842F0010214
:101E4000828004E082884FF6FE731A4082807047D9
:101E50000A460021018B4FF6F773194011430183A5
:101E600070470A460021018B4FF2FF7319404FF66D
:101E7000FF7303EA02231943018370470A460021D6
:101E8000818B4FF6F77319401143818370470A46DF
:101E90000021818B4FF2FF7319404FF6FF7303EA65
:101EA00002231943818370470A460021018B4FF6B4
:101EB000FB7319401143018370470A460021018BCF
:101EC0004FF6FF3319404FF6FF7303EA022319431D
:101ED000018370470A460021818B4FF6FB7319403E
:101EE0001143818370470A460021818B4FF6FF33EF
:101EF00019404FF6FF7303EA0223194381837047A9
:101F00000A460021018B4FF67F731940114301836C
:101F100070470A460021018BC1F30E014FF6FF7393
:101F200003EA02231943018370470A460021818B8B
:101F30004FF67F7319401143818370470A46002191
:101F4000818BC1F30E014FF6FF7303EA022319439D
:101F5000818370470A460021018C4FF6FD731940BA
:101F60001143018470470A460021018C4FF6F77334
:101F700019401143018470470A460021018C4FF635
:101F8000DF7319404FF6FF7303EA0213194301840C
:101F900070470A460021018C4FF67F7319404FF6B7
:101FA000FF7303EA02131943018470470A460021B4
:101FB000018C4FF6FF5319404FF6FF7303EA0223DB
:101FC0001943018470470A460021018C4FF2FF73C8
:101FD00019404FF6FF7303EA022319430184704747
:101FE0000A460021018C4DF6FF7319404FF6FF732E
:101FF00003EA023319430184704730B500230124FA
:102000008C40A3B2048C9C430484048C02FA01F536
:10201000ADB22C43048430BD30B5002304248C4081
:10202000A3B2048C9C430484048C02FA01F5ADB283
:102030002C43048430BD70B50346002000241846AC
:10204000183001258D40ACB21D8CA5431D8409B10B
:10205000082909D100EB6100056825F070050560CD
:102060000568154305600EE00D1FC5F34E052844B5
:10207000056825F4E045056005684FF6FF7606EA39
:1020800002263543056070BD21B1028842F002028C
:10209000028004E002884FF6FD731A400280704708
:1020A00021B1028842F00402028004E002884FF667
:1020B000FB731A400280704721B1828842F080028F
:1020C000828004E082884FF67F731A4082807047D6
:1020D00002884FF6F7731A40028002880A43028092
:1020E000704782884FF68F731A40828082880A4335
:1020F0008280704702894FF6F8731A400281028984
:102100000A430281704702894FF67F731A400281A9
:1021100002890A4302817047818470478185704734
:10212000818670470187704781877047A0F840100B
:10213000704702884FF6FF431A40028002880A4324
:10214000028070470146888E70470146088F7047AD
:102150000146888F70470146B1F84000704701463C
:10216000888C70470146088D704702460020138A0C
:102170000B400BB1012000E000207047CA430282EF
:10218000704730B50246002000230024158A05EA76
:102190000103958905EA010413B10CB1012000E0A7
:1021A000002030BDCA4302827047000010B50446CB
:1021B000FB48844209D101218803FFF79FF80021E1
:1021C0004FF48040FFF79AF832E0F648844209D194
:1021D00001214804FFF79FF800214FF40030FFF77A
:1021E0009AF825E0F048844209D101218804FFF7DC
:1021F00092F800214FF48020FFF78DF818E0EB48AB
:10220000844209D10121C804FFF785F800214FF469
:102210000020FFF780F80BE0E548844208D1012157
:102220000805FFF778F800214FF48010FFF773F8E6
:1022300010BD2DE9F04786B005460E460024A246A3
:1022400000BFA1460027B08900B100BF2F462C8AED
:102250004CF6FF700440F08804432C82AC894EF6A3
:10226000F3100440B088318908437189084304435E
:10227000AC81AC8A4FF6FF400440B0890443AC8285
:1022800001A8FEF7B4FFC648874202D1DDF810A0CE
:1022900001E0DDF80CA0A88900F4004040B10AEB91
:1022A000CA0000EB0A1031684900B0FBF1F807E002
:1022B0000AEBCA0000EB0A1031688900B0FBF1F8A4
:1022C0006420B8FBF0F004012009642101FB1089AF
:1022D000A88900F4004040B1322000EBC900B0FBF7
:1022E000F1F000F00700044308E0322000EB091091
:1022F0006421B0FBF1F000F00F0004432C8106B024
:10230000BDE8F0874FF41651016000218180C18043
:1023100001810C21418100218181704710B5024665
:102320000020108A4FF2FF0318400B884C8823438B
:102330008C882343CC8823431843108210BD00218E
:10234000018041808180C180704721B1828942F43F
:102350000052828104E082894DF6FF731A40828127
:102360007047F0B50346002400260025002040F603
:102370006A17B94200D100BF1846C1F3421401F0F8
:102380001F06012707FA06F5012C01D10C3004E0E5
:10239000022C01D1103000E014301AB107682F432D
:1023A000076002E00768AF430760F0BD1AB1838A97
:1023B0000B43838202E0838A8B4383827047028AC5
:1023C0004FF6F0731A400282028A0A430282704773
:1023D00082894FF2FF731A40828182890A43828187
:1023E000704721B1828942F00202828104E0828931
:1023F0004FF6FD731A4082817047028A4FF6DF73F1
:102400001A400282028A0A430282704721B1028A7C
:1024100042F48042028204E0028A4BF6FF731A40C3
:1024200002827047C1F308028280704701468888A3
:10243000C0F308007047818941F001018181704734
:10244000028BD2B20283028B42EA012202837047DE
:10245000028B02F47F420283028B0A43028370479D
:1024600021B1828A42F02002828204E0828A4FF601
:10247000DF731A408282704721B1828A42F01002D3
:10248000828204E0828A4FF6EF731A40828270479C
:1024900021B1828A42F00802828204E0828A4FF6E9
:1024A000F7731A408282704721B1828942F4004258
:1024B000828103E08289C2F30E028281704721B1DA
:1024C000828A42F40062828204E0828A4FF2FF73C1
:1024D0001A4082827047828A4FF6FB731A408282CA
:1024E000828A0A438282704721B1828A42F00202C4
:1024F000828204E0828A4FF6FD731A40828270471E
:1025000002460020B1F5007F00D100BF13880B40C8
:102510000BB1012000E00020704701F40072B2F519
:10252000007F00D100BFCA430280704770B50246E9
:10253000002400230025002040F66A16B14200D195
:1025400000BFC1F3421501F01F03012606FA03F391
:10255000012D02D19689334006E0022D02D1168A60
:10256000334001E0968A33400C12012606FA04F447
:102570001688344013B10CB1012000E0002070BD7A
:1025800010B50022002340F66A14A14200D100BF1A
:102590000A1201249440A3B2DC43048010BD000061
:1025A000003801400044004000480040004C00401A
:1025B000005000400948804709480047FEE7FEE711
:1025C000FEE7FEE7FEE7FEE7FEE7FEE7FEE7FEE7E3
:1025D00004480549054A064B70470000B904000845
:1025E000ED000008F0010020F0070020F0030020BB
:1025F000F003002008B501210C20FEF765FE012044
:10260000ADF8000010208DF8030003208DF80200C3
:1026100069460A48FEF77CFB40F20110ADF8000065
:1026200010208DF8030003208DF80200694604484D
:10263000FEF76EFB01200349086008BD000C014055
:10264000000801408001214270B505460C4645F264
:102650005550FEF7ABFC2846FEF7ABFC2046FEF7D4
:10266000ABFCFEF7ACFCFEF7AFFC70BD10B5FEF79F
:10267000A6FC10BD7FB505460C4601210220FEF7E1
:1026800030FEADF80850ADF804400020ADF80A0067
:10269000ADF8060001A93848FEF74EFF01221146A9
:1026A0003548FFF7C0FA1D208DF8000000208DF896
:1026B000010003208DF8020001208DF80300684618
:1026C000FDF77FFF00212C48FFF792FA7FBD7FB511
:1026D00005460C4601210420FEF703FEADF8085024
:1026E000ADF804400020ADF80A00ADF8060001A9DD
:1026F0002248FEF721FF012211462048FFF793FAF6
:102700001E208DF8000003208DF801008DF80200D6
:1027100001208DF803006846FDF753FF012117489B
:10272000FFF766FA7FBD10B501211348FFF729FDB9
:10273000A8B101211048FFF735FD11480078401C71
:102740000F490870084600781E2808DB0020087032
:1027500001200C49087000210748FFF749FA10BD15
:1027600010B501210548FFF70CFD18B10121034800
:10277000FFF718FD10BD00000004004000080040F5
:10278000280000202900002010B5FC4802F053FA70
:10279000002404E00020F9490855601CC4B2642CF0
:1027A000F8DB0020F6490870FFF760FF10BD10B598
:1027B000F4A002F017FB4FF4967002F0E6F8F3A1D4
:1027C000EE4802F04DFDF2490860FFF7DDFF0EE034
:1027D000FFF7DAFFEBA002F005FB4FF4967002F072
:1027E000D4F8EAA1E54802F03BFDE9490860E84871
:1027F00000680028ECD0E7A002F0F4FA4FF49670DD
:1028000002F0C3F8E6A002F0EDFA4FF4967002F081
:10281000BCF8E6A1D94802F023FDDD490860FFF7C6
:10282000B3FF0EE0FFF7B0FFDDA002F0DBFA4FF4DC
:10283000967002F0AAF8DDA1D04802F011FDD4494B
:102840000860D34800680028ECD0D9A002F0CAFA8A
:102850004FF4967002F099F8CCA1C84802F000FD40
:10286000CB490860FFF790FFD5A002F0BBFA4FF408
:10287000967002F08AF8D5A1C04802F0F1FCC44974
:102880000860FFF781FF0EE0FFF77EFFCCA002F0AB
:10289000A9FA4FF4967002F078F8CCA1B74802F08C
:1028A000DFFCBB490860BA4800680028ECD0CAA029
:1028B00002F098FA4FF4967002F067F8C9A1AF4899
:1028C00002F0CEFCB24908600846006830B3084602
:1028D0000068007A30380968C979303901EB810124
:1028E00000EB4100C149087008460078632804D015
:1028F000A7480068C079303860B90AE00020BB49B9
:1029000081F87200BAA002F096F94FF4967002F0C6
:102910003CF8F3E70120B54981F87200FFF734FF76
:1029200010BD10B5B9A002F05DFA4FF4967002F038
:102930002CF8FFF729FFFFF799FE10BD10B5B7A0DF
:1029400002F050FA4FF4967002F01FF8C0A18B48C5
:1029500002F086FC8E49086008E0BDA1874802F0BD
:102960007FFC8B490860642002F00FF888480068FB
:102970000028F2D0FFF708FF10BD70B504460D46E1
:102980002A462146B6A002F02DFA70BD70B5044665
:102990000D462A462146B8A002F024FA4FF496705C
:1029A00001F0F3FF08E0BAA1744802F059FC78493D
:1029B0000860642001F0E9FF754800680028F2D043
:1029C000FFF7E2FE70BD10B5B3A3BCA2BDA1C0A0CD
:1029D00002F008FA4FF4967001F0D7FFC6A002F09B
:1029E00001FA4FF4967001F0D0FFCDA1634802F0D8
:1029F00037FC6749086005E0C9A1604802F030FC77
:102A000063490860624800680028F5D0FFF7BCFE03
:102A1000C7A002F0E7F94FF4967001F0B6FFCDA120
:102A2000564802F01DFC5A49086005E0C9A1534808
:102A300002F016FC56490860554800680028F5D099
:102A4000FFF7A2FE10BDF0B5DBB007460C461546F9
:102A5000A022C44933A802F0E8FC2B46224633A941
:102A600001A802F0CBF901A802F030FC86B2324690
:102A700001A9384602F094FCF0B25BB0F0BD70B52D
:102A8000B2B004460D46B8A1C4A002F0ABF94FF4B1
:102A9000967001F07AFF2A4621466846FFF7D3FF79
:102AA000064600200DF806006946C3A002F09AF918
:102AB00000BFC248008800F040000028F9D01A206A
:102AC000BE49091D0880642001F05FFFBCA12B48AE
:102AD00002F0C6FB2E49086005E0B9A1274802F0C4
:102AE000BFFB2B4908602A4800680028F5D023481E
:102AF00002F0A1F800202249087032B070BD2DE923
:102B0000F047C0B081460025B1A1484602F0A8FBBD
:102B100006467EB10CE0705D0D2804D1002001A9AD
:102B20004855002505E0705D01A94855681CC5B2EF
:102B3000F1E700BF01A802F07EF801A801F00CF84F
:102B4000824601A810B940B0BDE8F087A1A1504667
:102B500001F008FC074607B9F5E7A0A1384601F0E7
:102B600001FC044644B194F81480B8F1000F04D07D
:102B700001209F49086040E13FE13BE1C3000020A4
:102B80004C00002041540D0A000000004F4B000093
:102B90002C00002041542B4346554E3D310D0A0078
:102BA00041542B43494D490D0A0000003436300092
:102BB00041542B43474154543D310D0A000000005D
:102BC00041542B43474154543F0D0A002B43474186
:102BD00054543A203100000041542B434553510DC9
:102BE0000A0000002B434553510000005000002014
:102BF000D0C5BAC5CBD1CBF7CAA7B0DCA3ACC7EB65
:102C0000B2E9BFB4D4ADD2F2210D0A0041542B5128
:102C100049434C4F53453D300D0A000041542B5160
:102C2000494F50454E3D312C302C22544350222CDC
:102C30002234372E39392E38302E3839222C31347F
:102C40003236392C313233342C310D0A0000000079
:102C50002B51494F50454E3A20302C300000000097
:102C600041542B51534F53454E443D302C25732C2A
:102C700025730D0A0000000041542B514953454E65
:102C80004445583D302C25732C25730D0A00000057
:102C900053454E44204F4B00636339363834303946
:102CA00038306163343935373061636334376532C6
:102CB0006330313935623563000000006D7A683069
:102CC0003031000061315A4D6B77686576473900C5
:102CD00041542B514D544346473D22616C69617507
:102CE0007468222C302C222573222C222573222C4E
:102CF000222573220D0A000041542B514D544F5090
:102D0000454E3D302C223133392E3139362E313378
:102D1000352E313335222C313838330D0A0000007E
:102D20002B514D544F50454E3A20302C300000006E
:102D300041542B514D54434F4E4E3D302C22636C29
:102D400069656E744578616D706C655F31393837CF
:102D5000220D0A002B514D54434F4E4E3A20302C39
:102D6000302C30004C8200082F7379732F61315A58
:102D70004D6B7768657647392F6D7A683030312F23
:102D80007468696E672F6576656E742F70726F70E8
:102D9000657274792F706F737400000041542B5169
:102DA0004D545055423D302C302C302C302C2225A7
:102DB00073220D0A0000000025730000004400404B
:102DC0002B514D545055423A20302C302C300000BD
:102DD0007B000000706172616D7300004E6967686E
:102DE000744C696768745377697463680000000005
:102DF000A001214200201C4908601CA1384601F0B6
:102E0000B1FA04460CB194F81480FC2101A802F038
:102E10003EFB504600F09EF800BF94E600B5BFB000
:102E2000144801F008FF14A1124802F019FA1549DC
:102E300008600846006870B1134802780D4968467A
:102E400002F0AEFA6846FFF75AFEFFF79DFCFC2140
:102E5000684602F01CFB0D48007810B100200A49BA
:102E600008703FB000BD0000A001214242757A7A8F
:102E700065720000C30000202B514D54524543564B
:102E80003A0000002C0000204C00002045000020EB
:102E9000FE480068704770B504460D462CB9AC4238
:102EA00001D0012070BD0020FCE70DB90120F9E739
:102EB00005E0207808B90020F4E7641C6D1C207838
:102EC00001F083FF0646287801F07FFF8642F0D0AC
:102ED000207801F07AFF0646287801F076FF301A54
:102EE000E0E770B50446204602F0F0F9451C28469C
:102EF000E74909688847061E00D170BD2A46214669
:102F0000304602F04DFA3046F7E730B9E149E04A81
:102F10001160E149E14A11607047016809B1016837
:102F200000E0DC49DA4A1160416809B1416800E01B
:102F3000D949DA4A116000BFEEE710B52820D4491C
:102F40000968884704461CB12821204602F09FFAF0
:102F5000204610BD70B5044622E02568A08900F423
:102F6000807020B9A06810B1A068FFF7F3FFA089B6
:102F700000F4807028B9206918B1C849206909682F
:102F80008847A08900F4007028B9206A18B1C349A5
:102F9000206A096888472046C049096888472C4646
:102FA000002CDAD170BD2DE9F04F8BB083468A46F4
:102FB0000020044605460026B94F00218846894670
:102FC0000990012008909AF800002D2802D1B54FF1
:102FD0000AF1010A9AF80000302801D10AF1010A29
:102FE0009AF80000312822DB9AF8000039281EDC0C
:102FF00000BF1AF8011BA1F1300004F01EFC0022F2
:10300000A94BCDE906012046294604F069FCCDE92B
:103010000401DDE9062304F091F904460D469AF80F
:103020000000302803DB9AF800003928E1DD9AF827
:1030300000002E2830D19AF8010030282CDB9AF8B5
:103040000100392828DC0AF1010A00BF1AF8011B27
:10305000A1F1300004F0F1FB0022934BCDE9060111
:103060002046294604F03CFCCDE90401DDE90623B5
:1030700004F064F904460D460022894B4046494657
:1030800004F054FE804689469AF80000302803DB9D
:103090009AF800003928D9DD9AF80000652803D095
:1030A0009AF80000452823D10AF1010A9AF8000095
:1030B0002B2802D10AF1010A08E09AF800002D2815
:1030C00004D14FF0FF3008900AF1010A08E01AF825
:1030D000010B3038099901EB810100EB41000990A7
:1030E0009AF80000302803DB9AF800003928EEDD5A
:1030F000DDE9082101FB02F004F09FFB42464B464C
:10310000CDE9000104F01AF902460B46CDE90201AF
:103110000020654903F0D4FB22462B46CDE9060189
:103120003046394604F0DCFBCDE90401DDE9062335
:1031300004F0D6FB04460D46CBE906452046294659
:1031400004F04CFBCBF814000320CBF80C005046E5
:103150000BB0BDE8F08F0146491E41EA610141EA2A
:10316000A10141EA211141EA212141EA2141481C02
:1031700070472DE9F04104460E460CB1206810B9A5
:103180000020BDE8F081A06806446068B04203DB1F
:10319000A16820680844F4E73046FFF7DCFF0746E3
:1031A00038463B490968884705463DB93B49206890
:1031B00009688847002060602060E2E725B1284662
:1031C000D4E9001202F0ECF8344920680968884715
:1031D00067602560A0682844D3E770B504460CB149
:1031E000206808B9002070BDA168206845182846ED
:1031F00002F06CF8A1680844F5E72DE9FC47824627
:103200000E464FF00009DAE9064500221346204633
:10321000294604F0A7FA13D12EB102213046FFF758
:10322000A8FF814604E002201949096888478146C1
:10323000B9F1000F03D01DA00088A9F800009FE09D
:10324000DAF8140004F0F9FA074622462B4604F097
:103250006DFD21F000410022154BCDE9000104F085
:1032600003FB3ED8134A144B2046294604F0FCFACF
:1032700037D80022114B2046294604F02FFC30D8C5
:1032800006B315213046FFF774FF19E03400002023
:10329000380000201F4D00087D4D00083C00002034
:1032A0000000F03F0000F0BF0000244030000000AC
:1032B0000000B03C0000C0FFFFFFDF410000E0C1A4
:1032C000814604E01520FA49096888478146B9F12A
:1032D000000F55D0F7A14846DAF8142001F08EFD12
:1032E0004EE02EB140213046FFF743FF814604E017
:1032F0004020EF49096888478146B9F1000F3FD067
:103300002046294603F06EFA074622462B4604F073
:103310000DFD21F000410022E74BCDE9000104F052
:10332000A3FA0FD825F000412746E44AE44B38467B
:1033300004F09AFA06D222462B46E2A1484601F052
:103340005DFD1DE025F000412746E04AE04B384690
:1033500004F08AFA07D325F000410022DD4B3846FD
:1033600004F0BCFB06D222462B46DBA1484601F006
:1033700045FD05E022462B46D8A1484601F03EFD1A
:103380004846BDE8FC87014600220878302806DB65
:103390000878392803DC08783038024415E00878CA
:1033A000412806DB0878462803DC087837380244D1
:1033B0000BE00878612806DB0878662803DC0878CB
:1033C0005738024401E0002070471201491C087878
:1033D000302806DB0878392803DC087830380244C6
:1033E00015E00878412806DB0878462803DC0878D1
:1033F000373802440BE00878612806DB0878662835
:1034000003DC08785738024401E00020DCE71201B1
:10341000491C0878302806DB0878392803DC08784E
:103420003038024415E00878412806DB0878462841
:1034300003DC0878373802440BE00878612806DBA3
:103440000878662803DC08785738024401E0002039
:10345000BAE71201491C0878302806DB08783928B9
:1034600003DC08783038024415E00878412806DB90
:103470000878462803DC0878373802440BE00878DF
:10348000612806DB0878662803DC08785738024490
:1034900001E0002098E7104696E72DE9F05F8346AB
:1034A000884608F10104002798F80000222805D07A
:1034B0008B48C0F800800020BDE8F09F04E014F8BD
:1034C000011B5C2900D1641C2078222804D02078BC
:1034D00010B1781C071EF2D1781C7549096888471D
:1034E0008146B9F1000F01D10020E5E708F10104A0
:1034F0004D469EE020785C2804D014F8010B05F8B6
:10350000010B96E0641C2078722818D006DC622833
:1035100009D066280BD06E287ED10CE0742812D01A
:103520007528F9D113E0082005F8010B7FE00C2085
:1035300005F8010B7BE00A2005F8010B77E00D2070
:1035400005F8010B73E0092005F8010B6FE0601C22
:10355000FFF719FF0646241DB6F55C4F02D3B6F5FA
:10356000604F00D306B962E0B6F5584F1CD3B6F5EC
:103570005C4F19D260785C2802D1A078752800D001
:1035800055E0E01CFFF7FFFE8246A41DBAF55C4F34
:1035900002D3BAF5604F00D349E0C6F309015046A3
:1035A00061F39F2000F580360427802E01D2012789
:1035B00008E0B6F5006F01D2022703E0B6F5803FC0
:1035C00000D203273D44012F20D0022F15D0032F16
:1035D0000AD0042F24D106F0BF0040F08001681EFD
:1035E00005460170B60900BF06F0BF0040F080013B
:1035F000681E05460170B60900BF06F0BF0040F026
:103600008001681E05460170B60900BF3548C05DDF
:103610003043C1B2681E00E005E00546017000BFFE
:1036200000BF3D4403E0207805F8010B00BF00BF58
:10363000641C2078222803D0207800287FF45AAF19
:10364000002028702078222800D1641CCBF810902C
:103650000420CBF80C0020462EE72DE9F05F8046D1
:1036600089460027BB46454611E02878002802DD40
:103670002878202805DB2878222802D028785C28A2
:1036800001D1012000E0002040EA0B0B6D1C2878DE
:103690000028EAD1BBF1000F3ED1A5EB0807B9F134
:1036A000000F21D0F91C4846FFF763FD064620E0D5
:1036B00038000020256400000000B03C44F3C2E460
:1036C000E4E9634C252E3066000000008DEDB5A0C6
:1036D000F7C6B03E65CDCD412565000025660000EA
:1036E00034000020D6800008F81CFD49096888478E
:1036F000064616B90020BDE8F09F3446222004F8A3
:10370000010B4146204601F0BDFD2220E05500217D
:10371000781C21543046EEE7B8F1000F16D1B9F10C
:10372000000F05D003214846FFF723FD064604E0BD
:103730000320EB490968884706460EB90020DAE7FE
:10374000E8A1304601F09EFD3046D4E745460BE047
:103750005146E5A001F07AFD08B17F1C03E0BAF103
:10376000200F00DA7F1D6D1C95F800A0BAF1000F44
:1037700002D0781C071EEBD1B9F1000F05D0F91C5F
:103780004846FFF7F6FC064604E0F81CD4490968F1
:10379000884706460EB90020ADE73446454622204C
:1037A00004F8010B47E028781F280ADD2878222832
:1037B00007D028785C2804D015F8010B04F8010B19
:1037C00039E05C2004F8010B15F8011B8A460C292E
:1037D00019D006DC082912D0092920D00A2922D1C3
:1037E00015E00D2917D0222905D05C291BD15C20BA
:1037F00004F8010B1EE0222004F8010B1AE06220FD
:1038000004F8010B16E0662004F8010B12E06E20AC
:1038100004F8010B0EE0722004F8010B0AE074209A
:1038200004F8010B06E05246B1A1204601F0E6FA89
:10383000641D00BF00BF28780028B4D1222004F8FE
:10384000010B002004F8010B304654E770B5044624
:103850000D4629462069FFF700FF70BD00E0401CBF
:1038600020B1017811B101782029F8DD70472DE9E8
:10387000F04706460C4620787B2804D09E4804601A
:103880000020BDE8F0870620F060601CFFF7E6FF2F
:10389000044620787D2801D1601CF2E7FFF74DFB3C
:1038A0000546B060B06808B90020EAE72046FFF797
:1038B000D5FF804641462846FFF7EFFD0746FFF754
:1038C000CDFF04460CB90020DBE728692862002000
:1038D000286120783A2803D0874804600020D0E788
:1038E000601CFFF7BBFF80464146284600F099F870
:1038F0000746FFF7B3FF04460CB90020C1E731E0EB
:10390000FFF71BFB071E00D1BBE72F607D603D4624
:10391000601CFFF7A3FF814649462846FFF7BDFD1F
:103920008046FFF79BFF04460CB90020A9E72869F1
:1039300028620020286120783A2803D06E4804606D
:1039400000209EE7601CFFF789FF81464946284614
:1039500000F067F88046FFF781FF04460CB90020AD
:103960008FE700BF20782C28CAD020787D2801D18D
:10397000601C86E760480460002082E72DE9F0477C
:1039800005460C4620785B2804D05B480460002084
:10399000BDE8F0870520E860601CFFF75FFF044684
:1039A00020785D2801D1601CF2E7FFF7C6FA0646D1
:1039B000A860A86808B90020EAE72046FFF74EFF94
:1039C00080464146304600F02CF80746FFF746FF98
:1039D00004460CB90020DBE717E0FFF7AEFA071E3C
:1039E00000D1D5E737607E603E46601CFFF736FFAA
:1039F00081464946304600F014F88046FFF72EFF16
:103A000004460CB90020C3E700BF20782C28E4D07E
:103A100020785D2801D1601CBAE737480460002097
:103A2000B6E770B505460C460CB9002070BD0422FF
:103A300032A1204601F069FC18B90220E860201D7F
:103A4000F4E705222FA1204601F05FFC18B9002001
:103A5000E860601DEAE704222CA1204601F055FC35
:103A600020B90120E8606861201DDFE72078222866
:103A700004D121462846FFF710FDD7E720782D28EE
:103A800005D02078302807DB2078392804DC21464F
:103A90002846FFF788FAC9E720785B2804D1214639
:103AA0002846FFF76BFFC1E720787B2804D1214629
:103AB0002846FFF7DCFEB9E70F4804600020B5E7B1
:103AC0002DE9F04780460D4616460024FFF735FAEB
:103AD0000746002008490860E7B9BDE8F087000004
:103AE0003800002022220000225C080C0A0D090088
:103AF0007525303478000000340000206E756C6C41
:103B00000000000066616C736500000074727565EA
:103B1000000000004046FFF7A1FE814649463846B6
:103B2000FFF77FFF04462CB93846FFF713FA002051
:103B3000BDE8F08766B12046FFF790FE0446207886
:103B400030B13846FFF706FAFE4804600020EFE780
:103B500005B12C603846EBE710B50446002211464B
:103B60002046FFF7ADFF10BD2DE9FF4F89B0884615
:103B700016461F4600200890079006904FF0070A4F
:103B800000250998D0F8089000200290019000903C
:103B900004E00298401C0290D9F80090B9F1000F9F
:103BA000F7D10298002835D157B116B108F10400B9
:103BB00000E0032001463846FFF7DBFA069009E0F3
:103BC00016B108F1040100E003210846DE49096846
:103BD00088470690069818B900200DB0BDE8F08F10
:103BE000069C7B2004F8010B66B10A2004F8010B47
:103BF000002503E0092004F8010B6D1CA8F1010069
:103C0000A842F7DC7D2004F8010B002004F8010B2A
:103C10000698E2E7002F77D0BD680EB1022000E0E1
:103C2000012082460AF101013846FFF7A2FA044654
:103C30000CB90020D1E77B2004F8010B16B10A2053
:103C400004F8010B00202070B8685044B86009984F
:103C5000D0F8089008F1010868E0B6B1414638464E
:103C6000FFF787FA04460CB90020B6E7002003905E
:103C700005E0092004F8010B0398401C0390039809
:103C80004045F6DBB8684044B8603946D9F82000B2
:103C9000FFF7E3FC3846FFF7A0FAB8600EB1022048
:103CA00000E00120824651463846FFF762FA04469A
:103CB0000CB9002091E73A2004F8010B16B1092055
:103CC00004F8010BB8685044B8603B4632464146A0
:103CD000484600F078FA3846FFF77FFAB8600EB130
:103CE000012000E00020D9F8001009B1012100E016
:103CF000002100EB010A0AF101013846FFF739FA09
:103D0000044614B9002068E734E0D9F8000010B187
:103D10002C2004F8010B16B10A2004F8010B002036
:103D20002070B8685044B860D9F80090B9F1000F1D
:103D300093D116B108F1010000E002200146384697
:103D4000FFF717FA04460CB9002046E74EB10025EC
:103D500003E0092004F8010B6D1CA8F10100A84242
:103D6000F7DC7D2004F8010B00202070386828441F
:103D7000069005E102998800734909688847089010
:103D8000089808B9002028E7029988006E49096858
:103D900088470790079828B96C49089809688847A8
:103DA00000201AE702988100089801F070FB029841
:103DB0008100079801F06BFB0998D0F8089008F192
:103DC000010806B1C2442EE00021D9F82000FFF717
:103DD00044FC0490079941F82500002332464146EF
:103DE000484600F0F0F929466D1C0590089A42F803
:103DF0002100049898B1059888B1059801F066FAF9
:103E00008346049801F062FA0BEB0001891C16B19D
:103E100008F1020000E000200844824401E0012093
:103E20000190D9F80090B9F1000FCDD1019820B9D7
:103E300050464549096888470690069808B9012008
:103E40000190019818B3002514E0079850F8250058
:103E500028B1079951F825003C4909688847089816
:103E600050F8250028B1089951F82500374909680C
:103E700088476D1C02988542E7DB3449079809683A
:103E8000884732490898096888470020A5E67B21C1
:103E9000069801700698441C16B10A2004F8010B1C
:103EA00000202070002548E05EB10020039005E06E
:103EB000092004F8010B0398401C03900398404527
:103EC000F6DB079951F8250001F000FA00900798F9
:103ED00050F825102046009A01F062FA0098044438
:103EE0003A2004F8010B16B1092004F8010B0898D8
:103EF00050F82510204601F0C5F9089951F8250021
:103F000001F0E4F904440298401EA84202D02C209B
:103F100004F8010B16B10A2004F8010B00202070F0
:103F2000079951F82500094909688847089951F807
:103F300025000649096888476D1C02988542B3DB55
:103F4000024905E034000020380000203C00002039
:103F5000079809688847F7490898096888474EB163
:103F6000002503E0092004F8010B6D1CA8F10100F5
:103F7000A842F7DC7D2004F8010B002004F8010BB7
:103F800006982AE62DE9FF4F85B092461E464FF06F
:103F9000000B052003900598D0F80880D94600252D
:103FA00000200290019003E009F10109D8F8008097
:103FB000B8F1000FF8D1B9F1000F16D12EB10321DD
:103FC0003046FFF7D6F8834604E00320DA49096853
:103FD00088478346BBF1000F03D0D8A1584601F0B3
:103FE00051F9584609B0BDE8F08F002E57D0B5689A
:103FF00001213046FFF7BDF804460CB90020F1E777
:104000005B202070B068401CB0600598D0F8088034
:104010002EE0334652460699491C404600F0D3F83C
:104020003046FFF7DAF8B060D8F80000F0B1BAF126
:10403000000F01D0022000E0012003900399491CE9
:104040003046FFF796F804460CB90020CAE72C204A
:1040500004F8010BBAF1000F02D0202004F8010B84
:1040600000202070B16803980844B060D8F8008040
:10407000B8F1000F02D002980028CAD002213046C1
:10408000FFF777F804460CB90020ABE75D2004F891
:10409000010B00202070306800EB050B91E04FEA27
:1040A0008900A5490968884707460FB9002099E7A4
:1040B0004FEA8901384601F0EAF90598D0F80880FE
:1040C00021E0002352460699491C404600F07BF847
:1040D000049029466D1C049847F82100049870B19B
:1040E000049801F0F3F8801CBAF1000F01D001210F
:1040F00000E00021014403980844039001E00120FE
:104100000290D8F80080B8F1000F02D00298002881
:10411000D7D0029820B98849039809688847834610
:10412000BBF1000F01D101200290029890B100254F
:1041300008E057F8250020B157F825007D490968A7
:1041400088476D1C4D45F4DB38467A490968884735
:10415000002047E75B208BF800000BF101040020F2
:104160002070002521E057F8250001F0AFF80190FC
:1041700057F825102046019A01F012F901980444DD
:10418000A9F10100A8420AD02C2004F8010BBAF1D1
:10419000000F02D0202004F8010B0020207057F8F7
:1041A00025006449096888476D1C4D45DBDB3846AE
:1041B0006049096888475D2004F8010B002004F875
:1041C000010B58460EE72DE9F04104460F46904694
:1041D0001D46002614B90020BDE8F081002D49D00D
:1041E000207B072845D2DFE800F0101C04282E347D
:1041F0003C0005212846FEF7BCFF064626B1AFF27B
:104200000471304601F03EF833E006212846FEF7FF
:10421000B0FF064626B1AFF21471304601F032F815
:1042200027E005212846FEF7A4FF064626B1AFF297
:104230002471304601F026F81BE029462046FEF79F
:10424000DCFF064615E029462046FFF7FFFA064642
:104250000FE02B46424639462046FFF793FE0646BE
:1042600007E02B46424639462046FFF77DFC0646CE
:1042700000BF37E0207B072833D2DFE800F00A10C8
:1042800004161C222A00AFF28C70FEF72AFE0646A6
:1042900027E0AFF29070FEF724FE064621E0AFF271
:1042A0009470FEF71EFE06461BE000212046FEF736
:1042B000A4FF064615E000212046FFF7C7FA064690
:1042C0000FE00023424639462046FFF75BFE0646D4
:1042D00007E00023424639462046FFF745FC0646E4
:1042E00000BF00BF304677E710B504460023012227
:1042F00019462046FFF767FF10BD10B5044600239E
:104300001A4619462046FFF75EFF10BDFEB505466A
:104310000C461646204608490968884700900194D3
:10432000002002906B46324600212846FFF74BFFE3
:10433000FEBD00003C000020380000205B5D000056
:1043400001468A68002001E0401C1268002AFBD167
:1043500070470246906801E0491E006808B10029D4
:10436000FADC704770B505460E46AC6800E024687C
:104370002CB13146206AFEF78EFD0028F7D1204689
:1043800070BD01604860704770B50546FEF7D5FD09
:1043900004460CB9002070BD28222946204601F0B1
:1043A00044F800202062E06840F48070E060002063
:1043B000606020602046EEE770B505460E46AC68AA
:1043C00006B970BD0CB9AE6009E000E0246814B114
:1043D00020680028FAD131462046FFF7D2FF00BFFF
:1043E000EFE770B506460D46144604B970BD206A65
:1043F00018B1FE49206A096888472846FEF771FD12
:10440000206221463046FFF7D7FF00BFEEE770B5C8
:1044100006460D46144604B970BDA08900F400702C
:1044200028B9206A18B1F149206A096888472562CD
:10443000E06840F40070E06021463046FFF7BCFFC2
:1044400000BFE9E770B505460C462046FFF79CFF24
:10445000064631462846FFF7AFFF70BD2DE9F04113
:1044600005460E4614462046FFF78EFF07463A469D
:1044700031462846FFF7B5FFBDE8F08110B502468A
:104480000B46916801E009685B1E09B1002BFADC5C
:1044900009B9002010BD486810B1D1E900042060BE
:1044A000086810B1D1E9004060609068884201D18D
:1044B000086890600020086048600846EAE770B528
:1044C00004460D4629462046FFF7D8FF0646FEF76C
:1044D00041FD70BD2DE9F04105460F460026AC6850
:1044E00001E0761C24682CB13946206AFEF7D3FC23
:1044F0000028F6D12CB131462846FFF7BFFFBDE8B2
:10450000F0810020FBE770B504460D4629462046A1
:10451000FFF7E0FF0646FEF71DFD70BD2DE9F041F7
:1045200006460F461446B56801E02D687F1E0DB1A2
:10453000002FFADC2DB921463046FFF73DFFBDE8DC
:10454000F0812560686860606C60B068A84201D145
:10455000B46001E06068046000BFF0E72DE9F0415D
:1045600006460F461446B56801E02D687F1E0DB162
:10457000002FFADC0DB9BDE8F0812868206068687A
:104580006060206808B120684460B068A84201D12A
:10459000B46001E06068046000206860286028461C
:1045A000FEF7D8FC00BFE6E72DE9F04105460E46D0
:1045B00017464FF00008AC6802E008F101082468D3
:1045C0002CB13146206AFEF766FC0028F5D144B1D3
:1045D0003046FEF786FC38623A4641462846FFF7E9
:1045E000BDFFBDE8F08110B5FEF7A7FC04460CB195
:1045F0000220E060204610BD10B5FEF79EFC044688
:104600000CB10120E060204610BD10B5FEF795FC0E
:1046100004460CB10020E060204610BD70B5054690
:10462000FEF78BFC044624B10DB1012000E0002010
:10463000E060204670BD70B505460E46FEF77DFC75
:10464000044644B10320E060C4E9065628463146DA
:1046500003F0C4F86061204670BD70B50546FEF7F2
:104660006CFC04462CB10420E0602846FEF739FCBF
:104670002061204670BD10B5FEF75FFC04460CB10A
:104680000520E060204610BD10B5FEF756FC04463C
:104690000CB10620E060204610BD2DE9F05F814698
:1046A0008A460025AB46FFF7E6FF0646002410E0E9
:1046B00059F8240003F0C1F80746FFF7BCFF054690
:1046C0000CB9B56003E029465846FFF75AFEAB46E1
:1046D000641C0EB15445EBDB3046BDE8F09F2DE97C
:1046E000F05F81468A460025AB46FFF7C4FF0646C9
:1046F000002410E059F8240003F002FC0746FFF7FD
:104700009AFF05460CB9B56003E029465846FFF705
:1047100038FEAB46641C0EB15445EBDB3046BDE8B9
:10472000F09F2DE9F047074688460025A946FFF788
:10473000A2FF0646002410E007EBC400D0E90021E8
:104740001046FFF778FF05460CB9B56003E029462F
:104750004846FFF716FEA946641C0EB14445EBDB44
:104760003046BDE8F0872DE9F0470746884600252A
:10477000A946FFF780FF064600240DE057F8240005
:10478000FFF76BFF05460CB9B56003E029464846C4
:10479000FFF7F7FDA946641C0EB14445EEDB304639
:1047A000BDE8F0872DE9F047054689464FF000083F
:1047B00015B90020BDE8F087FEF7BFFB04460CB931
:1047C0000020F7E7E86820F48070E06068696061C5
:1047D000D5E90601C4E90601286968B12869FEF730
:1047E00080FB2061206938B9204601E03C000020B0
:1047F000FEF7B0FB0020DDE7286A50B1286AFEF71B
:1048000070FB2062206A20B92046FEF7A3FB00203F
:10481000D0E7B9F1000F01D12046CBE7AF6816E031
:1048200001213846FFF7BEFF064626B92046FEF7AF
:1048300091FB0020BEE7B8F1000F05D0C8F800607A
:10484000C6F80480B04601E0A660B0463F68002F7D
:10485000E6D12046AEE7014655E00278202A01D194
:10486000401C50E00278092A01D1401C4BE002783C
:104870000D2A01D1401C46E002780A2A01D1401CD1
:1048800041E002782F2A0BD142782F2A08D100E08C
:10489000401C0278002A36D002780A2A33D0F7E783
:1048A00002782F2A0ED142782A2A0BD100E0401C30
:1048B00002782AB102782A2AF9D142782F2AF6D131
:1048C000801C20E00278222A19D110F8012B01F86F
:1048D000012B0AE002785C2A03D110F8012B01F8C1
:1048E000012B10F8012B01F8012B027812B102788C
:1048F000222AEFD110F8012B01F8012B03E010F868
:10490000012B01F8012B0278002AA6D10A7070470A
:1049100010B56FF00400FBF79EFE2E4800682E498C
:10492000B0FBF1F02D4908700846007800EB40011B
:10493000C1EBC0104FF6FF7101EAC00028490880A2
:1049400010BD0146254A12784A434FF0E0235A61D0
:1049500000229A611A46126942F001021A6100BFF0
:104960004FF0E022106900F001021AB100F4803229
:10497000002AF5D04FF0E022126922F001024FF038
:10498000E0231A6100229A6170470146144A128896
:104990004A434FF0E0235A6100229A611A46126995
:1049A00042F001021A6100BF4FF0E022106900F0EE
:1049B00001021AB100F48032002AF5D04FF0E02253
:1049C000126922F001024FF0E0231A6100229A617D
:1049D000704700000000002000127A004000002014
:1049E0004200002010B54FF4A060FBF7E5FD10BDBC
:1049F00000BF704700BF704700BFC04A128802F076
:104A00004002002AF9D0C2B2BC4B1B1D1A8070476D
:104A100010B5044600BF8021B948FDF771FD00289C
:104A2000F9D02146B648FDF7FDFC10BD10B504468F
:104A300000BF8021B148FDF763FD0028F9D0214671
:104A4000AE48FDF7EFFC10BD10B586B0044601215D
:104A500044F20400FCF738FCA948FDF7A7FB4FF42B
:104A60000070ADF8140003208DF8160018208DF8A2
:104A7000170005A9A348FCF74BF94FF48060ADF887
:104A8000140048208DF8170005A99E48FCF740F94E
:104A900025208DF8000003208DF801008DF802001C
:104AA00001208DF803006846FBF78BFD0194002080
:104AB000ADF80800ADF80A00ADF80C00ADF8100034
:104AC0000C20ADF80E0001A98D48FDF7B2FB0122C4
:104AD00040F225518A48FDF744FC01218848FDF742
:104AE00034FC06B010BD10B586B004460121042088
:104AF000FCF7EAFB01214804FCF7F3FB7F48FDF7D4
:104B000055FB0420ADF8140003208DF81600182082
:104B10008DF8170005A97B48FCF7FAF80820ADF8D6
:104B2000140004208DF8170005A97648FCF7F0F86A
:104B300026208DF8000000208DF8010001208DF85E
:104B400002008DF803006846FBF73BFD019400204E
:104B5000ADF80800ADF80A00ADF80C00ADF8100093
:104B60000C20ADF80E0001A96448FDF762FB01229C
:104B700040F225516148FDF7F4FB012240F2244147
:104B80005E48FDF7EEFB01215C48FDF7DEFB06B059
:104B900010BD10B586B0044601210820FCF794FB37
:104BA00001218804FCF79DFB5748FDF7FFFA4FF4FD
:104BB0008060ADF8140003208DF8160018208DF8E1
:104BC000170005A95148FCF7A3F84FF40060ADF8B1
:104BD000140004208DF8170005A94C48FCF798F83C
:104BE00027208DF8000000208DF8010001208DF8AD
:104BF00002008DF803006846FBF7E3FC01940020F7
:104C0000ADF80800ADF80A00ADF80C00ADF81000E2
:104C10000C20ADF80E0001A93B48FDF70AFB01226C
:104C200040F225513848FDF79CFB01213648FDF73D
:104C30008CFB06B010BD0BE000BF3149098801F0C4
:104C400040010029F9D001782D4A121D1180401C25
:104C500001780029F0D170470BE000BF2A4909888C
:104C600001F040010029F9D00178274A121D118076
:104C7000401C01780029F0D1704710B540F2255151
:104C80001F48FDF753FC18B11D48FDF7CFFBC4B218
:104C900010BD10B540F225511848FDF747FC90B102
:104CA0001648FDF7C3FBC4B21448FDF7BFFBC1B201
:104CB000174802780078401C154B1870154881542D
:104CC00001201549087040F224410C48FDF72EFCE4
:104CD00030B10A48FDF7AAFBC4B201200E490870A2
:104CE00010BD10B540F225510748FDF71FFC18B163
:104CF0000548FDF79BFBC4B210BD00000044004016
:104D0000003801400008014000480040000C01400C
:104D10004C000020C300002045000020704770B503
:104D2000064600F0E7FB056806F10B0020F00704DB
:104D3000B4429CBF002070BD2B466A68BAB11068AF
:104D4000A04210D304F1080188423CBF506858606B
:104D500007D35168101941601168091B0160586040
:104D60001460101D70BD13465268002AE7D1214619
:104D7000284600F0C7FB0028DED170BD70B50446A0
:104D8000051F00F0B7FB0068002C14BF446870BD1D
:104D9000002C18BFAC423CBF20466468F8D30168C1
:104DA0000A18AA4218BF456003D12A680546114473
:104DB000016028684119A1421CBF6C6070BD616828
:104DC000696021680844286070BD10B5044600F091
:104DD00089FB0068005DC00602D504F1200010BD0B
:104DE000204610BD0FB4044910B503AA029800F084
:104DF0007BFE10BC5DF814FB480000200FB41CB50E
:104E0000074B06AA7B4469460090059800F03DFEDA
:104E10000020694600F04CFE1CBC5DF814FB00004D
:104E2000A90C000070B5044685690068C10601D56B
:104E3000302600E02026C00707D070BDD4E901214C
:104E400030469047206A401C20626D1EF6D570BD2A
:104E500070B5044685690078C00707D170BDD4E9F4
:104E6000012120209047206A401C20626D1EF6D54B
:104E700070BD09684A0501D540B27047C905FCD527
:104E800000B2704709684A0501D5C0B27047C9052C
:104E9000FCD580B2704770B50C460546012A05D096
:104EA0002878800600D5EA69002302E0012305E0A6
:104EB0005B1C934202D2E05C0028F9D1A869E61895
:104EC000C01AA861286A184428622846FFF7AAFF7A
:104ED00004E0D5E9012114F8010B9047B442F8D35E
:104EE0002846FFF7B5FF70BD2DE9F04106460024C6
:104EF00010687529314616A510D0FFF7BAFF0028B3
:104F000002DA404213A507E031688A0701D512A5ED
:104F100002E0490704D511A5012401E0FFF7B2FF23
:104F200000210A2206F1240709E0B0FBF2FCB0FBE5
:104F3000F2F302FB1C00303078541846491C00285C
:104F4000F3D123462A463046BDE8F04100F02FBB9E
:104F5000000000002D0000002B00000020000000D9
:104F60002DE9FF5F15468A460446DFF8AC80F84419
:104F70000027D8E900103E46CDE9001010E03AF8CD
:104F800016106A4602A800F0D7FD411C07D0217810
:104F9000890603D5E269391891420DD80744761C79
:104FA0002078800602D5E069B84205DDAE42E6DB36
:104FB0003AF816000028E2D1A069C01BA061204683
:104FC000FFF730FFD8E90010CDE90010002017E00E
:104FD0003AF818106A4602A800F0AEFDB0F1FF3FA3
:104FE00081460BD000250DF1080B05E0D4E9012125
:104FF0001BF8050090476D1C4D45F7D308F10100E3
:10500000B0428046E4DB206A384420622046FFF745
:105010001FFFBDE8FF9F00006E31000070B5044621
:1050200021461068FFF72EFF002104F1240505E05A
:1050300000F007023032C0086A54491C0028F7D13A
:105040002068002307A2050707D5800600D421B1F8
:10505000E069012304A2401EE0612046BDE87040E3
:1050600000F0A5BA000000003000000070B5044652
:105070000D4621461068FFF705FF2188090502D576
:105080000F4A7A4402E00E4A7A440E32002104F1BB
:10509000240305E000F00F060009965D5E54491CEC
:1050A0000028F7D120780023000704D5702D02D006
:1050B00009B1022311322046BDE8704000F077BAF2
:1050C000623000002DE9F05F894604464FF0000A87
:1050D000DFF874B1FB44C0F820A02046E16888479F
:1050E000002874D0252806D0D4E901219047206AF1
:1050F000401C2062F1E700265F462046E1688847B1
:105100002028054607DB312D05D2781910F8200C30
:1051100008B10643F1E7B00701D526F00406C4F84C
:105120001CA00027C4F818A02A2D09D0284601F099
:1051300051FB38B304EB8708303DC8F8185019E02C
:1051400059F8041B204604EB87029161E168884707
:10515000012F054618D1E069002820DA26F0200644
:105160001DE0D8F8180000EB800005EB4000303857
:10517000C8F818002046E1688847054601F02AFB78
:105180000028EED1012F0AD02E2D08D12046E1684B
:1051900088477F1C0546022F46F02006C4DBA06925
:1051A000002803DA404246F00106A061F00701D072
:1051B00026F010066C2D0BD0682D09D04C2D39D05F
:1051C0006A2D35D0742D35D07A2D33D016E038E0E5
:1051D000E1682F4620468847B842054609D16C2F22
:1051E00026D04FF48060E168064320468847054694
:1051F00004E06C2F1AD04FF4807006430DB3A5F174
:105200004100192802D8203546F400664A4629464E
:10521000204626604E46FAF7A3FF80B101280BD046
:10522000F61D26F0070000F1080956E74020E4E7E4
:105230008020D8E70020D6E706F104094DE728468C
:1052400052E7206ABDE8F09F38300000401ECAB225
:1052500010F8011F8A4202D00029F9D100207047BE
:1052600030B505460B462A4613F8014B12F8010BE0
:1052700008B1A042F8D01CB1002802D06D1CF1E7A3
:10528000284630BD40EA0103024630B59B0710D1E5
:105290004FF0013400E008C208C91D1B9D4315EA08
:1052A000C41FF8D013F0FF0102F8011B0DD01B0A38
:1052B000F8E711F8013B002B02F8013B05D011F88B
:1052C000013B002B02F8013BF3D130BD10B5431C6C
:1052D00002E010F8011B71B18107FAD14FF00132E1
:1052E00002C88C1A8C4314EAC211F9D0C01A0A06FB
:1052F00003D0C01E10BDC01A10BD0A0401D0801E0C
:1053000010BD0902FCD0401E10BD40EA010370B57B
:105310009B072ED14FF00136042A2AD308C810C9A2
:105320009D1B9D43121F15EAC61517D0D8B2E1B2D6
:10533000401A50EA056110D198B2A1B2401A50EA61
:1053400005410AD123F07F4024F07F41401A50EA02
:10535000052102D1180EA0EB146070BDA342DBD072
:1053600018BA21BA884201D9012070BD4FF0FF3030
:1053700070BD0AB9002070BD10F8013B11F8014B57
:1053800063B1A3420AD1521E08D010F8013B11F8B4
:10539000014B1BB1A34201D1521EEDD1181B70BDB0
:1053A000032A40F2308010F0030C00F0158011F851
:1053B000013BBCF1020F624498BF11F801CB00F829
:1053C000013B38BF11F8013BA2F1040298BF00F87D
:1053D00001CB38BF00F8013B11F0030300F025803A
:1053E000083AC0F0088051F8043B083A51F804CB61
:1053F000A0E80810F5E7121D5CBF51F8043B40F827
:10540000043BAFF30080D20724BF11F8013B11F831
:1054100001CB48BF11F8012B24BF00F8013B00F875
:1054200001CB48BF00F8012B704710B5203AC0F0FF
:105430000B80B1E81850203AA0E81850B1E8185095
:10544000A0E81850BFF4F5AF5FEA027C24BFB1E8D2
:105450001850A0E8185044BF18C918C0BDE8104043
:105460005FEA827C24BF51F8043B40F8043B08BF4C
:105470007047D20728BF31F8023B48BF11F8012B13
:1054800028BF20F8023B48BF00F8012B70474FF0BF
:10549000000200B5134694469646203922BFA0E884
:1054A0000C50A0E80C50B1F12001BFF4F7AF090790
:1054B00028BFA0E80C5048BF0CC05DF804EB890081
:1054C00028BF40F8042B08BF704748BF20F8022BC4
:1054D00011F0804F18BF00F8012B704770477047DC
:1054E0007047704710B500F04BFB001D10BD00BFAA
:1054F000F51D000000487047940100207047704778
:105500007047704738B504460A4600206946AFF335
:105510000080002808BF38BD02460099204600F0F0
:1055200037FB012038BD012000F048BCF8B5AFF3CF
:105530000080054600200C46102000BF0646A81932
:10554000A0420DD9324669460020AFF30080070023
:1055500008BF00F033FC0098A04218BF0546C419EC
:10556000FFF7C8FF05600746F01D20F00700461949
:10557000284600F00AF8B44208BFF8BDA21B314625
:105580003868BDE8F84000F003BB00210160C0E9C5
:10559000011070471020704710B500F0F5FA006850
:1055A00010BD10B5044600F0EFFA046010BD2DE9FF
:1055B000F0470D4699469246044600F124080168DA
:1055C000880604D5E06921F01001216000E0012087
:1055D000A84201DD471B00E00027A1697A1902EB10
:1055E0000900081AA0612078C00602D42046FFF7FF
:1055F00019FC002608E0D4E901211AF806009047BA
:10560000206A401C761C20624E45F4DB2078C006E0
:105610000AD52046FFF706FC06E0D4E90121302038
:105620009047206A401C2062381EA7F10107F4DC75
:1056300007E0D4E9012118F805009047206A401CD2
:105640002062281EA5F10105F3DC2046FFF700FCCF
:105650002078000602D50220BDE8F0870120FBE794
:1056600070472DE9FF4F0C461E464FF0FF378BB0B9
:10567000D2E90001DDF860800A908A46C1F30A553C
:1056800005B93D46002108464FF00000BAF1000F71
:1056900000F4400005DA00EB80004FF4400101EA1D
:1056A00050004FEA9059B9F1010F00DDB9460A9850
:1056B00050EA4A000ED044F61050A5F2FF3545439B
:1056C0002F14B8F1000F1ED07542291E1EDDC9F13E
:1056D00000021CE0B8F1010F4FF0000001D03021B2
:1056E00003E0F24305E02154401CB042FBDB3046AE
:1056F0000022002121540B99C1F80880C1E9002043
:105700000FB0BDE8F08FBD1B6D1CDEE74A4600DA26
:10571000694206A800F0DCFA06AB93E8070003AB89
:1057200083E8070050460A9900F003FC8DE8070063
:10573000A0F500501F3800900398002D0ADD42F2BA
:105740001F014A460844002303A90390684600F05D
:105750006CFE09E0A0F500504A461F38002303A95B
:105760000390684600F076FE8DE807000004000C08
:1057700003D04FF0FF30410800E01046B8F1000FB1
:1057800003D00022009215461EE0751E05D400F0DD
:1057900019FA303262556D1EF9D5B346012208431D
:1057A00002D000227F1C04E02078302801D10022A2
:1057B0007F1E002A099784D01DE0112D07DA00F022
:1057C00001FA303262556D1C50EA0102F5D10843EE
:1057D00002D00098C8B10EE00021681E05E0235CED
:1057E000625C63542254401E491C8142F7DBAB4685
:1057F000A81B401E0990002004F80B000B98099A82
:10580000C0F80880C0E9002B7AE711264FF00008A5
:1058100057E72DE9F04F88460446D21D22F00701D4
:1058200091B0D1E90001CDE90A0100F04AFF02463A
:105830000B98C00F01D02D2007E02068810701D50B
:105840002B2002E0202101EAC000032A099001D0A8
:10585000072A05DB03464146204600F0F9F90BE133
:105860002078800601D5E06900E00620B8F1650FD8
:10587000814606D0B8F1660F18D0B8F1670F70D125
:1058800031E00020B9F1110F009001DB112301E09C
:1058900009F101030AAA01A90CA8FFF7E2FEDDE95C
:1058A0000C70002609F10105834647E001204B46B4
:1058B00000904FF000470AAA01A90CA8FFF7D1FEFB
:1058C000DDE90DB00C995D46002610B909F1010023
:1058D0000D18B9EB050003D4C0F1FF3609F101053D
:1058E000A5EB09002BE0B9F1010F01DA4FF0010936
:1058F0000020B9F1110F0090484601DD112300E0AE
:1059000003460AAA01A90CA8FFF7ABFEDDE90C705B
:105910004D4600268346207800070AD4AB4500DABE
:105920005D4601A8012D04DD411911F8011C302943
:1059300007D04F4502DA17F1040F04DA012082463E
:105940000FE06D1EEEE7002F02DCED1B3E4403E08E
:10595000781CA84200DD7D1CB81B00F1010A4FF045
:1059600000472078000703D4AA4501DB4FF0FF3A37
:105970000021B7F1004F0DF143088DF8431024D0FA
:1059800002202B23002F01DA7F422D230A21021E41
:10599000A0F1010000DC5FB197FBF1FC97FBF1F295
:1059A00001FB1C7C17460CF1300C08F801CDEEE72A
:1059B000A8F1010003702188090501D5452100E007
:1059C0006521A0F1010800F8011C09980FA9A1EBBD
:1059D0000807FF1D00B10120411901EBEA70A16920
:1059E0003844081A401EA0612078C00602D4204620
:1059F000FFF718FA099828B1D4E901219047206AE5
:105A0000401C20622078C00622D52046FFF70AFA03
:105A10001EE0002E04DBB34502DD01A8805D00E03E
:105A20003020D4E901219047206A401C2062761C76
:105A3000AAF101005FEA000A0AD100F0A1F8C068EB
:105A40000168405CD4E901219047206A401C206233
:105A5000281EA5F10105DCDC07E0D4E9012118F8D6
:105A6000010B9047206A401C2062381EA7F10107F5
:105A7000F3DC2046FFF7ECF9032011B041E600000B
:105A800001694A1C02610878704700B58FB0CDE902
:105A900001310021059105497944CDE903101146F2
:105AA0006846FFF70FFB0FB000BD0000E5FFFFFFEA
:105AB0000A6802F8010B0A60704710B5436913B118
:105AC000AFF3008001E0FFF7E6F9012010BD127886
:105AD00000F124010A7000224A700122EDE71168EA
