:020000040800F2
:10000000E00700205D17000815030008170300082B
:100010001B0300081F030008230300080000000062
:10002000000000000000000000000000270300089E
:1000300029030008000000002B0300082D0300081E
:100040007717000877170008771700087717000858
:100050007717000877170008771700087717000848
:100060007717000877170008771700087717000838
:100070007717000877170008771700087717000828
:100080007717000877170008771700087717000818
:100090007717000877170008771700087717000808
:1000A00077170008771700087717000877170008F8
:1000B00077170008771700087717000877170008E8
:1000C00077170008771700087717000877170008D8
:1000D00077170008731F00088B1F0008C91F00084E
:1000E00077170008771700087717000800F002F864
:1000F00000F042F80AA090E8000C82448344AAF180
:100100000107DA4501D100F037F8AFF2090EBAE87D
:100110000F0013F0010F18BFFB1A43F0010318473B
:100120003422000054220000103A24BF78C878C15D
:10013000FAD8520724BF30C830C144BF04680C60ED
:10014000704700000023002400250026103A28BF35
:1001500078C1FBD8520728BF30C148BF0B60704739
:10016000642901F0B787732902F09080002070475E
:100170001FB51FBD10B510BD02F0BAF81146FFF74C
:10018000F7FF00F05FF802F0D8F803B4FFF7F2FFD2
:1001900003BC01F0B1FD000010B548A001F030FF34
:1001A0004FF4967001F075FD46A1474801F0CEFF6F
:1001B000044642A001F024FF4FF4967001F069FD5F
:1001C00040A1414801F0C2FF044601F01FFBC4B941
:1001D00001203E4908604FF4967001F05AFD4FF43B
:1001E000967001F056FD4FF4967001F052FD4FF4F9
:1001F000967001F04EFD00203549C1F8800101F0F4
:1002000005FB2EA001F0FCFE4FF4967001F041FDBD
:1002100001F0FCFA2FA001F0F3FE4FF4967001F00C
:1002200038FD01F0F3FA2EA001F0EAFE4FF49670CB
:1002300001F02FFD2EA001F0E3FE4FF4967001F0C7
:1002400028FD10BD1FB52EA30FCB8DE80F0001F0C8
:10025000E3FC01F04BFD01F0A1FA4FF4165001F060
:1002600075FD4FF4165001F0C0FD40F271210720DA
:1002700001F0BAFAFFF790FF01F0DFFA01F093FB0B
:100280001AE000BF00BF684601F072FFC0F34704E8
:100290006946204601F0D3FB1D48006808B90120DB
:1002A00000E000201A4908604FF4FA7001F0F1FCF8
:1002B00001F0F0FB01F0AAFAE3E7000041540D0A57
:1002C000000000004F4B0000B700002080012142D9
:1002D000000021424154453026570D0A000000001D
:1002E00041542B514D54444953433D300D0A0000B5
:1002F00041542B514D54434C4F53453D300D0A0052
:10030000303230303038303030323033303400003A
:1003100080812142704700BFFEE700BFFEE700BFBB
:10032000FEE700BFFEE77047704770477047000068
:1003300010B500F03DFE012000F0BFFE00BF2120FF
:1003400000F079FE0028FAD0102000F099F9022080
:1003500000F082F9002000F0D0FE002000F0DFFE67
:100360004FF4806000F0D2FE4FF46011002000F0E6
:10037000A7FE012000F0B0FE00BF392000F05BFEB8
:100380000028FAD0022000F0AAFE00BF00F0B0FE64
:100390000828FBD101211D2000F078FF10BD0CB50D
:1003A0000020019000906C48006840F480306A4959
:1003B000086000BF6848006800F4003000900198B1
:1003C000401C0190009818B90198B0F5A06FF1D1C8
:1003D0006148006800F4003010B10120009001E095
:1003E000002000900098012843D15C48006840F04C
:1003F00010005A4908600846006820F003000860B1
:100400000846006840F002000860534840685249BE
:1004100048600846406848600846406840F480608C
:1004200048600846406820F47C10486008464068F0
:1004300040F4E81048600846006840F080700860AA
:1004400000BF4548006800F000700028F9D042481D
:10045000406820F00300404948600846406840F08A
:100460000200486000BF3C48406800F00C000828CB
:10047000F9D10CBD10B5FFF792FF10BD10B536488D
:10048000006840F00100344908600846406834497B
:1004900008403149486008460068324908402E4902
:1004A00008600846006820F480200860084640681C
:1004B00020F4FE0048604FF41F008860FFF7DAFF69
:1004C0004FF000602849086010BD10B500210020E1
:1004D0000022214B5B6803F00C0121B1042906D0F6
:1004E000082928D107E0214B214C236027E01F4B2E
:1004F0001F4C236023E0184B5B6803F47010164B0D
:100500005B6803F48032022303EB904022B9194B5D
:100510004343174C23600DE00F4B5B6803F400333B
:1005200023B1144B4343124C236003E00F4B43436E
:100530000F4C236003E00D4B0D4C236000BF00BF48
:10054000054B5B68C3F303130B4CE15C084B1B6862
:10055000CB40074C236010BD001002400020024039
:100560000000FFF8FFFFF6FE08ED00E000127A0041
:100570000000002000093D00040000203149014333
:10058000314A1160704770B5002100230F22C478F2
:1005900004B32D4C246804F4E064C4F5E064210A3B
:1005A000C1F10403CA40447804FA03F1847814408A
:1005B00021430901254C0678A155047804F01F0554
:1005C0000124AC4005786D11AD0005F1E025C5F8BA
:1005D000004109E0047804F01F050124AC401C4DE3
:1005E0000678761145F8264070BD1A4A0A40024343
:1005F000154B1B1F1A60704739B1134A121D126840
:100600000243114B1B1D1A6006E00F4A121D1268AF
:1006100082430D4B1B1D1A607047042808D14FF010
:10062000E021096941F004014FF0E022116107E087
:100630004FF0E021096921F004014FF0E02211613F
:10064000704700000000FA050CED00E000E400E057
:1006500080E100E080FFFF1F01460020FE4A106895
:1006600000F03800084310607047FB49096821F02A
:100670000801F94A11601146096801431160704789
:10068000F549096821F01001F34A11601146096823
:10069000014311607047F148EF494860F0484860F5
:1006A0007047EE48EC494860ED4848607047EA48BA
:1006B000006940F08000E84908617047E648006939
:1006C00040F08000E449086170470420E249C968AD
:1006D00001F0010109B101200EE0DF49C96801F014
:1006E000040109B1022007E0DB49C96801F01001EB
:1006F00009B1032000E00420704700B5024604233E
:10070000FFF7E3FF034603E0FFF7DFFF0346521E58
:10071000012B01D1002AF7D102B90523184600BDEB
:1007200030B5044604254FF43020FFF7E6FF0546B8
:10073000042D17D1C848006940F00200C64908617D
:1007400008464461006940F0400008614FF43020E1
:10075000FFF7D3FF0546C048006941F6FD71084028
:10076000BD490861284630BD10B504244FF430203F
:10077000FFF7C3FF0446042C16D1B748006940F0C8
:100780000400B54908610846006940F0400008616E
:100790004FF43020FFF7B1FF0446AF48006941F63F
:1007A000FB710840AC490861204610BD00B5024607
:1007B0000423FFF78AFF034603E0FFF786FF0346A3
:1007C000521E012B01D1002AF7D102B90523184688
:1007D00000BD10B504244FF43020FFF7E7FF0446B6
:1007E000042C16D19C48006940F004009A49086125
:1007F0000846006940F0400008614FF43020FFF7E0
:10080000D5FF04469448006941F6FB7108409249BF
:100810000861204610BD00208F49C96901F002011E
:1008200009B1012000E00020704730B5A52504245F
:10083000FFF7F1FF00B100254FF43020FFF75DFF17
:100840000446042C3AD185488349886084488860EE
:100850000846006940F0200008610846006940F041
:10086000400008614FF43020FFF747FF0446042C96
:100870001BD17948006941F6DF710840764908616B
:100880000846006940F01000086176480580E002E3
:10089000FFF733FF0446052C10D06F48006941F67E
:1008A000EF7108406C49086108E0052C06D06A48E1
:1008B000006941F6EF71084067490861204630BD84
:1008C00078B506460C46042500200090E802FFF7A4
:1008D00014FF0546042D24D15F48006940F0010053
:1008E0005D4908613480E802FFF707FF0546042DE3
:1008F00010D1B01C0090200C00990880E802FFF78E
:10090000FCFE05465448006941F6FE710840524914
:10091000086106E05048006941F6FE7108404E4902
:100920000861284678BD70B504460D460426F002DD
:10093000FFF7E3FE0646042E11D14748006940F058
:100940000100454908612580F002FFF7D6FE064602
:100950004148006941F6FE7108403F490861304650
:1009600070BD70B505460E460424E002FFF7C5FED3
:100970000446042C17D139483749886038488860C4
:100980000846006940F0100008612E80E002FFF781
:10099000B4FE0446052C06D02F48006941F6EF71DD
:1009A00008402D490861204670BD2DE9F0430446FA
:1009B0004FF6FF763746B046B1460425E443E6B22B
:1009C000C4F30727C4F307484FEA1469E802FFF7A6
:1009D00094FE0546042D49D120481F4988602048CF
:1009E00088600846006940F010000861FF2E06D0BC
:1009F0001C4808300680E802FFF77FFE0546042DFC
:100A000008D1FF2F06D017480A300780E802FFF709
:100A100074FE0546042D0AD1B8F1FF0F07D0114826
:100A20000C30A0F80080E802FFF767FE0546042DB1
:100A30000AD1B9F1FF0F07D00A480E30A0F8009094
:100A4000E802FFF75AFE0546052D0FD0024800695F
:100A500041F6EF71084007E000200240230167459E
:100A6000AB89EFCD00F8FF1F664908612846BDE855
:100A7000F08330B5054604244FF43020FFF73DFEE7
:100A80000446042C41D160485E4988605F48886014
:100A90000846006940F0200008610846006940F0FF
:100AA000400008614FF43020FFF727FE0446042C75
:100AB00022D15448006941F6DF710840514908616C
:100AC0000846006940F0100008611DB1002050493F
:100AD000088002E0A5204E4908804FF43020FFF73F
:100AE0000CFE0446052C10D04648006941F6EF7113
:100AF00008404449086108E0052C06D041480069D7
:100B000041F6DF7108403F490861204630BDF0B52D
:100B100005460E46174604243B483A4988603B4840
:100B20008860E002FFF7E9FD0446042C19D135483E
:100B3000006940F010003349086147F0F800304385
:100B400028433349891C0880E002FFF7D6FD04469C
:100B5000052C06D02B48006941F6EF710840294961
:100B600008612046F0BD2748C069800870472548C5
:100B7000006A704700202349096801F0200109B18B
:100B8000012000E00020704729B11E4A126902438B
:100B90001C4B1A6104E01B4A12698243194B1A610B
:100BA000704701460020012908D1164AD26902F097
:100BB00001020AB1012008E0002006E0114AD268D3
:100BC0000A400AB1012000E0002070470D49C860CA
:100BD000704704200B49C96801F0010109B10120E7
:100BE0000EE00849C96801F0040109B1022007E0DC
:100BF0000449C96801F0100109B1032000E0042094
:100C0000704700000020024023016745AB89EFCD0B
:100C100000F8FF1F10B50446CC48844208D10121DA
:100C2000042000F04DFB0021042000F049FB46E0C9
:100C3000C748844208D10121082000F041FB00216F
:100C4000082000F03DFB3AE0C248844208D101216F
:100C5000102000F035FB0021102000F031FB2EE0C9
:100C6000BD48844208D10121202000F029FB002149
:100C7000202000F025FB22E0B848844208D1012161
:100C8000402000F01DFB0021402000F019FB16E081
:100C9000B348844208D10121802000F011FB0021DB
:100CA000802000F00DFB0AE0AE48844207D101210C
:100CB000801500F005FB0021A01500F001FB10BD20
:100CC00010B50121084600F0FBFA0021012000F0D8
:100CD000F7FA10BD2DE9F04102460025002600205C
:100CE00000230024002791F803C00CF00F0591F8B1
:100CF00003C00CF0100CBCF1000F03D091F802C03F
:100D00004CEA050591F800C0BCF1000F31D0146821
:100D100000202BE04FF0010C0CFA00F3B1F800C0FA
:100D20000CEA03069E4220D183004FF00F0C0CFA10
:100D300003F7BC4305FA03FC4CEA040491F803C032
:100D4000BCF1280F06D14FF0010C0CFA00FCC2F8E0
:100D500014C00AE091F803C0BCF1480F05D14FF070
:100D6000010C0CFA00FCC2F810C0401C0828D1D3BA
:100D70001460B1F800C0BCF1FF0F34DD54680020EE
:100D80002EE000F1080C4FF0010808FA0CF3B1F85E
:100D900000C00CEA03069E4221D183004FF00F0CE5
:100DA0000CFA03F7BC4305FA03FC4CEA040491F87F
:100DB00003C0BCF1280F05D100F1080C08FA0CF8AB
:100DC000C2F8148091F803C0BCF1480F07D100F1BC
:100DD000080C4FF0010808FA0CF8C2F81080401C0B
:100DE0000828CED35460BDE8F0814FF6FF71018032
:100DF000022181700421C17070470246002093686F
:100E00000B400BB1012000E00020704701468868CC
:100E100080B2704702460020D3680B400BB101201E
:100E200000E0002070470146C86880B27047016149
:100E30007047416170470AB1016100E0416170474C
:100E4000C16070474FF480320A43826181618261E0
:100E500082698269704702460020434B18684FF64A
:100E60008073184040EA021008433F4B18607047F7
:100E70003E49C8617047F0B50A46002300240021AE
:100E8000002500F00046B6F1004F02D1364EF16960
:100E900001E0354E7168C0F3034583B200F440169B
:100EA000B6F5401F08D121F070612F4E766826F00C
:100EB00070662D4F7E6012E000F48016B6F5801F3C
:100EC00006D1032606FA05F4A14341F0706106E05D
:100ED000460D360103FA06F6B14341F0706122B1C6
:100EE000460D360103FA06F6314300F00046B6F12E
:100EF000004F02D11C4EF16101E01B4E7160F0BD4C
:100F000030B500228B071C0F0F2303FA04F2164B97
:100F100008338C1053F824309343134C08348D104D
:100F200044F8253023468C1053F824308C07240FC6
:100F300000FA04F423430C4C08348D1044F8253097
:100F400030BD0A49DC3108607047000000080140EC
:100F5000000C014000100140001401400018014045
:100F6000001C014000200140000001400000204220
:100F70000E49086070470D49486070470B4988600A
:100F800070474AF6AA200949086070474CF6CC40E1
:100F900006490860704701460020044AD2680A40AA
:100FA0000AB1012000E0002070470000003000403E
:100FB000DF48006840F00100DD49086008464068ED
:100FC000DC490840DA49486008460068DA490840C8
:100FD000D74908600846006820F480200860084669
:100FE000406820F4FE0048604FF41F00886070479E
:100FF000CF49096821F48031CD4A11601146096852
:1010000021F480211160B0F5803F03D0B0F5802F2E
:101010000ED106E0C649096841F48031C44A116026
:1010200007E0C349096841F4A021C14A116000E00A
:1010300000BF00BF704710B501460022002300200A
:101040004A11012A02D1BA4C236806E0022A02D1D1
:10105000B74C236A01E0B64C636A01F01F02012419
:1010600094401C400CB1012000E0002010BD38B5B8
:10107000002000900024002500BF3120FFF7DBFF97
:1010800005460098401C00900098B0F5A06F01D074
:10109000002DF2D03120FFF7CEFF08B1012400E08F
:1010A0000024204638BD01460020A14A106820F0E7
:1010B000F80040EAC10010607047A049086070471E
:1010C000024600209A4B586820F47C1042EA010343
:1010D0001843974B58607047984908667047014617
:1010E0000020934A506820F0030008435060704786
:1010F0008F48406800F00C007047014600208C4A81
:10110000506820F0F000084350607047014600200E
:10111000874A506820F4E0600843506070470146F9
:101120000020834A506820F4605040EAC1005060BB
:10113000704729B17E4A527A02437D4B5A7204E0CD
:101140007B4A527A82437A4B5A7270477B49D83134
:101150000860704701460020754A506820F44040FE
:101160000843506070470021714A20321170704A64
:1011700082F82010012802D004280AD104E00121BD
:101180006B4A2032117005E00521694A2032117046
:1011900000E000BF00BF70476949086070476449BC
:1011A000096A0143624A116270476549443908601F
:1011B000704730B500210022002400235C4D6D688B
:1011C00005F00C0121B1042905D0082923D105E03F
:1011D0005C4D056022E05B4D05601FE0544D6D687D
:1011E00005F47012524D6D6805F48034022505EB4C
:1011F00092421CB9544D554305600BE04C4D6D684F
:1012000005F400351DB1504D5543056002E04D4DCC
:101210005543056002E04B4D056000BF00BF444DE3
:101220006D6805F0F0010909484D6B5C0568DD400B
:1012300045603F4D6D6805F4E061090A434D6B5C04
:101240004568DD4085603A4D6D6805F46051C90A16
:101250003E4D6B5C4568DD40C560354D6D6805F4FD
:101260004041890B3A4D6B5CC568B5FBF3F50561F0
:1012700030BD29B12E4A526902432D4B5A6104E018
:101280002B4A526982432A4B5A61704729B1284A36
:1012900092690243264B9A6104E0254A926982438F
:1012A000234B9A61704729B1214AD2690243204BEE
:1012B000DA6104E01E4AD26982431D4BDA6170474D
:1012C00029B11B4AD2680243194BDA6004E0184A7C
:1012D000D2688243164BDA60704729B1144A12690A
:1012E0000243134B1A6104E0114A12698243104B06
:1012F0001A61704712494039086070470F49C86445
:1013000070470B49C87170470948406A40F08070C7
:1013100007494862704701460020054A92680A4022
:101320000AB1012000E0002070470149887270472F
:10133000001002400000FFF8FFFFF6FE00004242EE
:101340008004424200127A0000093D00140000208F
:101350002400002010B50446FB48844209D1012135
:101360008803FFF7ADFF00214FF48040FFF7A8FF8F
:1013700032E0F648844209D101214804FFF7ADFF6D
:1013800000214FF40030FFF7A8FF25E0F048844229
:1013900009D101218804FFF7A0FF00214FF480202C
:1013A000FFF79BFF18E0EB48844209D10121C804F4
:1013B000FFF793FF00214FF40020FFF78EFF0BE0B3
:1013C000E548844208D101210805FFF786FF002186
:1013D0004FF48010FFF781FF10BD2DE9F04786B074
:1013E00005460E460024A24600BFA1460027B0894C
:1013F00000B100BF2F462C8A4CF6FF700440F088E5
:1014000004432C82AC894EF6F3100440B088318935
:101410000843718908430443AC81AC8A4FF6FF400E
:101420000440B0890443AC8201A8FFF7C2FEC6485D
:10143000874202D1DDF810A001E0DDF80CA0A889F8
:1014400000F4004040B10AEBCA0000EB0A1031681A
:101450004900B0FBF1F807E00AEBCA0000EB0A1004
:1014600031688900B0FBF1F86420B8FBF0F00401AA
:101470002009642101FB1089A88900F4004040B1D3
:10148000322000EBC900B0FBF1F000F0070004438C
:1014900008E0322000EB09106421B0FBF1F000F00D
:1014A0000F0004432C8106B0BDE8F0874FF41651BD
:1014B000016000218180C18001810C2141810021D6
:1014C0008181704710B502460020108A4FF2FF0359
:1014D00018400B884C8823438C882343CC882343B3
:1014E0001843108210BD0021018041808180C1809D
:1014F000704721B1828942F40052828104E08289DE
:101500004DF6FF731A4082817047F0B50346002400
:1015100000260025002040F66A17B94200D100BF1E
:101520001846C1F3421401F01F06012707FA06F519
:10153000012C01D10C3004E0022C01D1103000E06C
:1015400014301AB107682F43076002E00768AF4301
:101550000760F0BD1AB1838A0B43838202E0838A5D
:101560008B4383827047028A4FF6F0731A400282DF
:10157000028A0A430282704782894FF2FF731A403F
:10158000828182890A438281704721B1828942F037
:101590000202828104E082894FF6FD731A40828143
:1015A0007047028A4FF6DF731A400282028A0A43AA
:1015B0000282704721B1028A42F48042028204E032
:1015C000028A4BF6FF731A4002827047C1F3080289
:1015D0008280704701468888C0F30800704781897F
:1015E00041F0010181817047028BD2B20283028BEC
:1015F00042EA012202837047028B02F47F42028397
:10160000028B0A430283704721B1828A42F0200292
:10161000828204E0828A4FF6DF731A40828270472A
:1016200021B1828A42F01002828204E0828A4FF65F
:10163000EF731A408282704721B1828A42F0080219
:10164000828204E0828A4FF6F7731A4082827047E2
:1016500021B1828942F40042828103E08289C2F38F
:101660000E028281704721B1828A42F40062828236
:1016700004E0828A4FF2FF731A4082827047828AA6
:101680004FF6FB731A408282828A0A438282704735
:1016900021B1828A42F00202828204E0828A4FF6FD
:1016A000FD731A408282704702460020B1F5007F28
:1016B00000D100BF13880B400BB1012000E00020D7
:1016C000704701F40072B2F5007F00D100BFCA4339
:1016D0000280704770B502460024002300250020D8
:1016E00040F66A16B14200D100BFC1F3421501F0C5
:1016F0001F03012606FA03F3012D02D19689334018
:1017000006E0022D02D1168A334001E0968A33406A
:101710000C12012606FA04F41688344013B10CB1F9
:10172000012000E0002070BD10B50022002340F62B
:101730006A14A14200D100BF0A1201249440A3B24E
:10174000DC43048010BD000000380140004400402C
:1017500000480040004C00400050004009488047CD
:1017600009480047FEE7FEE7FEE7FEE7FEE7FEE783
:10177000FEE7FEE7FEE7FEE704480549054A064B9B
:10178000704700007D040008ED000008E001002023
:10179000E0070020E0030020E003002008B501215D
:1017A0000C20FFF773FD0120ADF8000010208DF82C
:1017B000030003208DF8020069460948FFF78AFA02
:1017C00040F20110ADF8000010208DF80300032056
:1017D0008DF8020069460348FFF77CFA08BD000057
:1017E000000C01400008014070B505460C4645F26A
:1017F0005550FFF7BDFB2846FFF7BDFB2046FFF71E
:10180000BDFBFFF7BEFBFFF7C1FB70BD10B5FFF7D7
:10181000B8FB10BD10B5AF4800F089FB002404E010
:101820000020AC490855601CC4B2642CF8DB0020D1
:10183000A9490870FFF7EAFF10BD10B5A7A000F096
:10184000DFFB4FF4967000F024FAA6A1A14800F047
:101850007DFCA5490860FFF7DDFF0EE0FFF7DAFF2A
:101860009EA000F0CDFB4FF4967000F012FA9DA1FF
:10187000984800F06BFC9C4908609B480068002871
:10188000ECD09AA000F0BCFB4FF4967000F001FA87
:1018900099A000F0B5FB4FF4967000F0FAF999A109
:1018A0008C4800F053FC90490860FFF7B3FF0EE04E
:1018B000FFF7B0FF90A000F0A3FB4FF4967000F08C
:1018C000E8F990A1834800F041FC87490860864808
:1018D00000680028ECD08CA000F092FB4FF49670CA
:1018E00000F0D7F97FA17B4800F030FC7E4908600A
:1018F000FFF790FF88A000F083FB4FF4967000F094
:10190000C8F988A1734800F021FC77490860FFF707
:1019100081FF0EE0FFF77EFF7FA000F071FB4FF428
:10192000967000F0B6F97FA16A4800F00FFC6E498E
:1019300008606D4800680028ECD07DA000F060FBD6
:101940004FF4967000F0A5F97CA1624800F0FEFB10
:10195000654908600846006810B308460068007AC8
:1019600030380968C979303901EB810100EB410059
:101970007449087008460078632804D05A48006803
:10198000C079303840B906E000206E4981F8720015
:101990006DA000F0CCFAF7E701206A4981F87200E7
:1019A000FFF738FF10BD10B56EA000F029FB4FF413
:1019B000967000F06EF9FFF72DFF6DA000F020FB90
:1019C0004FF4967000F065F96DA000F019FB4FF42C
:1019D000967000F05EF96EA000F012FB4FF4967066
:1019E00000F057F9FFF716FF6CA000F009FB4FF469
:1019F000967000F04EF9FFF70DFF6DA000F000FBB0
:101A00004FF4967000F045F973A1324800F09EFB48
:101A1000354908604FF4967000F03BF908E06EA17C
:101A20002C4800F093FB30490860642000F031F945
:101A30002D4800680028F2D0FFF7ECFE10BD70B50D
:101A400004460D462A46214667A000F0D9FA4FF415
:101A5000967000F01EF969A11E4800F077FB22493C
:101A600008604FF4967000F014F908E063A119487B
:101A700000F06CFB1C490860642000F00AF91A4869
:101A800000680028F2D0134800F051FA00201249F3
:101A9000087070BD10B55DA10E4800F057FB1249EB
:101AA00008600846006880B108460068007E30285B
:101AB00003D100205749086007E00B480068007E0A
:101AC000312802D1012053490860002002490870E2
:101AD00010BD0000B70000204000002041540D0A56
:101AE000000000004F4B00002800002041542B4311
:101AF00046554E3D310D0A0041542B43494D490D89
:101B00000A0000003436300041542B4347415454FE
:101B10003D310D0A0000000041542B43474154540D
:101B20003F0D0A002B43474154543A203100000036
:101B300041542B434553510D0A0000002B4345539C
:101B40005100000044000020D0C5BAC5CBD1CBF76E
:101B5000CAA7B0DCA3ACC7EBB2E9BFB4D4ADD2F234
:101B6000210D0A0041542B4347534E3D310D0A00CD
:101B700041542B4E434450434C4F53450D0A0000F3
:101B800041542B4353434F4E3D310D0A000000009A
:101B900041542B4E4E4D493D310D0A0041542B4EC0
:101BA0004346473D302C38363430300D0A000000B3
:101BB00041542B4E4344504F50454E3D223232311A
:101BC0002E3232392E3231342E323032222C35360A
:101BD00038330D0A000000002B514C57455654492C
:101BE0004E443A203300000041542B4E4D47533DA4
:101BF00025642C25732C3130300D0A002B514C57A5
:101C0000455654494E443A20340000002B4E4E4D68
:101C1000493A0000A001214210B56FF00400FEF720
:101C2000FCFC2E4800682E49B0FBF1F02D490870ED
:101C30000846007800EB4001C1EBC0104FF6FF7181
:101C400001EAC0002849088010BD0146254A1278E3
:101C50004A434FF0E0235A6100229A611A46126902
:101C600042F001021A6100BF4FF0E022106900F05B
:101C700001021AB100F48032002AF5D04FF0E022C0
:101C8000126922F001024FF0E0231A6100229A61EA
:101C900070470146144A12884A434FF0E0235A61C4
:101CA00000229A611A46126942F001021A6100BFCD
:101CB0004FF0E022106900F001021AB100F4803206
:101CC000002AF5D04FF0E022126922F001024FF015
:101CD000E0231A6100229A61704700000000002092
:101CE00000127A00320000203400002010B54FF4BA
:101CF000A060FEF743FC10BD00BF704700BFB84AAC
:101D0000128802F04002002AF9D0C2B2B44B1B1D67
:101D10001A80704710B5044600BF8021B148FFF714
:101D2000C3FC0028F9D02146AE48FFF74FFC10BD98
:101D300010B5044600BF8021A948FFF7B5FC002874
:101D4000F9D02146A648FFF741FC10BD10B586B07A
:101D50000446012144F20400FFF798FAA148FFF776
:101D6000F9FA4FF40070ADF8140003208DF8160056
:101D700018208DF8170005A99B48FEF7ABFF4FF41C
:101D80008060ADF8140048208DF8170005A996482A
:101D9000FEF7A0FF25208DF8000003208DF801003C
:101DA0008DF8020001208DF803006846FEF7EBFB7A
:101DB00001940020ADF80800ADF80A00ADF80C0061
:101DC000ADF810000C20ADF80E0001A98548FFF712
:101DD00004FB012240F225518248FFF796FB0121C6
:101DE0008048FFF786FB06B010BD10B586B00446EC
:101DF00001210420FFF74AFA01214804FFF753FAB2
:101E00007748FFF7A7FA0420ADF8140003208DF8F7
:101E1000160018208DF8170005A97348FEF75AFF21
:101E20000820ADF8140004208DF8170005A96E48AD
:101E3000FEF750FF26208DF8000000208DF80100ED
:101E400001208DF802008DF803006846FEF79BFB29
:101E500001940020ADF80800ADF80A00ADF80C00C0
:101E6000ADF810000C20ADF80E0001A95C48FFF79A
:101E7000B4FA012240F225515948FFF746FB0121EF
:101E80005748FFF736FB06B010BD10B586B00446C4
:101E900001210820FFF7FAF901218804FFF703FA6E
:101EA0005248FFF757FA4FF48060ADF81400032052
:101EB0008DF8160018208DF8170005A94C48FEF77C
:101EC00009FF4FF40060ADF8140004208DF81700EE
:101ED00005A94748FEF7FEFE27208DF800000020E8
:101EE0008DF8010001208DF802008DF8030068468E
:101EF000FEF749FB01940020ADF80800ADF80A0098
:101F0000ADF80C00ADF810000C20ADF80E0001A9E2
:101F10003648FFF762FA012240F225513348FFF7B5
:101F2000F4FA01213148FFF7E4FA06B010BD0BE0E6
:101F300000BF2C49098801F040010029F9D001783F
:101F4000284A121D1180401C01780029F0D17047E9
:101F50000BE000BF2549098801F040010029F9D0B4
:101F60000178224A121D1180401C01780029F0D10D
:101F7000704710B540F225511A48FFF7ABFB18B176
:101F80001848FFF727FBC4B210BD10B540F2255129
:101F90001348FFF79FFBB0B11148FFF71BFBC4B21A
:101FA0000F48FFF717FBC1B2124802780078401CB7
:101FB000104B18701048815418460078632802DDD1
:101FC00000201946087010BD10B540F22551074891
:101FD000FFF780FB18B10548FFF7FCFAC4B210BD4B
:101FE0000044004000380140000801400048004023
:101FF000000C014040000020B700002070470000A6
:102000000FB4044910B503AA029800F043F910BCBC
:102010005DF814FB3C0000202DE9F0410E4604461B
:10202000002020622046E168884730B3252805D08B
:10203000D4E901219047206A401CF2E7E16820467C
:1020400000278847050018D0A5F14100192802D8BB
:1020500020354FF400673246294620462760FEF7B8
:102060007FF840B1012804D0F61D26F00706083697
:10207000D8E7361DD6E72846DAE7206ABDE8F081C2
:1020800070B50C460546012A05D02878800600D593
:10209000EA69002302E0012305E05B1C934202D2BF
:1020A000E05C0028F9D1A869E618C01AA861286A7E
:1020B000184428622846AFF3008004E0D5E90121E6
:1020C00014F8010B9047B442F8D32846AFF30080D0
:1020D00070BD00002DE9F041064600241068752906
:1020E000314616A510D0AFF30080002802DA404236
:1020F00013A507E031688A0701D512A502E0490758
:1021000004D511A5012401E0AFF3008000210A22CB
:1021100006F1240709E0B0FBF2FCB0FBF2F302FB8E
:102120001C00303078541846491C0028F3D123464F
:102130002A463046BDE8F04100F03DB800000000FE
:102140002D0000002B0000002000000030B50546E7
:102150000B462A4613F8014B12F8010B08B1A042B6
:10216000F8D01CB1002802D06D1CF1E7284630BD24
:1021700010B5431C02E010F8011B71B18107FAD1C0
:102180004FF0013202C88C1A8C4314EAC211F9D004
:10219000C01A0A0603D0C01E10BDC01A10BD0A0422
:1021A00001D0801E10BD0902FCD0401E10BD70473A
:1021B0007047704770472DE9F0470D4699469246A3
:1021C000044600F124080168880604D5E06921F07E
:1021D0001001216000E00120A84201DD471B00E062
:1021E0000027A1697A1902EB0900081AA06120787A
:1021F000C00602D42046AFF30080002608E0D4E9F0
:1022000001211AF806009047206A401C761C2062C3
:102210004E45F4DB2078C0060AD52046AFF3008097
:1022200006E0D4E9012130209047206A401C20625A
:10223000381EA7F10107F4DC07E0D4E9012118F802
:1022400005009047206A401C2062281EA5F1010568
:10225000F3DC2046AFF300802078000602D5022090
:10226000BDE8F0870120FBE710B5436913B1AFF378
:10227000008001E0FFF704FF012010BD127800F19B
:1022800024010A7000224A700122EDE711684FF024
:10229000FF32E9E7074B70B50D467B4400F011F8BB
:1022A0000446284600F020F810B14FF0FF3070BD12
:1022B000204670BD5FFAFFFF01694A1C0261087881
:1022C000704700B58FB0CDE9013100210591054976
:1022D0007944CDE9031011466846FFF79DFE0FB023
:1022E00000BD0000E5FFFFFF007B00F080007047AD
:1022F000754600F02BF8AE4605006946534620F0BF
:102300000700854618B020B5FFF736FABDE8204033
:102310004FF000064FF000074FF000084FF0000BA1
:1023200021F00701AC46ACE8C009ACE8C009ACE854
:10233000C009ACE8C0098D46704710B50446AFF33C
:1023400000802046BDE81040FDF71FBF00487047E1
:1023500080010020742300080000002044000000D9
:1023600028010008B8230008440000209C07000052
:102370004401000800A24A04000000000000000020
:10238000010203040607080900000000010203041B
:102390000102030406070809020406080000000001
:1023A000000000000000000000000000000000002D
:0823B000000000000000000025
:04000005080000ED02
:00000001FF
